:100000000C94EB010C9408020C9408020C94080266
:100010000C9408020C9408020C9408020C94080238
:100020000C9408020C9408020C946F160C942B1676
:100030000C946C170C9408020C9408020C9408029F
:100040000C9408020C9408020C9408020C94080208
:100050000C9408020C9448170C9408020C940802A3
:100060000C9408020C9408020C9408020C940802E8
:100070000C9408020C9408020C9408020C940802D8
:100080000C9408020C9408020C9408020C940802C8
:100090000C9408020C9408020C9408020C940802B8
:1000A0000C9408020C9408020C94080200571A00E1
:1000B0000800150017001C0018000C0012001300A7
:1000C00004281624072109220A000B000D320E31E4
:1000D0000F3433381D001B00060019000500110005
:1000E00010003600370038000000000000002C002F
:1000F0002152225228000000000000001E001F00B4
:1001000020002100220023002400250026002700D3
:100110002B0006570757085709570A570B570C5714
:100120000D570E5729001F0220022102220223022E
:10013000240225021E0238020000000000002C00EC
:10014000010022522A00000000000000AE00A900B9
:100150004B004A00737C390049006352017C460021
:10016000A800AA004E004D00440045005000510078
:1001700052004F003A003B003C003D003E003F0073
:1001800040004100420043000000000000004C001D
:100190002152010028000000000000002B00140084
:1001A0001A000800150017001C0018000C001200AF
:1001B000E10004001600070009000A000B000D0012
:1001C0000E000F00E0001D001B00060019000500D6
:1001D000110010001300380000000000000029008A
:1001E0002C00245228000000000000001E001F0008
:1001F00020002100220023002400250026002700E3
:1002000001000100010001000100E3005000510065
:1002100052004F00010001000100010001002D000B
:100220002E00360037006352000000000000E2009C
:10023000010001002A000000000000000501090281
:10024000A10185020901A10005091901290815006C
:1002500025019508750181020501093009311581D3
:10026000257F95027508810609381581257F95013E
:1002700075088106050C0A38021581257F950175E0
:10028000088106C0C005010980A101850319012A62
:10029000B700150126B700950175108100C0050C47
:1002A0000901A101850419012AA002150126A00255
:1002B000950175108100C005010906A1018506059B
:1002C0000719E029E7150025019508750181020548
:1002D00007190029EF1500250195F0750181020528
:1002E000081901290595057501910295017503917C
:1002F00001C005010906A101050719E029E715005C
:100300002501950875018102950175088101050790
:10031000190029FF150026FF0095067508810005C4
:10032000081901290595057501910295017503913B
:1003300001C009023B00020100A0FA09040000010B
:10034000030101000921110100012240000705817C
:100350000308000109040100010300000009211144
:1003600001000122B60007058203200001120100EE
:100370000200000008EDFE00000001010200012A59
:1003800003680061006E0064007700690072006518
:100390000064002F006D006F006E006F006C00693C
:1003A0000074006800330034000000240341006E34
:1003B00000640072006500690020004B0068006165
:1003C000007200690074006F006E006F007600001C
:1003D00000040309040011241FBECFEFDAE0DEBFE2
:1003E000CDBF12E0A0E0B1E0E2E4F7E302C0059087
:1003F0000D92A634B107D9F723E0A6E4B2E001C01C
:100400001D92AC34B207E1F70E9493170C94601B65
:100410000C940000E8EDF0E080818E7F80831092E4
:10042000E2001092DA001092E100A0EEB0E08C91B0
:1004300081608C9380818F77808319BCA7EDB0E0B9
:100440008C918E7F8C9380818F7E808310921A0393
:1004500008952091E4003091E50095E6A9012091EE
:10046000EC00822F817020FF06C08091E80080FFA1
:1004700006C080E008952091E80022FD1AC0809116
:100480003F03882389F0853089F08091EB0085FD5A
:100490000FC02091E4003091E50042175307F9F2B4
:1004A0009150E1F684E0089582E0089583E0089594
:1004B00081E008958091410387FF13C08091E80097
:1004C00082FF06C08091E8008B778093E80004C02B
:1004D00080913F038111F2CF089580913F038823DB
:1004E000D9F38091E80080FFF8CF8091E8008E7703
:1004F000ECCF982F9093E900242F762F50E08917A6
:1005000031F07091EC002091ED005091F00021FD50
:1005100007C09F5F973071F78093E90081E00895ED
:100520003091EB003E7F3093EB003091ED003D7F4A
:100530003093ED003091EB0031603093EB0070931D
:10054000EC002093ED005093F0002091EE0027FD89
:10055000E0CF80E00895B0E0A0E0E1EBF2E00C94A1
:10056000D01AC8EDD0E088818F7E8883E7EDF0E077
:1005700080818160808384E082BF81E080931A0360
:1005800088818E7F888302EE10E0F801108210923D
:10059000DA0081EEC82ED12CF601108288818F7787
:1005A000888388818068888388818F7D888319BC4F
:1005B00010923F031092400310923E0310923D03AD
:1005C00090EEE92EF12CF70180818B7F808388816A
:1005D0008160888342E060E080E00E947902F60159
:1005E00080818E7F8083F80180818160808380811B
:1005F00088608083F70180818E7F8083888180611D
:100600008883CDB7DEB7E8E00C94EC1AFC0180914A
:1006100047039091480386179707A0F0611571056D
:1006200029F49091E8009E779093E80090E061159E
:10063000710551F4911108C08091E80082FF34C027
:1006400080E00895BC01F2CF80913F038823C1F17F
:100650008530C1F18091E80083FD30C08091E800D1
:1006600082FDEACF8091E80080FFE1CF8091F30026
:100670002091F200382F6115710519F028303105ED
:1006800058F091E02830310509F090E02091E80021
:100690002E772093E800CBCF81918093F1006150B9
:1006A00071092F5F3F4FE7CF80913F03882341F0CF
:1006B000853041F08091E80083FFBECF81E008954E
:1006C00082E0089583E0089580911C03089587E7F0
:1006D00097E7909301088093000888E19AE00FB6AD
:1006E000F894A895809360000FBE90936000FFCFB0
:1006F0009C014FB7F8948091140390911503A09139
:100700001603B09117034FBF821B930B08952FB7A9
:10071000F8948091140390911503A0911603B09161
:1007200017032FBF0895209102022223C9F02091C0
:10073000180327FF15C0E62FE695E695E695EE31FE
:10074000D8F4E80FF92FF11D677021E030E001C007
:10075000220F6A95EAF72095828128232283089543
:10076000FC01329608962191621303C0DF011197B4
:100770001C92E817F907B9F7089520910202222385
:10078000C1F02091180327FF14C0E62FE695E695E7
:10079000E695EE31F8F4E80FF92FF11D677021E0CE
:1007A00030E001C0220F6A95EAF78281822B8283B2
:1007B0000895FC0132962FEF30E04191641751F01B
:1007C0002F3F19F4411101C0232F3F5F3630A9F7A5
:1007D0002F3F09F40895820F911D27FD9A95FC0182
:1007E00062830895A3E0B0E0E8EFF3E00C94D61A3A
:1007F000209111033091120328173907A1F090932B
:10080000120380931103E0910F03F09110033097CE
:1008100051F024E029839B838A830680F781E02DB1
:10082000CE01019609952396E2E00C94F21AA3E01A
:10083000B0E0EDE1F4E00C94D61A20910D03309174
:100840000E0328173907A1F090930E0380930D0330
:10085000E0910F03F0911003309751F023E02983CA
:100860009B838A830680F781E02DCE01019609954E
:100870002396E2E00C94F21AE0910F03F09110033A
:10088000309729F00190F081E02D0995089580E0DE
:1008900008950E9487039C019091050380910603AF
:1008A000982B21F0309302032093010390910703CA
:1008B00080910803982B21F0309300032093FF02CE
:1008C000E0910F03F0911003309749F082E080939C
:1008D00003030480F581E02D83E093E009950895FA
:1008E0008091FE0280FD16C081FD16C082FD16C0FB
:1008F0008091FD028823A1F0883280F428E0829F55
:10090000C001112468E270E00E94AC1A862F672BA8
:1009100039F0089582E0089584E0089588E008950C
:1009200081E008958091FE0280FD14C081FD14C015
:1009300082FD16C08091FC02882381F08E3180F404
:1009400020E5829FC00111246EE170E00E94AC1A84
:10095000862F089584E1089588E2089588E0089537
:1009600080E5089580E00895F894E82FE295EF700F
:10097000F0E031A1282F2F7081E090E001C0880FB6
:100980002A95EAF7982F9095932391A392A1892B0A
:1009900082A3789408959091180392FF06C0282F9F
:1009A00028712830F9F4877F846093FF06C0282FD0
:1009B00028712831F1F4877E84612091190320FF8A
:1009C00006C0382F38713830D9F4877F816021FF15
:1009D00006C0282F28712831D1F4877E816194FDCB
:1009E000877E0895282F24712430F9F68B7F886044
:1009F000DCCF282F2471243101F78B7E8861DDCF75
:100A0000382F3171313019F78E7F8860E0CF282F71
:100A10002171213121F78E7E8861E1CF972F7430CB
:100A2000B8F46A30A8F4853098F470E02AE0929F18
:100A3000600D711D1124FB0198E2899FE00DF11DED
:100A40001124EE0FFF1FE455FF4F859194910895F7
:100A500080E090E00895CF93DF93EC018238910518
:100A6000B9F108F041C08133910509F49FC050F5F8
:100A70008932910509F48FC08A9709F49EC0C11587
:100A800020E5D20708F0BDC0C11530E4D30708F057
:100A90000AC1C03ED10508F0A5C0CD3CD10508F083
:100AA00000C1C83AD10508F08FC0C53AD10508F099
:100AB000F0C0C130D10539F1209729F1C430D105FA
:100AC00010F546C08533910509F460C0C997B9F6A1
:100AD00080911803837009F044C18091190383FF4A
:100AE00012C0C9E2D0E00FC0833E9105A1F178F4B5
:100AF000803E910509F1823E910509F0C0CF8091B9
:100B0000180382FD21C0CE01DF91CF910895863E6A
:100B1000910561F1873E910571F1843E910509F0DF
:100B2000AECF8091190381FFEECF80911803C7EEFD
:100B3000D0E084FD0DC0E7CF8091180380FD33C065
:100B40009091190390FFDFCFC3EED0E084FFDBCF9D
:100B5000D0E0C0E0D8CF8091180382FDFFC0909113
:100B6000190390FDFEC084FFCECFF2CF8091180311
:100B700083FDDDCFC8CF8091180383FDF5C0909130
:100B8000190391FFF0CFC4EED0E0BDCF80911803E0
:100B900085FFB9CFA6CF8091180385FDE8C080916D
:100BA000190383FFB0CFC9E3D0E0ADCF8091180324
:100BB00086FFA9CFCAE2D0E0A6CF8091180386FFB6
:100BC000A2CFC1E3D0E09FCFC13CD10508F6C85AFF
:100BD000D0E0CC0FDD1FCA5FDD4F0990D881C02D5A
:100BE000D46491CFC11540E2D40708F0AAC0C11562
:100BF00081E0D80708F087CFC83ED10508F483CF3D
:100C0000A7CFC03622E5D20718F5C03432E5D307A6
:100C100008F053C0C03242E5D40708F047C0C11500
:100C200082E5D80708F47FC02C2F2695269540E250
:100C3000249F900111248C2F8370C1E0D0E002C06A
:100C4000CC0FDD1F8A95E2F7C22BD32BDD685BCF7B
:100C5000C03A22E5D20760F4C03832E5D30708F481
:100C600041C0CF71D0E0DC2FCC27C46FD06A4BCF0E
:100C7000C03C42E5D40708F44AC0C03E82E5D8072C
:100C800008F066CFDC2FCC27CC27DF71C06FD06A8D
:100C90003ACFC55AD0E0CD5FDD4FC881D0E0D064F7
:100CA00032CFD06530CFDF70D06A2DCFCF71D0E09A
:100CB000DC2FCC27C16FD06A26CF2C2F2695269506
:100CC000277080E2289F900111248C2F8370C1E04F
:100CD000D0E002C0CC0FDD1F8A95E2F7C22BD32BE8
:100CE000DC6811CF2C2F26952695277040E2249F93
:100CF000900111248C2F8370C1E0D0E002C0CC0F92
:100D0000DD1F8A95E2F7C22BD32BDA68FCCE8C2F3D
:100D10008F710E94CB04C82FD0E0DC2FCC27CC27CA
:100D2000DF71D062F0CE8C2F8F710E94CB0435E042
:100D3000D695C7953A95E1F7CF709C2FEC01D06915
:100D4000E2CE8D2F8F710E94CB0490E0982F8827E0
:100D500088279F719C012C2BE901E3CFC2EED0E0E4
:100D6000D2CEC0EED0E0CFCEC6EED0E0CCCEC5E342
:100D7000D0E0C9CE8091D60281111092D60208959A
:100D80008095909109039823909309030895809585
:100D900090910A03982390930A0308958091B402D6
:100DA00090918302981301C008958F5F8770FACFE6
:100DB000B0E0A0E0EEEDF6E00C94CF1A7C010091DB
:100DC000E4021091E5028091E2029091E302082B87
:100DD000192BCFE0D0E0CC24C394D12CBC2EC6017B
:100DE0000C2E02C0880F991F0A94E2F780239123EA
:100DF000892B49F4219790F7B12C8B2DCDB7DEB715
:100E0000E9E00C94EB1AB7018C2F0E940E050E94AA
:100E10002B05019779F3F1CFCF93DF93EC010E947B
:100E2000D806BE010E940E050E942B05DF91CF91CE
:100E30000895943078F58A3068F5E82FF0E08AE07C
:100E4000989FE00DF11D11249E2F977083E0F69579
:100E5000E7958A95E1F7EE0FFF1FEE0FFF1FE759A9
:100E6000FD4F50E040E080E0219130E0092E02C0CB
:100E7000369527950A94E2F721703327042E01C096
:100E8000220F0A94EAF7822B4F5F5F4F44305105DF
:100E900059F7089580E00895943098F58A3088F5E0
:100EA000E82FF0E08AE0989FE00DF11D11248E2FCD
:100EB000877041E001C0440F8A95EAF783E0F69518
:100EC000E7958A95E1F7EE0FFF1FEE0FFF1FE75939
:100ED000FD4F30E020E070E05191DF011197CB0130
:100EE000022E02C0969587950A94E2F7817081954B
:100EF0008527842385278C932F5F3F4F243031052E
:100F000059F708959093E5028093E402089521E053
:100F100030E002C0220F331F8A95E2F7209530950A
:100F20008091E4029091E502822393230E9482073C
:100F300008959091B502809589238093B502282F5A
:100F4000277091F4282F082E000C330B92171306EC
:100F500059F09091190392FF07C085958595859565
:100F60000E9487071092B502089521E030E002C088
:100F7000220F331F8A95E2F78091E4029091E502F7
:100F8000822B932B0E94820708959093E302809313
:100F9000E2020895FC0183819481892B29F08081EC
:100FA000918189238F3F51F480E00895843FE1F7D8
:100FB00017C0883EA8F0813FB9F712C080819181A7
:100FC0000E940C0792959F70963099F358F4925FA7
:100FD0009F70923048F7803F19F040F7883E20F725
:100FE00081E008959A5FF4CF662309F45DC08D3CDB
:100FF00041F40E9492048195809306030E94490463
:1010000008958E3C19F40E949204F6CF8F3C31F47F
:101010000E949204819580930503F0CF803D19F4DE
:101020000E949204F8CF893D29F40E9470048093B5
:101030000703E4CF8A3D21F40E9470048195F7CF25
:101040008B3D31F40E947004819580930803D6CFC4
:101050008C3D19F40E947004F8CF9FE2980F9830ED
:1010600070F4815D990B21E030E001C0220F8A9578
:10107000EAF780910403822B80930403BFCF8D3D58
:1010800031F48091FE0281608093FE02B7CF8E3DE5
:1010900021F48091FE028260F7CF8F3D09F0AECF40
:1010A0008091FE028460F0CF409105038D3C59F49D
:1010B0008091060387FF0DC01092060341110BC0FB
:1010C0001092FC0208C08E3C81F480910603181631
:1010D0009CF3442381F08091070390910803892BAE
:1010E00009F08CCF1092FD0289CF8F3C49F447FF65
:1010F000F0CF10920503809106038111ECCFE0CF71
:10110000803D19F41416ACF3E4CF90910703893DA8
:1011100029F41916F4F610920703DBCF8A3D19F46F
:1011200097FFD7CFF8CF909108038B3D29F497FF15
:10113000D0CF10920803CDCF8C3D19F41916CCF303
:10114000C8CF9FE2980F983090F4815D990B21E011
:1011500030E0B90102C0660F771F8A95E2F7CB0134
:10116000809590910403892380930403B2CF8D3D31
:1011700031F48091FE028E7F8093FE02AACF8E3DD5
:1011800021F48091FE028D7FF7CF8F3D09F0A1CF32
:101190008091FE028B7FF0CFA5E0B0E0E2EDF8E0B9
:1011A0000C94D51A49835A8389819A81662399F0D0
:1011B000222389F00E94D806182F682F89819A81EE
:1011C0000E944C0769817A81812F0E940E05259625
:1011D000E3E00C94F11A0E941907182FF3CF9C0139
:1011E0003A9521153F4150F5FC01EE27F170BC0105
:1011F00066277270AC01442754709C012227387016
:1012000094FF0EC080E1EF2B09F480E0672B09F01A
:101210008062452B09F08064232B89F08068089553
:1012200081E0EF2B09F480E0672B09F08260452B09
:1012300009F08460232B19F08860089580E00895F8
:101240000F931F93CF93DF938B01EA0190913F039C
:10125000943061F58093E9008FEF9091E800815020
:1012600095FD06C095ED9A95F1F700008111F5CF37
:101270008091E80085FF1AC00E942902811111C0E7
:101280008091E80085FD06C08091E8008E7780930C
:10129000E800F2CFF80181918F018093F10021974E
:1012A00079F78091E8008E778093E800DF91CF9105
:1012B0001F910F91089543E050E0BC0182E00E942D
:1012C0002009089546E050E0BC0182E00E94200918
:1012D0000895CF93DF93EC0180910202811111C038
:1012E00048E050E0BE0181E00E94200980E2FE015A
:1012F000ADE1B3E001900D928A95E1F7DF91CF91D6
:1013000008958091180387FF05C040E282E050E015
:10131000BE01EACF48E081E0FACF80910A039091C4
:101320000903892B809348029091D6029923A1F05A
:10133000892B80934802809102028823E1F18091F9
:10134000180387FF38C08EE1EAE4F2E090E08150B4
:10135000A0F591110E94BA0640E250E066EB72E0FF
:1013600088E492E00E94531B892B21F180E2E8E49B
:10137000F2E0A6EBB2E001900D928A95E1F7E091E0
:101380000F03F09110033097A9F080910202882397
:1013900059F08091180387FF07C08091480280931D
:1013A000490286E0809348020280F381E02D88E4C0
:1013B00092E00995089586E0C7CF2191222339F262
:1013C0009F5FC5CFCF93DF93EC01EA85FB85309714
:1013D00019F06C857D8509958B810E94C0068C81F2
:1013E0000E94C7060E948D0986E0FE0111928A952F
:1013F000E9F7DF91CF910895CF93DF93EC018D81D1
:1014000081FD18C082608D83809109039B81892BA7
:101410008093090380910A039C81892B80930A039E
:101420000E948D09E885F985309721F06C857D85CE
:10143000CE01099510920C0310920B038D8180FD53
:1014400003C0CE010E94E209DF91CF910895882365
:1014500021F00E94C0060E948D090895882339F06A
:1014600090910903982B909309030E948D09089588
:10147000882321F00E94C7060E948D0908958823C1
:1014800039F090910A03982B90930A030E948D09DA
:101490000895882399F19CEF980F913A40F4682FB2
:1014A00088E492E00E9493030E948D09089590E2DF
:1014B000980F983050F4877091E001C0990F8A9589
:1014C000EAF7892F0E94C706EFCF9BE5980F93306C
:1014D00028F490E080E00E941704089598E5980FA2
:1014E000993128F490E080E00E94F203089593E39C
:1014F000980F933118F460E00E94F4070895CF9399
:10150000DF93EC010E94490ACE010E94EF089E0180
:10151000205E31092830310510F0CD2B29F40E94CE
:10152000380ADF91CF9108950E94270AFACFFC0173
:101530008281813031F4FB01808191810E947F0A98
:1015400008958230E9F7FB0182819381F7CFCF9331
:10155000C82F8823D9F18CEF8C0F813AC8F5809180
:101560000202882311F18091180387FF1EC0EC2F1F
:10157000E695E695E695F0E0E85BFD4F828190E028
:101580004C2F477021E030E002C0220F331F4A95F4
:10159000E2F782239323892B91F06C2F88E492E069
:1015A0000E9493030E948D090AC0EAE4F2E080E5FC
:1015B00092E02191C21789F38E179F07D1F76C2F04
:1015C00088E492E00E94BD030E948D09CF910895A6
:1015D00080E28C0F883068F4C77021E030E001C0F1
:1015E000220FCA95EAF780910A03822B80930A039F
:1015F000EBCFEBE5EC0FE33040F4F0E0ED5FFD4FB7
:10160000808190E00E941704E1CFE8E5EC0FE9311A
:1016100050F4F0E0EE0FFF1FEA5FFD4F80819181F3
:101620000E94F203D3CF83E38C0F833178F661E01D
:101630008C2F0E94F407CACF0F931F93CF93DF9391
:10164000C62FD42F022FFC0182818823A9F060933A
:101650004B030E94870390934A0380934903C7700A
:1016600081E001C0880FCA95EAF70E943F0ADF9126
:10167000CF911F910F91089580914B03681335C04E
:101680008091490390914A030E947803883C910518
:1016900060F510E21D0FCD17B9F080E28C0F883095
:1016A00040F4C77081E001C0880FCA95EAF70E9434
:1016B000380A183048F481E09D2F977001C0880FD8
:1016C0009A95EAF70E943F0A802F0E94A70A802F6E
:1016D0000E94490A183058F6D77081E001C0880F7F
:1016E000DA95EAF70E94380AC2CFC77081E001C0DC
:1016F000880FCA95EAF7F6CFCF93DF93EC010E94EB
:10170000EF089E01205E31092830310510F0209746
:1017100041F40E943F0A8C2F0E94A70ADF91CF91CB
:1017200008950E942E0AF7CFFB01808191810E94CB
:101730007C0B0895CF93DF93EC018A81823041F4D2
:10174000FB01828193810E947C0B8D8182608D835D
:10175000DF91CF9108959091190392FB222720F9F0
:10176000281779F080FB92F9909319036091180380
:101770007091190384E090E00E943D1B82E00E947A
:101780009907089510920A0380910202EAE4F2E0B8
:10179000882329F18091180387FF21C08EE1DF01A2
:1017A0001D928A95E9F790E080E00E94170490E08E
:1017B00080E00E94F203109209030E948D0986E0E6
:1017C000E3E0F3E0DF011D928A95E9F71092FC0255
:1017D0001092FD021092FE020E944904089586E0D4
:1017E000DECFAAE2B0E0E7EFFBE00C94D51A81E48B
:1017F00093E02091F100FC012193CF01F3E08934C3
:101800009F07B9F780914203833009F470C0B8F4A0
:10181000813009F447C0823009F4B1C08091E800FA
:1018200083FF7EC280914103909142039A3008F079
:1018300077C2E92FF0E0EE59F44E0C94C01A8A30CA
:1018400009F48CC08B3009F46FC0893039F780916E
:101850004103813219F78091450390914603029725
:10186000E8F68091E800877F8093E8008091E800A7
:1018700082FF38C09091F3008091F200029731F41A
:101880008091F100813011F0863021F48091F100D7
:1018900080931C038091E8008B778093E8000E947E
:1018A0005A02BCCF80914103813A09F0B7CF8091B1
:1018B000E800877F8093E80080914503909146037C
:1018C000892B61F460E28DE193E070E00E940603F1
:1018D0008091E8008B778093E800A0CF60E090E0F3
:1018E00080E0F3CF80913F038111C0CF97CF8091EB
:1018F0004103813A09F092CF8091450390914603CC
:10190000892B09F08BCF8091E800877F8093E800D6
:101910008091E80080FFFCCF809102028093F1006B
:101920008091E8008E77B9CF80914103813209F030
:1019300075CF8091450390914603892B09F06ECFB6
:101940008091E800877F8093E8000E945A0280918E
:101950004303809302020E94C20B60CF8091410337
:10196000813209F05BCF8091E800877F8093E800A7
:101970000E945A028091440380931B034FCF8091B1
:101980004103813A09F04ACF8091E800877F809334
:10199000E8008091E80080FFFCCF80911B03BECF60
:1019A000803899F0823809F0BBC1809145038F706F
:1019B000873008F0B5C18093E9008091EB0085FB8A
:1019C000882780F91092E90006C080913D0390912C
:1019D0003E03911182609091E800977F9093E80018
:1019E0008093F1001092F1008091E8008E7794C10D
:1019F000882309F482C1823009F092C180914303A7
:101A0000811185C1809145038F702FEF280F2630FB
:101A100008F086C18093E9002091EB0020FF77C198
:101A2000933031F48091EB0080628093EB006FC1C2
:101A30009091EB0090619093EB0021E030E001C0C9
:101A4000220F8A95EAF72093EA001092EA0080912B
:101A5000EB008860EACF811163C1109143031F77C7
:101A60008091E3008078812B8093E3008091E800EF
:101A7000877F8093E8000E945A028091E80080FFEF
:101A8000FCCF8091E30080688093E30082E0111135
:101A900083E080933F0344C18058823008F040C106
:101AA00080914303909144038C3D23E09207A1F57C
:101AB00083E08A838AE289834FB7F894DE01139624
:101AC00020E03EE051E2E32FF0E050935700E49134
:101AD00020FF03C0E295EF703F5FEF708E2F90E024
:101AE000EA30C0F0C7968D939D932F5F243159F74C
:101AF0004FBF8091E800877F8093E8006AE270E042
:101B0000CE0101960E9406038091E8008B778093B6
:101B1000E80006C1C096E7CF4091450350914603C7
:101B2000292F33272330310509F444C078F52130BB
:101B3000310509F46FC08BE390E0E2E3F3E022307B
:101B4000310509F0EDC02091E800277F2093E800DF
:101B500020914703309148038217930708F49C01B2
:101B600040E02115310509F064C0411162C0809147
:101B7000E80082FDC9CF80913F03882329F2853098
:101B800019F28091E80083FFF2CFBECF21323105F8
:101B9000A9F12232310509F0C3C04115510509F4FC
:101BA00043C04130510509F0BBC086EB90E0ECE347
:101BB000F2E0C9CF992781309105C1F0009759F023
:101BC000029709F0ADC0EFE7F3E0E4918E2F90E0CB
:101BD000EFE7F3E007C0E1EDF3E0E4918E2F90E052
:101BE000E1EDF3E0009709F49BC0ADCFEBEAF3E041
:101BF000E4918E2F90E0EBEAF3E0F4CF411551052C
:101C000071F04130510509F08BC089E090E0EDE5BD
:101C1000F3E099CF82E190E0EDE6F3E094CF89E044
:101C200090E0E4E4F3E08FCF80E490E0E2EFF2E0D4
:101C30008ACF80913F03882309F466CF853009F469
:101C400063CF8091E80083FD5FCF8091E80082FD43
:101C50008ECF8091E80080FF84CF9091F300809137
:101C6000F2002115310519F08830910550F041E05E
:101C7000089709F040E08091E8008E778093E800B3
:101C800070CF44914093F100319621503109019673
:101C9000E8CF803809F044C08091E800877F8093C6
:101CA000E800809140038093F1009ECE811138C0FE
:101CB000109143031230A0F58091E800877F809354
:101CC000E800109340030E945A02112311F084E0AF
:101CD00005C08091E30087FDFACF81E080933F0348
:101CE00042E061EC81E00E94790242E261EC82E034
:101CF0000E94790280913F0313C080914303813099
:101D000079F481E0933009F080E080933E031092F3
:101D1000E9008091E800877F8093E8000E945A02E2
:101D20008091E80083FF0AC08091E800877F80935C
:101D3000E8008091EB0080628093EB00AA96E3E0DC
:101D40000C94F11A0E94C20B2FEF84E39CE0215007
:101D500080409040E1F700C0000088E19AE00FB6B3
:101D6000F894A895809360000FBE90936000FFCF19
:101D7000B0E0A0E0EEEBFEE00C94CE1A8C01DC01AA
:101D800013968D919C911497892B41F04C9111964B
:101D90005C91842F85238F3F09F088C3CDB7DEB7D0
:101DA000EAE00C94EA1A9C2F8D2F02C4F70185817A
:101DB00081FF02C4C7010E94E209FEC3FE01E8518F
:101DC000FC47E730F10508F0F7C3E459F44E0C94F2
:101DD000C01A26E241EE61EEC8010E941C0B809100
:101DE000B5028770D9F2D80112968C918823B1F28E
:101DF0008091190382FFD2CF82E00E949907CECF53
:101E000027E245EE65EEE8CF26E241EE60EEE4CF54
:101E100027E245EE64EEE0CF26E241EE62EEDCCF53
:101E200027E245EE66EED8CF28E241E0EBCF809185
:101E3000180381608093180395C08091190388600E
:101E4000809319038FC0809118038260F3CF809133
:101E500018038460EFCF809118038860EBCF8091E6
:101E600019038160EDCF809119038260E9CF8091E1
:101E700018038061DFCF809118038062DBCF8091EF
:101E800018038064D7CF0E94C20B8091180380682A
:101E9000D1CF809118038C60CDCF809119038360DE
:101EA000CFCF809118038E7FC5CF80911903877F94
:101EB000C7CF809118038D7FBDCF809118038B7F92
:101EC000B9CF80911803877FB5CF809119038E7F9A
:101ED000B7CF809119038D7FB3CF809118038F7E88
:101EE000A9CF809118038F7DA5CF809118038F7B98
:101EF000A1CF0E94C20B809118038F779BCF809156
:101F00001803837F97CF809119038C7F99CF80919D
:101F1000180382FB992790F921E0922790FB82F920
:101F200090FB83F987CF80911903982F909591703A
:101F30008E7F892B90FB81F983CF90911803892F95
:101F40008F7B96FF806476CF0E94C20B909118031E
:101F5000892F97FB87F980586DCF61E08EE090E084
:101F60000E941F1B609118037091190384E090E098
:101F70000E943D1B0E94C20B32CF60E0EFCF9091D8
:101F80001803892F8F7E94FF806154CF909118039E
:101F9000892F8E7F90FF81604DCF90911903892FFB
:101FA000877F93FF88604CCF0E94C20BBFEFE4E3B2
:101FB000FCE0B150E040F040E1F700C000000E94BA
:101FC00067036FEF7FEF90E080E00E943D1B0E946F
:101FD000A20E8091190382FB882780F991E089275E
:101FE0000E94AB0BF8018281C081D181882309F462
:101FF00047C0CE010E94D806F82E682FCE010E945D
:102000004C07BE018F2D0E940E050E942B05D82F74
:10201000C92FA82ED8011296FC9012971596DC9025
:10202000D2943FE0D3228091B5028770C1F0CF2CCB
:10203000FF20B1F0892F807F803421F080E28D0F66
:10204000883068F08091190382FF09C082E00E9405
:1020500099078091B5028770CC24C3948111C12C5B
:10206000BC2EB2942FE0B222BBE0BB1508F46FC0C7
:10207000EB2DF0E0ED58F44E0C94C01A80E0B0CF98
:10208000CE010E941907F82EBCCFEC2FEF70EE2E78
:10209000C07F19F0E29490EFE922FF20B9F0EE2022
:1020A00069F080E28D0F883010F0A11009C0809196
:1020B0000A03E82AE0920A030E948D098D2F45C089
:1020C00080910903E82AE0920903F6CF8D2F0E9440
:1020D000490AEE20E1F1D05E8E2DD83010F0A1102B
:1020E00003C00E94C70602C00E94C0060E948D095C
:1020F0002EC0FC2FFF70EF2EC07FC03219F0E2948B
:1021000080EFE822AA2089F021E0A21609F47DC020
:10211000FF2009F487C0DD2009F47DC0F801858126
:1021200080FFCCCF8F70858376C02091190322FD6C
:1021300044C0FF20D9F1EE2039F080910A03E82A4B
:10214000E0920A030E948D0980E00E94A70AAB2D4D
:10215000A850BB0B149710F40E943C04CC20A9F0AB
:102160008091B50280FD11C0F80112828595859598
:1021700085950E94B507C8010E94B80E8091B502EE
:102180008595859585950E94870720E0D8014C911B
:1021900011965C91119712966C91129713967C91FF
:1021A000139714968C910E94CC08F8CD80E00E9481
:1021B000490AEE2061F28E2D94CFFF20A1F090917C
:1021C000D6028E2D892BD11003C00E943F0ABFCFAB
:1021D00031E0D312FACF22FFBACF981709F4B7CF64
:1021E0008093D602B4CFD11006C00E94BA068E2DBD
:1021F0000E94380AACCF81E0D81609F4A8CF8E2D02
:102200000E94380A0E94BA06A2CFFF2031F095E062
:102210009D1508F49CCF8E2DD8CFA4E0AD1508F401
:1022200096CFE5CFDD2019F3F9E3AF1209C02FEF08
:1022300037EE83E0215030408040E1F700C00000DD
:102240008D2F0E94490A83CF8C2F869586958370A7
:1022500069F0813009F07BCF8D2F9C2F9370F110A6
:1022600002C080E090E00E94F20371CF8D2F9C2F7E
:102270009370F11002C080E090E00E94170467CFD5
:102280006F2D8D2F0E94F40762CF8C2F837009F081
:102290003FC0F1105CCF4D2F429546954770440FDB
:1022A000440F2D2F2F7030E0042E02C0220F331F59
:1022B0000A94E2F790E080E0D4FF09C08FE090E05C
:1022C00002C0880F991F4A95E2F780959095C695B0
:1022D000C695C370C23099F078F44091E2025091F3
:1022E000E302C13039F0822B932B842395230E9483
:1022F000C5072DCF242B352B822B932BF8CF822B88
:10230000932B2091E2023091E30282279327EFCFB3
:102310008695FF2011F08C2F8170882309F417CF48
:102320004D2F429546954770440F440F2D2F2F7027
:1023300030E0042E02C0220F331F0A94E2F790E02F
:1023400080E0D4FF09C08FE090E002C0880F991FA1
:102350004A95E2F780959095C695C695C370C230B0
:1023600099F078F44091E4025091E502C13039F0DF
:10237000822B932B842395230E948207E8CE242B63
:10238000352B822B932BF8CF822B932B2091E402B9
:102390003091E50282279327EFCFCF70FF2029F0FD
:1023A0008C2F0E94B5078D2F10CF8D2F0E94380AD9
:1023B0008C2F0E948707CBCE8D2F92EFA91699F113
:1023C0009A1570F0A0EFAA16D1F0B1EFAB1691F00C
:1023D000FF2009F45BC0D11071CE8C2F8F7127C004
:1023E000E3EFAE1639F1F4EFAF12F2CF809119039B
:1023F00082FD2EC08C2F8F71FF20D9F218C0FF20D4
:1024000069F024E02D1508F4A2CECF7181E090E0B0
:1024100002C0880F991FCA95E2F7B8CF35E03D1585
:1024200008F495CEF2CF8C2F8F71F110C2CF0E949D
:10243000B5078DCE90E080E0FF2009F49DCFCF71ED
:1024400081E090E002C0880F991FCA95E2F794CF0F
:10245000FF2089F0CF718C2F0E94B507809119035E
:1024600082FF07C0A8E0CA9FC00111248360809347
:10247000B5028C2FDCCF81E00E949907B1E0BD1539
:1024800008F065CE82E00E94990761CEDD2059F008
:10249000893309F0D5CEEFEFF7EE23E0E150F040BD
:1024A0002040E1F7CBCE8C2F8F7183CF21E0F80154
:1024B0006281738184810E94CC08EC01D80112965C
:1024C0008C91882369F180910B0390910C03009704
:1024D00039F18C179D0721F1BEE08B9FC0011124BB
:1024E000FC01EB5CFE4F208124602083805D9E4FC9
:1024F000FC01D183C0830E94FC091092090321E0F2
:10250000D8014C9111965C91119712966C9112978B
:1025100013967C91139714968C910E94CC08EC0131
:10252000CE0197558F3F910511F008F047CC6E0111
:10253000DD24BEE0CB9FF0011124CF01805D9E4FD2
:102540007C01D80112968C91EB5CFE4F908180FB50
:1025500090F99083882309F429CC0E9487039093F3
:10256000FA028093F902F70182818F5F8283809162
:10257000090390910A03892B83838091D602848377
:102580000680F781E02D309731F0D7011C966D91D0
:102590007C91C70109958EE08C9DF0018D9DF00D19
:1025A0001124E05DFE4F858181FFFDCB90E080E04E
:1025B00090930B0380930C03D80112968C9188237F
:1025C00079F110924B03CE019057839798F484E0F1
:1025D00090E00E94191B9093190380931803FE0149
:1025E000E150F047E232F10508F021CCE158F44E19
:1025F0000C94C01AC631BCE7DB0701F580910A03D1
:102600008A7A91E009F490E09093680269E281117E
:1026100065E388E492E00E94BD030E948D09DFCB50
:10262000C631DC4709F0DECC8091680269E2811195
:1026300065E388E492E00E949303EFCFC330FCE7A8
:10264000DF0709F4BECC50F4C1153CE7D30709F409
:10265000ABCCC130DC4709F4BACCC4CCCB359CE759
:10266000D90709F40BCDCC35ACE7DA0709F4B1CCC6
:10267000CA35DC4709F0B6CC81E0B2CC1F93CF93CA
:10268000DF9380918202807F09F049C080917F02B0
:10269000882309F444C08091B402D09183026091F0
:1026A0007D0270917E02A0918002B0918102C62FBE
:1026B000C72316E0D81799F190E0109711F0CF3F9B
:1026C00019F401968770F6CF189F9001199F300D6D
:1026D0001124F901EC57FD4F41814713F2CF40819E
:1026E0004613EFCF42814111ECCF438154814A1B05
:1026F0005B0B483C510528F7809182028F70806106
:1027000080938202F901E757FD4F80818F708061CD
:1027100080838DE792E00E94B80E0E94CE06DF9182
:10272000CF911F910895A1E1B0E0E9E9F3E10C94A4
:10273000CE1A8C0185E0F801DE011D9601900D9204
:102740008A95E1F7F801E2808DE7A82E82E0B82EA5
:1027500060918002709181026115710509F426C1B2
:1027600090917D0240917E02892F84238F3F09F44E
:102770001DC120813181C380D480F0907F02F60199
:10278000E61BF70BFF2009F4DCC080918202582F72
:10279000507FE83CF10508F09FC051116BC0FE2C42
:1027A000431314C0921312C0E11010C08F708061E7
:1027B00080938202C5010E94B80E80918202F801C6
:1027C00085838F2D6196EAE00C94EA1AC114D10436
:1027D00029F0822F83238F3F09F003C180E0F82F77
:1027E000F170DF2E80FF3CC08091B40240918302E3
:1027F00056E0841315C02D873E878D859E850E94E7
:102800000C07292F22952F702230F0F0243018F574
:102810009F70F1F0F8019581907FD1F4D12C1EC00A
:1028200090E0589FF001599FF00D1124EC57FD4F97
:102830006181361306C06081261303C06281E612EF
:102840000FC001968770D5CF9F7011F0882331F3A8
:10285000805E883018F3C8010E94B80EFD2CB1CFFD
:10286000EE2009F4AECF80918202816080938202D3
:10287000F12CA7CF431306C0921304C0F801EE2039
:1028800009F479C0C8010E94CA07882309F1EE2023
:10289000F9F080918202803270F020917D023091B7
:1028A0007E0238872F831986DB86CA868C87CE0105
:1028B00007960E94B80E86E0F801ADE7B2E00190FD
:1028C0000D928A95E1F70E943E13FF24F39479CF8D
:1028D000C8010E94B80EF9CF51110AC08DE792E0ED
:1028E0000E94B80E86E0F50111928A95E9F7C0CFF3
:1028F00043130FC092130DC0E1100BC0F801858384
:10290000C8010E94B80E86E0F50111928A95E9F798
:1029100058CFC8010E94CA078823D1F2EE20C1F225
:1029200080918202803238F220917D0230917E02C5
:102930003A8329831B82DD82CC828E83CE0101966D
:10294000B8CFE83CF105F8F6FE2CEE2009F243136F
:102950001FC092131DC08091820280FD10C0982F6D
:10296000907F69F0F8018583903F31F0982F907F38
:10297000905F8F70892B8583C8010E94B80E86E016
:10298000F801ADE7B2E001900D928A95E1F719CF19
:10299000C8010E94CA0781118ECF80918202816096
:1029A00080938202C8010E94B80E0BCFEE2009F47A
:1029B0008FCFC8010E94CA07F82E882309F488CF58
:1029C00086E0F801ADE7B2E001900D928A95E1F75B
:1029D00080917D0290917E020E940C070E943E131E
:1029E000F0CE81E08E25FBCEA7E1B0E0EAEFF4E186
:1029F0000C94D51A4B8B5C8B6D8B7E8B8F8B6111FE
:102A0000109209031A8A198A85E0FE017396DE0185
:102A10001D9601900D928A95E1F786E0FE013D96A4
:102A2000DE01179601900D928A95E1F7CE01079687
:102A30000E949313882359F016E08091B40290917C
:102A40008302891343C06796E3E00C94F11A86E091
:102A5000FE013796DE01119601900D928A95E1F7FD
:102A60008A859B85892B41F38F81988589238F3FA8
:102A700019F32091830230E0C901019687709927EC
:102A80004091B4024817190671F40E94C20B1092CB
:102A900083021092B40286E0EDE7F2E0DF011D92BE
:102AA0008A95E9F7C9CF96E0929FD001939FB00D28
:102AB0001124AC57BD4FFE01319601900D929A95AD
:102AC000E1F7809383020E94CE06B6CF819FC001BA
:102AD00011248C579D4F0E949313882309F4B3CF80
:102AE0008091B40290E00196877099278093B40298
:102AF000A4CFA8E0B0E0EFE7F5E10C94CC1A8E018A
:102B00000F5F1F4F88E0F80111928A95E9F798E36B
:102B1000E92E92E0F92E6801AA24A394B12CF701C2
:102B200081917F018F3F09F446C0F894E82FE29528
:102B3000EF70F0E021A18F70A50102C0440F551F76
:102B40008A95E2F7CA01922F982B91A392A18095C2
:102B5000892382A3789400C0ECE3F2E021E030E026
:102B6000912C812C41914F3F09F467C0A42FA2956D
:102B7000AF70B0E090968C9190E04F7002C0959548
:102B800087954A95E2F780FD58C0C901882A992A9D
:102B9000220F331F52E0E634F50721F7F701319792
:102BA00080818F3F11F00E94B40480EA8A95F1F78A
:102BB000F60191828082F2E0CF0ED11C4CE3E41644
:102BC00042E0F40609F0ABCF48E050E0B8018AEDEE
:102BD00092E00E94531B892B99F188E0F801AAED3D
:102BE000B2E001900D928A95E1F781E08093D902DD
:102BF0000E9487039093D8028093D7028091D702D6
:102C00009091D8020E9478030597F0F048E050E0D8
:102C10006AED72E088EE92E00E94531B892BC9F0A6
:102C200088E0EAEDF2E0A8EEB2E001900D928A951C
:102C3000E1F781E01092D90208C090E080E0A6CFD1
:102C40008091D9028111DACF80E02896ECE00C94D3
:102C5000E81A80E0EFCF1F920F920FB60F92112467
:102C60002F933F934F935F936F937F938F939F9394
:102C7000AF93BF93CF93DF93EF93FF93D091E9008E
:102C8000DF708091EC00C82FC17080FDC0E8109209
:102C9000E9008091F000877F8093F00078940E9493
:102CA000F10B1092E9008091F00088608093F000B1
:102CB000CD2BCF70C093E900FF91EF91DF91CF91C1
:102CC000BF91AF919F918F917F916F915F914F9144
:102CD0003F912F910F900FBE0F901F9018951F924C
:102CE0000F920FB60F9211242F933F934F935F9340
:102CF0006F937F938F939F93AF93BF93EF93FF93C4
:102D00008091E10082FF09C08091E20082FF05C04E
:102D10008091E1008B7F8093E1008091DA0080FF59
:102D200024C08091D80080FF20C08091DA008E7F7F
:102D30008093DA008091D90080FF9DC080E189BD39
:102D400082E189BD09B400FEFDCF81E080933F039D
:102D500080911A03811109C00E940A020E94AB02ED
:102D60008091E20084608093E2008091E10080FF26
:102D700017C08091E20080FF13C08091E2008E7F37
:102D80008093E2008091E20080618093E200809174
:102D9000D80080628093D80019BC85E080933F03FF
:102DA0008091E10084FF2BC08091E20084FF27C066
:102DB00080E189BD82E189BD89B5982F917080FF3E
:102DC000FBCF8091D8008F7D8093D8008091E10067
:102DD0008F7E8093E1008091E2008F7E8093E200FD
:102DE0008091E20081608093E2008091400388231B
:102DF00009F447C084E080933F0380913F038091B2
:102E0000E10083FF27C08091E20083FF23C080910F
:102E1000E100877F8093E10082E080933F0310927E
:102E200040038091E1008E7F8093E1008091E20079
:102E30008E7F8093E2008091E20080618093E200C7
:102E400042E060E080E00E9479028091F0008860BA
:102E50008093F000FF91EF91BF91AF919F918F917F
:102E60007F916F915F914F913F912F910F900FBE86
:102E70000F901F90189519BC10923F0310921A03DF
:102E800074CF8091E30087FD93E090933F03B5CF2B
:102E900078941F921FB61F9211248F939F93AF9324
:102EA000BF938091140390911503A0911603B091E4
:102EB00017030196A11DB11D809314039093150370
:102EC000A0931603B0931703BF91AF919F918F9179
:102ED0001F901FBE1F9018951F921FB61F9211249E
:102EE0008F939F93AF93BF9380911303811113C06E
:102EF0008091140390911503A0911603B0911703CC
:102F00004196A11DB11D8093140390931503A093C6
:102F10001603B0931703BF91AF919F918F911F90AC
:102F20001FBE1F901895CDB7DEB760970FB6F89407
:102F3000DEBF0FBECDBF85B7806885BF85B780680F
:102F400085BF84B7877F84BF0FB6F894A89580911A
:102F50006000886180936000109260000FBE80E87E
:102F600090E00FB6F89480936100909361000FBEDB
:102F700082EB94E090934702809346020E940A02FB
:102F80000E94AB028091E20084608093E20078941A
:102F900080913F038823A1F01091E9001F70909168
:102FA000EC00892F817090FD80E8182B1092E900C9
:102FB0008091E80083FD0E94F10B1F701093E900DF
:102FC00082E084BD93E095BD9AEF97BD80936E003B
:102FD00081E30E94B40483E30E94B40482E30E946C
:102FE000B40486E30E94B4040CE312E0D8018D918E
:102FF0008D018F3F11F00E94B404B2E006341B072C
:10300000A9F788E0E8EEF2E0DF01282F1D922A956B
:10301000E9F7EAEDF2E0DF011D928A95E9F790E029
:1030200080E00E94191B873E9E4F09F45EC067EE48
:103030007EEF90E080E00E943D1B60E082E090E047
:103040000E941F1B60E083E090E00E941F1B109213
:10305000E3021092E20260E074E184E090E00E94FA
:103060003D1B60E086E090E00E941F1B6FEF87E051
:1030700090E00E941F1B40E050E0BA0188E090E021
:103080000E94311B60E08DE090E00E941F1B40E039
:1030900050E0BA0188E190E00E94311B60E087E1D6
:1030A00090E00E941F1B40E050E0BA018CE190E0EC
:1030B0000E94311B70E060E080E290E00E943D1BC6
:1030C00040E050E0BA0188E190E00E94311B40E00E
:1030D00050E0BA018FE090E00E94311B40E050E0E8
:1030E000BA0183E190E00E94311B82E090E00E94EF
:1030F000111B8093F00284E090E00E94191B9093D2
:103100001903809318030E947915EFEFF6E721E089
:10311000E150F0402040E1F700C000000E94791526
:103120008091E80280FF08C06FEF7FEF90E080E0C1
:103130000E943D1B0E94670383E090E00E94111BE8
:1031400090E00E94C50788E291E09093100380937D
:103150000F0348E1442E512C50EF652E52E0752E9E
:1031600080913F0312E1853009F495C00E947915E2
:1031700021EFA22E22E0B22E38EE832E32E0932EE3
:10318000D401F501219131918D919D9142E0E93F6A
:10319000F40709F48AC028173907A1F3312CD401A8
:1031A0000D911D914D01F501C190D1905F01C016A7
:1031B000D10659F1C026D126212CEE24E394F12C1E
:1031C000C6018E219F21892BB1F02C863D8621E0FE
:1031D000C8018E219F21892B09F420E02E870E94AF
:1031E00087038160782F988B8F874C855D856E85EE
:1031F00088890E94F4142394EE0CFF1CFAE02F122D
:10320000DFCFF501329711830083339424E032122B
:10321000C6CF8FB7F8944091140350911503609175
:103220001603709117038FBF62C080913F038430F3
:1032300011F11092130340E40FB6F894A895409250
:1032400060000FBE4093600083B7817F846083BFBE
:1032500083B7816083BF7894889583B78E7F83BF5F
:103260000FB6F894A8958091600088618093600003
:10327000109260000FBE80913E03882361F00E948F
:103280007915E8EEF2E081919191892B09F043C123
:103290006E167F06C1F780913F03853009F4C5CFD4
:1032A0000E94C20B0E943C0461CF2817390709F025
:1032B00075CF0E9487038C018091E6029091E7020E
:1032C00008171907A1F08FEF8F83888719860E944E
:1032D00087038160782F9B878A874F81588569850E
:1032E0008B850E94F4141093E7020093E60200918C
:1032F0000B0310910C0301151105B9F08091F9022F
:103300009091FA020E947803893C910570F04EE09A
:10331000049FC0011124FC01EB5CFE4F208122FDC3
:1033200004C0805D9E4F0E94FC0986E0E3E0F3E06C
:10333000DE01119601900D928A95E1F71092050336
:103340001092060310920703109208038B819C8150
:10335000892B09F44AC080910103909102030E94D5
:1033600078039C019091FC02992309F4F0C0253167
:103370003105D8F19F3F19F09F5F9093FC021B81AC
:10338000112359F00E9492049FEF11160CF491E062
:10339000899F802D1124809305031C81112359F0EE
:1033A0000E9492049FEF11160CF491E0899F802DEA
:1033B000112480930603309105033323B1F020914B
:1033C0000603222391F045EB3403C0011124992315
:1033D00009F491C09093050345EB24039001112457
:1033E000332309F48CC0309306038D819E81892B91
:1033F00009F44AC08091FF02909100030E94780373
:103400009C019091FD02992309F49CC0213531055E
:10341000D8F19F3F19F09F5F9093FD021D8111230A
:1034200059F00E9470049FEF11160CF491E0899FEF
:10343000802D1124809307031E81112359F00E94CF
:1034400070049FEF11160CF491E0899F802D1124D8
:1034500080930803309107033323B1F020910803D0
:10346000222391F045EB3403C0011124992309F480
:103470004AC09093070345EB2403900111243323A2
:1034800009F445C03093080346E050E0BE016F5F89
:103490007F4F83E093E00E94531B892B61F480915E
:1034A000050390910603892B90910703892B909136
:1034B0000803892B11F00E94490486E0FE01319631
:1034C000A3E0B3E001900D928A95E1F70E943C04DD
:1034D0009091FB02891709F443CE8093FB028FB7CA
:1034E000F894409114035091150360911603709164
:1034F00017038FBF35CE81E0809305036DCF81E048
:103500008093060372CF81E080930703B4CF81E0FC
:1035100080930803B9CF80E189BD19BD09B400FECD
:10352000FDCF8091D8008F7D8093D8008091E000FE
:1035300082608093E0008091E00081FDFCCF0E94DA
:10354000C20BA9CE2B30310508F065CF9DCF2B30B3
:10355000310508F011CF49CF97FB072E16F40094E0
:1035600007D077FD09D00E94FD1A07FC05D03EF474
:10357000909581959F4F0895709561957F4F08951F
:10358000EE0FFF1F0590F491E02D09942F923F92CA
:103590004F925F926F927F928F929F92AF92BF9263
:1035A000CF92DF92EF92FF920F931F93CF93DF930F
:1035B000CDB7DEB7CA1BDB0B0FB6F894DEBF0FBE6C
:1035C000CDBF09942A88398848885F846E847D84B9
:1035D0008C849B84AA84B984C884DF80EE80FD80BB
:1035E0000C811B81AA81B981CE0FD11D0FB6F89431
:1035F000DEBF0FBECDBFED010895AA1BBB1B51E17D
:1036000007C0AA1FBB1FA617B70710F0A61BB70B52
:10361000881F991F5A95A9F780959095BC01CD01F7
:103620000895F999FECF92BD81BDF89A992780B58A
:103630000895A8E1B0E042E050E00C94451B262F2D
:10364000F999FECF92BD81BDF89A019700B4021698
:1036500039F01FBA20BD0FB6F894FA9AF99A0FBE46
:1036600008950396272F0E94201B0E941F1B252FC1
:103670000E94201B242F0C94201B0196272F0E94B0
:10368000201B0C941F1BDC01CB01FC01F999FECF20
:1036900006C0F2BDE1BDF89A319600B40D924150DA
:1036A0005040B8F70895FB01DC0104C08D910190F2
:1036B000801921F441505040C8F7881B990B089598
:1036C000F894FFCFD00CF80C900EF80C900E2B0D48
:1036D0004C0D900E490E560E040F080FE90E000F08
:1036E0000C0F100F140F451045107910791024118C
:1036F0004011A710A7104511CD11DC11DC11510F9D
:10370000C60F590F230F270F5D0F2B0F610F6D0F82
:10371000370FBF0F3B0F710F3F0F750F9D0F430FFB
:10372000790FA40F490F7F0F870F2F0F650F330FEE
:10373000690F4D0F830F930FAD0FBD0F1D0F550F69
:02374000CD0FAB
:103742003500350231003102340034022E002E02DF
:103752002D002D0236023702260227022F023002E6
:103762002F003000140029006403690962095B0913
:103772000000000000009A0B940B970A240100003D
:103782000000000000000000000000000000000037
:103792000000000000000000000000000000000027
:1037A2000000000000000000000000000000000017
:1037B2000000000000000000000000000000000007
:1037C200000000000000000000009A0B940B970A12
:1037D20020010000000000009A0B940B970A1C01C4
:1037E2000000000000009A0B940B970A18010000D9
:1037F200000000009A0B940B970A140100000000CD
:1038020000009A0B940B970A1001000000000000C0
:103812009A0B940B970A0C010000000000009A0B0F
:10382200940B970A08010000000000009A0B940B09
:10383200970A04010000000000009A0B940B970AFB
:10384200000101818283E200E900EA00B500B600CE
:10385200B700CD008301CC008A01920194012102BC
:10386200230224022502260227022A02B300B40000
:103872006F0070009F01CB0131333236946697C6D8
:063882003435F4F5F6F701
:00000001FF
