:100000000C9400020C941D020C941D020C941D0211
:100010000C941D020C941D020C941D020C941D02E4
:100020000C941D020C941D020C948B1B0C945F1CF1
:100030000C94B0160C941D020C941D020C941D021D
:100040000C941D020C941D020C941D020C941D02B4
:100050000C941D020C9437170C941D020C941D0275
:100060000C941D020C941D020C941D020C941D0294
:100070000C941D020C941D020C941D020C941D0284
:100080000C941D020C941D020C941D020C941D0274
:100090000C941D020C941D020C941D020C941D0264
:1000A0000C941D020C941D020C941D0214001A00E5
:1000B0000800150017001C0018000C0012001300A7
:1000C00004081604070109020A000B000D120E11A4
:1000D0000F1433181D001B00060019000500110045
:1000E00010003600370038000000000000002152E8
:1000F0002C00280022520000000000001E021F02F7
:1001000020022102220223022402250231003102B0
:100110002B002F002F02260235002D002E00340068
:1001200034023302290030003002270235022D024A
:100130002E023602370238020000000000000100E3
:100140002C002A0023520000000000001E001F00A7
:100150002000210022002300240025002600270083
:1001600044004A004B004E004D0050005100520028
:100170004F0045003A003B003C003D003E003F0080
:1001800040004100420043000000000000002352F4
:100190004C00280001000000000000003900D200DF
:1001A000CD00D100D900AB00A900B600B7004600D1
:1001B0000000CF00CE00D000DA00AE00A800B900E9
:1001C000B5004900B200DB00D300DC000000AC0049
:1001D000AA000000007C6452000000000000010042
:1001E0002C00280001000000000000002B0014007B
:1001F0001A000800150017001C0018000C0012005F
:10020000E10004001600070009000A000B000D00C1
:100210000E000F00E0001D001B0006001900050085
:1002200011001000130038000000000000002552EB
:100230002C00280029000000000000001E001F0004
:100240002000210022002300240025002600270092
:1002500001000100010001000100500051005200A6
:100260004F003500010001000100010001002D00D8
:100270002E0036003700645200000000000001002C
:1002800001002A00E20000000000000012035300F9
:1002900063006F00740074006F00330036000000CC
:1002A00016034A006F0065002000530063006F00D2
:1002B000740074006F0000000403090409023B008D
:1002C000020100A0FA090400000103010100092154
:1002D0001101000122400007058103080001090403
:1002E0000100010300000009211101000122B600F4
:1002F000070582032000011201000200000008ED42
:10030000FE000000010102000105010902A10185B2
:10031000020901A100050919012908150025019507
:1003200008750181020501093009311581257F9584
:10033000027508810609381581257F9501750881A8
:1003400006050C0A38021581257F9501750881067E
:10035000C0C005010980A101850319012AB7001554
:100360000126B700950175108100C0050C0901A197
:1003700001850419012AA002150126A00295017524
:10038000108100C005010906A1018506050719E0D5
:1003900029E7150025019508750181020507190057
:1003A00029EF1500250195F0750181020508190155
:1003B0002905950575019102950175039101C00507
:1003C000010906A101050719E029E7150025019596
:1003D0000875018102950175088101050719002939
:1003E000FF150026FF009506750881000508190114
:1003F0002905950575019102950175039101C000CC
:1004000011241FBECFEFDAE0DEBFCDBF11E0A0E0C8
:10041000B1E0E8E0FEE302C005900D92AC38B10710
:10042000D9F722E0ACE8B1E001C01D92AC39B207C7
:10043000E1F70E94D6100C94C31E0C940000863085
:10044000B8F46430A8F44A3098F450E09AE0699F18
:10045000400D511D1124FA0198E2899FE00DF11D14
:100460001124EE0FFF1FE455FF4F859194910895DD
:1004700080E090E008950E941F02089581E00895B1
:1004800081E008950E944002089508950E94450267
:100490000895A5E0B0E0EFE4F2E00C942F1E49834C
:1004A0005A833091930189819A81311119C0662351
:1004B00099F0222389F00E94E607182F682F89817E
:1004C0009A810E94C20769817A81812F0E94470E1A
:1004D0002596E3E00C944B1E0E94D407182FF3CF0F
:1004E0000E94E60769817A81F1CFFC01262F4081C5
:1004F00051816281738184810E944902089581E063
:100500000895CF93DF93EC0160E00E947502BE0175
:100510000E944602DF91CF9108950E947B0F0895BB
:100520000E947F0F089508950E9491060E949302F1
:100530002FEF84E39CE0215080409040E1F700C021
:10054000000008950E9494020E945B1708950E9483
:1005500094020E946C1708950F931F93CF93DF931B
:100560008C0161E00E947502EC01B8010E94420218
:10057000811106C080E0DF91CF911F910F91089506
:10058000B801CE010E94D1148823A1F3B801CE0195
:100590000E946713882371F3B801CE010E944314AF
:1005A000882341F3F8018281882361F0C330FCE79E
:1005B000DF07E9F058F4C115ECE7DE07A9F0C13018
:1005C000DC47B9F0C8010E943E02D5CFCB358CE79D
:1005D000D807A9F0CC35ECE7DE0771F0CA35DC4767
:1005E00089F70E94E80BEECF0E94A202C3CF0E94BF
:1005F000F00B0E94A702BECF0E94DE0BE3CF0E9449
:10060000EC0BE0CF0E948C160E942C0308950E94F0
:1006100030030E949116089508950E940C030895D6
:1006200081E008950895CF93DF93D82F0E9410039F
:10063000C82F882319F08D2F0E9412038C2FDF9171
:10064000CF9108950895CF93C82F0E940D038C2F4A
:100650000E941303CF91089580E00E942303089520
:100660000E941F150E9423030895CF930E941F1517
:10067000C82F80918E018C1779F0C0938E010E9453
:100680001C1760938F017093900180939101909358
:1006900092018C2F0E942303CF910895ABE0B0E02C
:1006A000E4E5F3E00C94301E4F83588769877A871E
:1006B0008B8761110E94290B1E821D8285E0FE013D
:1006C0003796DE01119601900D928A95E1F78C81A3
:1006D0009D81892B61F449815A816B817C818D8157
:1006E0009E810E94520A2B96E2E00C944C1E898156
:1006F0009A8189238F3F79F3CE0101960E947F0270
:100700008111E9CFF0CFFC01808191810E9418080E
:100710000895662329F00E945A110E942D1208950F
:100720000E94B411FACFCF93C82F8823B9F08CEF71
:100730008C0F813AA8F46C2F8091000190910101F7
:100740000E94B215882329F08C2F0E94E90A0E948A
:100750004A0B8C2F0E94E10A0E944A0BCF91089508
:1007600080E28C0F883048F4C77081E001C0880FA8
:10077000CA95EAF70E940C0BEFCFEBE5EC0FE330E4
:1007800040F4F0E0EB5BFE4F808190E00E94541556
:10079000E5CFE8E5EC0FE93150F4F0E0EE0FFF1F94
:1007A000ED5EFE4F808191810E947915D7CF83E362
:1007B0008C0F833198F661E08C2F0E948903CECF95
:1007C000882381F19CEF980F913A28F40E94E90A5E
:1007D0000E944A0B089590E2980F983050F4877069
:1007E00091E001C0990F8A95EAF7892F0E94120BB8
:1007F000EFCF9BE5980F933028F490E080E00E94C3
:100800005415089598E5980F993128F490E080E008
:100810000E947915089593E3980F933118F460E0DE
:100820000E94890308951F93CF93DF93182FEB0144
:100830000E949303209739F4812F0E94E003DF91F7
:10084000CF911F9108958FE99FE00197F1F700C0C4
:1008500000002197EFCF70E060E0893311F460E58C
:1008600070E00E9413040895882321F00E940C0B6D
:100870000E944A0B0895882321F00E94120B0E94C7
:100880004A0B0895B0E0A0E0E8E4F4E00C94291EDF
:100890006C01D62FC72FFC011281F580F2949FE0E6
:1008A000F9220E94020BE82E8823B9F0E12E1123D1
:1008B000A1F08C2F807F803421F080E28D0F883072
:1008C000D0F080917A0282FF16C082E00E94AD0BC8
:1008D0000E94020B91E0E82EE926BC2EB2948FE034
:1008E000B822FBE0FB1508F468C0EB2DF0E0EB53F9
:1008F000F14E0C941A1EE12CF0CF0C2F0F70C07F1C
:1009000011F00295007F112399F0002359F080E245
:100910008D0F883010F0D11107C0802F0E940C0B72
:100920000E944A0B8D2F41C0802F0E941C0BF8CFD4
:100930008D2F0E94E003002309F43FC080E28D0F59
:10094000883010F0D11104C0802F0E94120B03C018
:10095000802F0E94220B0E944A0B2FC00C2F0F7079
:10096000C07FC03211F00295007FDD2381F0D130CD
:1009700009F468C0112309F472C0FF2009F468C0AB
:10098000F601858180FFCECF8F70858361C0809115
:100990007A0282FD33C0112359F0002329F0802F01
:1009A0000E940C0B0E944A0B80E00E94930305C03A
:1009B00080E00E94E0030111C7CFEB2DE850FF0B50
:1009C000349720F40E941F150E942303EE2089F023
:1009D0000E94FE0A80FD0DC0F60112820E94F80AF4
:1009E0000E942007C6010E9451060E94F80A0E9438
:1009F0003007CDB7DEB7E9E00C94451E112389F02E
:100A0000F11006C00E942C0B802B0E943404D5CF1D
:100A100021E0F212F7CF0E942C0B802B0E94330BA7
:100A2000CCCFF11006C00E94400B802F0E943B04E7
:100A3000C4CF31E0F31609F2802F0E943B040E94DC
:100A4000400BBBCF112331F085E08F1508F4B5CFF3
:100A5000802FDBCF94E09F1508F4AFCFE6CFFF20C7
:100A600021F3D93349F4FFEF27EE33E0F150204072
:100A70003040E1F700C000008D2F0E94E0039DCFC1
:100A80008C2F86958695837069F0813009F095CF1B
:100A90008D2F9C2F9370111102C080E090E00E9476
:100AA00079158BCF8D2F9C2F9370111102C080E090
:100AB00090E00E94541581CF612F8D2F0E948903F1
:100AC0007CCF8C2F8370A1F5111177CF4D2F4295DC
:100AD00046954770440F440F2D2F2F7030E0042EA1
:100AE00002C0220F331F0A94E2F790E080E0D4FFA7
:100AF00009C08FE090E002C0880F991F4A95E2F785
:100B000080959095C695C695C370822B932BC23065
:100B100049F058F4C13019F00E94F0064ECF0E94FF
:100B2000E7064BCF0E94F90648CF0E94E40645CF66
:100B30008695112311F08C2F8170882309F43DCF05
:100B40004D2F429546954770440F440F2D2F2F701F
:100B500030E0042E02C0220F331F0A94E2F790E027
:100B600080E0D4FF09C08FE090E002C0880F991F99
:100B70004A95E2F780959095C695C695C370822BED
:100B8000932BC23049F058F4C13019F00E945B0732
:100B900014CF0E94520711CF0E9464070ECF0E940B
:100BA00008070BCFCF70112329F08C2F0E9420074C
:100BB0008D2F2BCF8D2F0E943B048C2F0E9430074E
:100BC000FCCED23F51F160F4D03FB9F0D13F81F07B
:100BD000112309F449C0F110A5CE8C2F8F7121C0CB
:100BE000D33F11F1D43FA1F780917A0282FD26C054
:100BF0008C2F8F71112311F314C0112349F084E05D
:100C00008F1508F4DACE8C2F8F710E944207D5CE53
:100C100095E09F1508F4D1CEF6CF8C2F8F7111116E
:100C2000CDCF0E942007C9CE112329F08C2F8F71C0
:100C30000E941407C2CE0E940F07BFCE112349F0B5
:100C4000CF718C2F0E94200763E08C2F0E948F0BA6
:100C5000B4CE81E00E94AD0BE1E0EF1508F0ADCE1F
:100C600082E00E94AD0BA9CEF110FBCE8C2F8F71CC
:100C7000A5CF0F931F93CF93DF93EC016881798108
:100C80008A810E9423088C010E946D070E94E3065E
:100C9000B801CE010E944204DF91CF911F910F91C4
:100CA0000895CF93DF93EC018B819C81892B29F0F0
:100CB0008881998189238F3F51F4DF91CF910895E5
:100CC000CE010E943906CE010E948102F6CFCE01EC
:100CD0000E94AC028111F4CF0E94020B882369F3B9
:100CE0008A81882351F380917A0282FFE6CF82E0E5
:100CF0000E94AD0BE2CF90E080E00E94541590E09E
:100D000080E00E9479150E94290B0E944A0B0E94E4
:100D100049120E942D1208950E94F10A0E947B063A
:100D200008950E94190B0E948C06089592959F7059
:100D3000963091F058F4925F9F70923058F4803F53
:100D400019F030F4883E30F481E008959A5FF4CFD2
:100D5000843FD1F380E00895883EB0F3813FD1F71E
:100D6000F3CFFC0183819481892B29F080819181CB
:100D700089238F3F11F480E00895808191810E9442
:100D800018080E9496060895A5E0B0E0EAECF6E0A7
:100D90000C94301E2596E2E00C944C1EA6E0B0E0C8
:100DA000E4EDF6E00C94301E2696E2E00C944C1E26
:100DB00008950E94D80608950E94D9069093AB0129
:100DC0008093AA01089508950E94DC060895209159
:100DD000AA013091AB01822B932B0E94DC0608956F
:100DE0002091AA013091AB01822393230E94DC065B
:100DF00008952091AA013091AB01822793270E9488
:100E0000DC0608950E94D80608950E9402070895FE
:100E10000E9405079093A9018093A801089590E08E
:100E200080E00E940807089521E030E0A90102C097
:100E3000440F551F8A95E2F7CA010E9408070895DA
:100E400021E030E002C0220F331F8A95E2F7809143
:100E5000A8019091A901822B932B0E940807089565
:100E600021E030E002C0220F331F8A95E2F720957F
:100E700030958091A8019091A901822393230E942B
:100E80000807089521E030E002C0220F331F8A9541
:100E9000E2F78091A8019091A901822793270E94EF
:100EA000080708952091A8013091A901822B932B66
:100EB0000E94080708952091A8013091A90182237A
:100EC00093230E94080708952091A8013091A90159
:100ED000822793270E94080708950895262F2770D8
:100EE00091E001C0990F2A95EAF723E0769567957E
:100EF0002A95E1F7660F771F660F771FFA01E60F55
:100F0000F71F50E040E0682F70E08191DF011197FA
:100F10009B01042E02C0369527950A94E2F72170B2
:100F200021952827292328272C934F5F5F4F443092
:100F3000510559F70895A82FA77023E09695879536
:100F40002A95E1F7880F991F880F991FFB01E80F79
:100F5000F91F50E040E080E0219130E00A2E02C00D
:100F6000369527950A94E2F721703327042E01C0A5
:100F7000220F0A94EAF7822B4F5F5F4F44305105EE
:100F800059F70895262F943070F48A3060F4682F52
:100F900070E08AE0989F600D711D112444E951E0D2
:100FA000822F0E946E070895292F943068F48A30AA
:100FB00058F490E064E971E03AE0239F800D911DC0
:100FC00011240E949B07089580E00895B0E0A0E0FE
:100FD000ECEEF7E00C94291E7C010091A801109121
:100FE000A9018091AA019091AB01082B192BCFE0A8
:100FF000D0E0CC24C394D12CBC2EC6010C2E02C050
:10100000880F991F0A94E2F780239123892B49F4D2
:10101000219790F7B12C8B2DCDB7DEB7E9E00C947A
:10102000451EB7018C2F0E94530E019789F3F3CF11
:10103000CF93DF93EC010E94E607BE010E94530E9E
:10104000DF91CF9108951F93CF93DF93EB019091A0
:101050009301992339F0CB010E941808DF91CF91B9
:101060001F910895882369F0CB010E94E607182F8D
:10107000682FCE010E94C207BE01812F0E94530E2D
:10108000EDCFCB010E94D407182FF6CF1F93CF933B
:10109000DF93C091AC0116E08091AD018C1304C0C8
:1010A000DF91CF911F910895D0E01C9FF0011D9F0B
:1010B000F00D1124E255FE4F408151816281738110
:1010C000848195810E94CE062196C770E5CF40911C
:1010D000DE015091DF016091E0017091E1018091AA
:1010E000E2019091E3010E94CE0608951F93CF93F1
:1010F000DF938091E301807F09F049C08091E00196
:10110000882309F444C08091AC01C091AD01609185
:10111000DE017091DF01A091E101B091E201D62FD3
:10112000D72316E0C81799F190E0109711F0DF3F30
:1011300019F401968770F6CF189F9001199F300D12
:101140001124F901E255FE4F41814713F2CF40814E
:101150004613EFCF42814111ECCF438154814A1BAA
:101160005B0B483C510528F78091E3018F7080614B
:101170008093E301F901ED54FE4F80818F7080610F
:1011800080838EED91E00E9451060E944608DF9117
:10119000CF911F910895A1E1B0E0E1EDF8E00C944A
:1011A000281E8C0185E0F801DE011D9601900D924C
:1011B0008A95E1F7F801E2808EEDC82E81E0D82E05
:1011C0006091E1017091E2016115710509F44EC170
:1011D0009091DE012091DF01892F82238F3F09F456
:1011E00045C140815181A380B480F090E001F501B8
:1011F000E61BF70BFF2009F4EAC08091E301382FCA
:10120000307FE83CF10508F0A3C031116DC0FE2C21
:10121000251316C0941314C0E11012C08F708061A2
:101220008093E3010E946708C6010E9451068091E5
:10123000E301F80185838F2D6196EAE00C94441E4A
:10124000A114B10429F0842F85238F3F09F027C111
:1012500080E0F82FF170DF2E80FF3CC08091AC0160
:101260002091AD0136E0821315C04D875E878D85D4
:101270009E850E941808292F22952F702230F0F0A9
:10128000243018F59F70F1F0F8019581907FD1F42A
:10129000D12C1EC090E0389FF001399FF00D112431
:1012A000E255FE4F6181651306C06081641303C07F
:1012B0006281E6120FC001968770D5CF9F7011F042
:1012C000882331F3805E883018F3C8010E945106EC
:1012D000FD2CB1CFEE2009F4AECF8091E301816007
:1012E0008093E301F12CA7CF251306C0941304C00B
:1012F000F801EE2009F487C0C8010E94B1068823D6
:1013000019F1EE2009F18091E301803270F0209113
:10131000DE013091DF0138872F831986BB86AA86CC
:101320008C87CE0107960E94510686E0F801AEED4B
:10133000B1E001900D928A95E1F70E9476080E9433
:101340006708FF24F39477CFC8010E945106F9CFB4
:10135000311113C07A2DB98AA88A6E2D89890E940D
:10136000C4068EED91E00E94510686E0F6011192CE
:101370008A95E9F70E946708B5CF25130FC094132B
:101380000DC0E1100BC0F8018583C8010E94510611
:1013900086E0F60111928A95E9F74DCFC8010E94C7
:1013A000B106882389F2EE2079F28091E301803240
:1013B00008F4BBCF2091DE013091DF013A8329830D
:1013C0001B82BD82AC828E83CE010196ACCFE83CFD
:1013D000F10508F03EC0FE2CEE2009F4B5CF251330
:1013E0002AC0941328C08091E30180FD1BC0982F70
:1013F000907FC1F0F8018583903F31F0982F907F66
:10140000905F8F70892B8583C8010E94510686E00A
:10141000F801AEEDB1E001900D928A95E1F70E94DE
:10142000670809CF86E0F801AEEDB1E001900D92BA
:101430008A95E1F700CFC8010E94B106811175CFEE
:101440008091E30181608093E301C8010E9451060D
:10145000F2CE7A2DB98AA88A6E2D89890E94C40697
:1014600086E0F60111928A95E9F7D9CFEE2009F4CA
:101470006BCFC8010E94B106F82E882309F464CF0F
:1014800086E0F801AEEDB1E001900D928A95E1F7AA
:101490008EED91E00E9483030E947608C0CF81E028
:1014A0008E25D7CEACE0B0E0E8E5FAE00C942F1E34
:1014B0004F83588769877A878B879C87CE010796E9
:1014C0000E94CB08882369F08A859B85892B39F097
:1014D0004F815885842F85238F3F09F06BC016E01C
:1014E0005FC086E0FE013796DE01119601900D92F5
:1014F0008A95E1F78A859B85892B89F388859F8169
:1015000089238F3F61F32091AD0130E0C90101963D
:10151000877099274091AC014817190671F40E9411
:1015200091061092AD011092AC0186E0EEEDF1E073
:10153000DF011D928A95E9F7D2CF96E0929FD00104
:10154000939FB00D1124A255BE4FFE01319601901C
:101550000D929A95E1F78093AD010E944608BFCFA6
:10156000819FC001112482559E4F0E94CB08882381
:10157000E9F0E091AC011E9FF0011124E255FE4F0D
:101580004081518162817381848195810E94CE0660
:101590008091AC0190E00196877099278093AC010F
:1015A0008091AC019091AD018913DACF2C96E3E0E4
:1015B0000C944B1E69857A858B859C850E94CE068E
:1015C0008ECF682F80910001909101010E94321608
:1015D0000895682F80910001909101010E944016AA
:1015E000089580910001909101010E944E16089586
:1015F00080910402859585958595089580910402D2
:101600008770089590910402977081E009F480E05A
:10161000089580912702089590912702892B809345
:10162000270208958095909127029823909327028E
:10163000089510922702089590912602892B809395
:101640002602089580959091260298239093260271
:101650000895109226020895809105020895089534
:101660000E942F0B089590917A0292FF08C09091EA
:101670000502981721F0809305020E94300B08950F
:1016800080910502882329F01092050280E00E94D3
:10169000300B0895CF93DF93E0910001F0910101A9
:1016A000809127028083E0910001F0910101808107
:1016B00090912602892B808390910502992381F0D5
:1016C000E0910001F09101018081892B808380915C
:1016D0000001909101010E949E1581110E94400B12
:1016E000C0910001D091010140E250E064EE71E050
:1016F000CE010E946B1E892B59F080E2FE01A4EE00
:10170000B1E001900D928A95E1F7CE010E942C156F
:10171000DF91CF91089508950E948B0B08959091C9
:101720007A0292FF11C098E0899F90011124622BE8
:10173000609304020E94200780910402859585959C
:1017400085950E948C0B08950E94200708951092A1
:10175000040280E00E948C0B089590910402809511
:10176000892380930402282F277091F4282F082EB4
:10177000000C330B9217130659F090917A0292FFE6
:1017800007C08595859585950E9430070E94A70B17
:10179000089590917A0292FB222720F9281769F088
:1017A00080FB92F990937A028091790290917A026B
:1017B0000E94110C82E00E94AD0B089580917A0284
:1017C00082FB882780F991E089270E94C90B089540
:1017D00081E00E94C90B089580E00E94C90B089522
:1017E0006FEF7FEF90E080E00E94AD1E089590E0E3
:1017F00080E00E94891E21E0873E9E4F09F020E094
:10180000822F089582E090E00E94811E089583E077
:1018100090E00E94811E089584E090E00E94891E5D
:101820000895BC0184E090E00E94AD1E0895AB01D4
:10183000BC018FE090E00E94A11E0895AB01BC01A5
:1018400083E190E00E94A11E089560E070E0CB016A
:101850000E941E0C089560E070E0CB010E94170CFE
:101860000E94250C089567EE7EEF90E080E00E94D4
:10187000AD1E60E082E090E00E948F1E60E083E099
:1018800090E00E948F1E1092AB011092AA0160E0BE
:1018900074E184E090E00E94AD1E60E086E090E09C
:1018A0000E948F1E6FEF87E090E00E948F1E40E045
:1018B00050E0BA0188E090E00E94A11E60E08DE057
:1018C00090E00E948F1E40E050E0BA0188E190E075
:1018D0000E94A11E60E087E190E00E948F1E40E020
:1018E00050E0BA018CE190E00E94A11E70E060E03F
:1018F00080E290E00E94AD1E40E050E0BA0188E135
:1019000090E00E94A11E0E942B0C08950E94330CAF
:101910000895682F8EE090E00E948F1E08950E9427
:101920001C176093360270933702809338029093AD
:1019300039026093320270933302809334029093A1
:1019400035020895089508950E94A30C08950895FE
:101950000E94A70C08958DE39FE00E9415150E9438
:10196000A20C0E94A40C089581E008950E94B40C7A
:101970000895089508950E94B90C0E94BA0C089524
:101980000E945C0F0E94220308950E9407170E9484
:1019900037100E94C00C0E94A80C0895AAE0B0E085
:1019A000E4EDFCE00C94251E0E944D102AE2822EEC
:1019B00022E0922E640110E0F601E190F1906F01B7
:1019C000812F0E94820F1F5F143009F449C0E8166E
:1019D000F90691F380913A0281FD0E948B0F0E94DB
:1019E000B60C782E10E0812F0E94820F7C01F4014A
:1019F000A190B1904F018A159B0561F100E0CC24C4
:101A0000C394D12CAE24BF24C5018C219D21892BE8
:101A1000C1F07720B1F00E831F8321E0C7018C2134
:101A20009D21892B09F420E028870E9410178160EE
:101A3000782F9A8789874E815F8168858A850E9481
:101A40004E030F5FCC0CDD1C0A30F1F6F401329727
:101A5000F182E0821F5F143031F60E948F0C22C0A9
:101A6000E816F90609F0B6CF0E9410178C01809194
:101A700028029091290208171907A1F08FEF898396
:101A80008A831B820E9410178160782F9D838C832C
:101A900049815A816B818D810E944E0310932902E6
:101AA000009328020E946B120E9435032A96EDE0F3
:101AB0000C94411ECF93DF930E94580EEC018115C8
:101AC00020E59207D0F5811530E4930708F086C031
:101AD000803E910518F58D3C910508F07DC0883A4F
:101AE000910570F4853A910508F06EC0813091053A
:101AF00001F10097F1F00497E0F4D0E0C0E019C0E4
:101B0000813C9105D0F7C85AD0E0CC0FDD1FC85BEF
:101B1000DE4F0990D881C02DD4640BC0811590424E
:101B200008F0A8C0C11581E0D80718F4C83ED10557
:101B300020F7CE01DF91CF910895803622E59207FC
:101B400010F5803432E5930708F052C08032924598
:101B500008F047C0C11582E5D80708F47DC02C2FD6
:101B60002695269540E2249F900111248C2F8370A6
:101B7000C1E0D0E002C0CC0FDD1F8A95E2F7C22B96
:101B8000D32BDD68D6CF803A22E5920760F4803807
:101B900032E5930708F441C0CF71D0E0DC2FCC27A9
:101BA000C46FD06AC6CF803C42E5940708F449C0B0
:101BB000C03E82E5D80708F0A0CFDC2FCC27CC2789
:101BC000DF71C06FD06AB5CFC55AD0E0C658DE4FBE
:101BD000C881D0E0D064ADCFD065ABCFDF70D06A24
:101BE000A8CFCF71D0E0DC2FCC27C16FD06AA1CFB6
:101BF000282F26952695277080E2289F9001112492
:101C00008C2F8370C1E0D0E002C0CC0FDD1F8A951D
:101C1000E2F7C22BD32BDC688CCF282F2695269594
:101C2000277040E2249F900111248370C1E0D0E02E
:101C300002C0CC0FDD1F8A95E2F7C22BD32BDA68E6
:101C400078CF8F710E94FA0EC82FD0E0DC2FCC27FE
:101C5000CC27DF71D0626DCF8C2F8F710E94FA0E6E
:101C600035E0D695C7953A95E1F7CF709C2FEC01FA
:101C7000D0695FCF8D2F8F710E94FA0E90E0982F60
:101C8000882788279F719C012C2BE901E3CF462FE1
:101C9000743030F46A3020F4672F0E943B020895BC
:101CA00090E080E008950E94470E0E945A0D08952A
:101CB00082389105B9F1B0F48133910509F47DC002
:101CC00048F48932910509F46DC08A32910509F40E
:101CD0007BC008958533910509F45FC08933910570
:101CE00009F10895833E9105D9F138F4803E9105BC
:101CF00029F1823E910579F10895863E9105D9F149
:101D0000873E910509F43EC0843E910541F520913E
:101D10007A0221FF24C08091790284FD19C087EEE8
:101D200090E0089520917902237009F05AC0209123
:101D30007A0223FF14C089E290E00895209179028D
:101D400020FD38C030917A0230FF09C024FF43C023
:101D500090E080E008952091790222FDF7CF089568
:101D60002091790222FD3AC030917A0230FD39C0CB
:101D700024FFF5CFEDCF2091790223FFF0CF24FD92
:101D8000E7CFCDCF2091790223FD2EC030917A028A
:101D900031FFEECF84EE90E008952091790225FF87
:101DA000DECFC9CF2091790225FD21C020917A0292
:101DB00023FFD5CF89E390E0D2CF2091790226FF8F
:101DC000CECF8AE290E008952091790226FFC7CF16
:101DD00081E390E0089583EE90E0089582EE90E034
:101DE000089580EE90E0089586EE90E0089585E3F2
:101DF00090E008959091790292FF06C0282F2871F3
:101E00002830F9F4877F846093FF06C0282F28715B
:101E10002831F1F4877E846120917A0220FF06C088
:101E2000382F38713830D9F4877F816021FF06C0A0
:101E3000282F28712831D1F4877E816194FD877E17
:101E40000895282F24712430F9F68B7F8860DCCF29
:101E5000282F2471243101F78B7E8861DDCF382F44
:101E60003171313019F78E7F8860E0CF282F2171D2
:101E7000213121F78E7E8861E1CF80E008950E94B4
:101E8000F00B08950E944D102FEF86E791E021504E
:101E900080409040E1F700C000000E944D1080E0BB
:101EA0000E94820F80FF04C00E943F0F0E945B17B8
:101EB00008950E94420F08950E94F70B811102C0FD
:101EC0000E94860C0E94020C80933A020E940C0C25
:101ED00090937A02809379020E94590F0E94070C16
:101EE00090E00E94E4068091A8019091A9010E94CF
:101EF0000507089508950E947A0F089508950E9495
:101F00007E0F0895E82FF0E0EE0FFF1FED57FD4F15
:101F1000808191810895089580EA8A95F1F7089566
:101F200000C008950E948C0F0895F894E82FE29560
:101F3000EF70F0E031A1282F2F7081E090E001C018
:101F4000880F2A95EAF7982F9095932391A392A151
:101F5000892B82A378940895CF93DF9381E30E9425
:101F6000950F83E30E94950F82E30E94950F86E30D
:101F70000E94950FCDE7D1E089918F3F11F00E942B
:101F8000950F81E0C738D807B9F7DF91CF91089551
:101F9000AF92BF92DF92EF92FF920F931F93CF9376
:101FA000DF938C01D62EC62FD0E0CE0189579E4FED
:101FB0007C01FC0120812F3F09F44CC0F894E22FF2
:101FC000E295EF70F0E031A12F7081E090E001C068
:101FD000880F2A95EAF7932F982B91A392A18095C9
:101FE000892382A378940E94900FEDE7F1E041E00D
:101FF00050E0B12CA12C21912F3FB1F1A22FA2953D
:10200000AF70B0E090968C9190E02F7002C09595E3
:1020100087952A95E2F780FD27C0CA01A82AB92A28
:10202000440F551F81E0E738F80729F7F701808151
:102030008F3F11F00E94950F61E0A114B10409F4E3
:1020400060E08D2D0E94920FCC0FDD1FC00FD11FBD
:10205000B982A882DF91CF911F910F91FF90EF90ED
:10206000DF90BF90AF90089590E080E0D7CF0E94BE
:10207000AC0F88E0E3E8F2E0DF01982F1D929A951B
:10208000E9F7EBE7F2E0DF011D928A95E9F784E0DA
:102090000E9488100E948D020895A8E0B0E0E3E558
:1020A000F0E10C942D1E8E010F5F1F4F88E0F801A8
:1020B00011928A95E9F7F12C6F2DC8010E94C80F83
:1020C000F394F4E0FF12F8CF48E050E0B8018BE75A
:1020D00092E00E946B1E21E0009709F420E0892B1A
:1020E00041F088E0F801ABE7B2E001900D928A95EB
:1020F000E1F744E063E872E08BE792E00E94891028
:10210000182F0E949002812F2896E5E00C94491E1A
:102110000895CF92DF92EF92FF921F93CF93DF93B8
:102120006C017B01C42F222349F081E080933D02A2
:102130000E94101790933C0280933B0210913D0245
:1021400011110AC010E0812FDF91CF911F91FF90F4
:10215000EF90DF90CF90089580913B0290913C02E8
:102160000E942817059770F3D0E0CC0FDD1FAE0159
:10217000B601C7010E946B1E892B41F0AE01B6016A
:10218000C7010E94781E10923D02DDCF10E0FBCF08
:102190000E94E1180E94C50C0E94EE1808950E944A
:1021A000F3180E94CE0C0E940D1908950E94A916E2
:1021B0000E94C7180E94AB0C0E94C8100E94CF104A
:1021C0000E94BB0CFBCF8091440280FF0DC0609148
:1021D000070170E0660F771F6038710570F56115B3
:1021E000710569F1862F089581FF07C0609107018D
:1021F00084E0689FB0011124EFCF6091070182FD58
:102200000AC0809143028823A9F0209106016091C1
:102210000701821710F088E0ECCF869FC0011124DF
:1022200033E0880F991F3A95E1F7622F70E00E9422
:10223000061ED2CF68E070E0D5CF8FE7089581E029
:1022400008958091440280FF0CC06091030170E00A
:1022500075956795759567956115710549F1862F97
:10226000089581FF06C06091030170E07595679540
:10227000F3CF6091030182FD0BC09091420299233C
:10228000A1F06091020180910301961738F0682F48
:1022900070E06038710500F38FE70895899FC001F1
:1022A000112470E00E94061EF4CF61E070E0D7CFE9
:1022B00081E008958D3C31F40E94E3108195809374
:1022C000480208958E3C19F40E94E310F8CF8F3C29
:1022D00031F40E94E3108195809347020895803D78
:1022E00019F40E94E310F8CF893D29F40E942111CE
:1022F0008093490208958A3D21F40E94211181951D
:10230000F7CF8B3D31F40E942111819580934A02D1
:1023100008958C3D19F40E942111F8CF9FE2980F87
:10232000983070F4815D990B21E030E001C0220FFC
:102330008A95EAF780914602822B8093460208959F
:102340008D3D31F480914402816080934402089570
:102350008E3D21F4809144028260F7CF8F3DB9F722
:10236000809144028460F1CF409147028D3C59F442
:102370008091480287FF0DC01092480241110BC0A6
:102380001092430208C08E3C81F4809148021816D6
:102390009CF3442381F08091490290914A02892B59
:1023A00009F05AC01092420208958F3C49F447FF49
:1023B000F0CF10924702809148028111ECCFE0CF1C
:1023C000803D19F41416ACF3E4CF90914902893D95
:1023D00029F41916F4F610924902DBCF8A3D19F45C
:1023E00097FFD7CFF8CF90914A028B3D29F497FF02
:1023F000D0CF10924A02CDCF8C3D19F41916CCF3F0
:10240000C8CF9FE2980F983090F4815D990B21E03E
:1024100030E0B90102C0660F771F8A95E2F7CB0161
:10242000809590914602892380934602B2CF8D3DDC
:1024300031F4809144028E7F80934402AACF8E3D76
:1024400021F4809144028D7FF7CF8F3D09F0A1CF19
:10245000809144028B7FF0CF08950E9410179C0159
:102460009091470280914802982B21F030934102CD
:10247000209340029091490280914A02982B21F0CA
:1024800030933F0220933E0285E492E00E9446157D
:10249000089586E0E5E4F2E0DF011D928A95E9F710
:1024A0001092430210924202109244020895FC01DD
:1024B000828181110EC0838181110BC084818111C1
:1024C00008C091E08581811101C090E0892F817061
:1024D000089581E0FCCFA6E0B0E0E1E7F2E10C94E2
:1024E0002F1E86E0E5E4F2E0DE01119601900D92E8
:1024F0008A95E1F710924702109248021092490221
:1025000010924A028B819C81892B89F08091400234
:10251000909141020E942817AC01909143029923A7
:10252000C9F1809108018417150608F440C08D8117
:102530009E81892B91F080913E0290913F020E94F2
:102540002817AC0190914202992309F471C080913F
:1025500004018417150608F479C0BE016F5F7F4F30
:1025600085E492E00E946016811105C085E492E046
:102570000E94571281110E942D1286E0FE013196B1
:10258000A5E4B2E001900D928A95E1F72696E3E08A
:102590000C944B1E209109018AE0289F9001112480
:1025A0002417350720F69F5F9093430202C09F3F98
:1025B000D1F71B81112359F00E94E3109FEF1116F0
:1025C0000CF491E0899F802D1124809347021C8197
:1025D000112359F00E94E3109FEF11160CF491E0C3
:1025E000899F802D11248093480230914702332324
:1025F00009F49DCF20914802222309F498CF45EB9E
:102600003403C0011124992359F09093470245EBFC
:10261000240390011124332339F03093480287CFEB
:1026200081E080934702F3CF81E0809348027FCF1F
:10263000209105018AE0289F900111242417350775
:1026400008F08BCF9F5F9093420202C09F3FD1F76B
:102650001D81112359F00E9421119FEF11160CF4D6
:1026600091E0899F802D1124809349021E811123BE
:1026700059F00E9421119FEF11160CF491E0899FEF
:10268000802D112480934A0230914902332309F4AA
:1026900064CF20914A02222309F45FCF45EB340333
:1026A000C0011124992359F09093490245EB24036A
:1026B00090011124332339F030934A024ECF81E048
:1026C00080934902F3CF81E080934A0246CFCF93B3
:1026D000DF93EC01FB018281882309F4D2C09E01C3
:1026E00030572332310508F0B2C00E940C0C909391
:1026F0007A0280937902FE01E150F047E232F1055F
:1027000020F4EF52F14E0C941A1E809179028160F0
:102710008093790293C080917A02886080937A02D4
:102720008DC0809179028260F3CF809179028460BC
:10273000EFCF809179028860EBCF80917A0281603F
:10274000EDCF80917A028260E9CF80917902806139
:10275000DFCF809179028062DBCF80917902806443
:10276000D7CF0E949106809179028068D1CF809165
:1027700079028C60CDCF80917A028360CFCF809137
:1027800079028E7FC5CF80917A02877FC7CF8091F3
:1027900079028D7FBDCF809179028B7FB9CF8091F7
:1027A0007902877FB5CF80917A028E7FB7CF8091F3
:1027B0007A028D7FB3CF809179028F7EA9CF8091ED
:1027C00079028F7DA5CF809179028F7BA1CF0E9466
:1027D0009106809179028F779BCF80917902837FD8
:1027E00097CF80917A028C7F99CF8091790282FB7A
:1027F000992790F921E0922790FB82F990FB83F9C9
:1028000087CF80917A02982F909591708E7F892B37
:1028100090FB81F983CF90917902892F8F7B96FF6E
:10282000806476CF0E94910690917902892F97FB60
:1028300087F980586DCF81E00E94890C80917902E0
:1028400090917A020E94110C0E94910680E0DF9123
:10285000CF91089580E0F0CF90917902892F8F7EFB
:1028600094FF806155CF90917902892F8E7F90FFE0
:1028700081604ECF90917A02892F877F93FF886085
:102880004DCF81E0E4CFCF93DF93EB0186319C47BE
:1028900011F50E94090B9A81992399F08A7A91E0A7
:1028A00009F490E090934B02811109C089E20E94E3
:1028B000E10A0E944A0B80E0DF91CF91089585E301
:1028C000F6CF80914B02811104C089E20E94E90A8F
:1028D000F0CF85E3FBCF81E0EFCF0F931F93CF9332
:1028E000DF93C42FD22FFC0182818823C9F040934B
:1028F0004E020E94101790934D0280934C0280E28A
:102900008C0F883040F4C77081E001C0880FCA95F1
:10291000EAF70E943404DF91CF911F910F9108953F
:1029200010914E02141332C080914C0290914D02CE
:102930000E942817883C910548F5C0E2CD0F1D176D
:10294000B9F080E2810F883040F4177081E001C057
:10295000880F1A95EAF70E943B04C83048F481E0DA
:102960009D2F977001C0880F9A95EAF70E94340452
:10297000802F0E942B04C83070F6D77081E001C010
:10298000880FDA95EAF70E943B04C5CF80E28C0FEE
:10299000883008F6C77081E001C0880FCA95EAF751
:1029A000F2CF0F93DB0188519C4787309105A0F54A
:1029B000FC01ED50F14E0C941A1E06E221EE41EEA0
:1029C0006AE17CE7CD010E946D1480E00F910895CB
:1029D00007E225EE45EE6BE17CE7F4CF06E221EE5F
:1029E00040EE68E17CE7EECF07E225EE44EE69E1D8
:1029F0007CE7E8CF06E221EE42EE6CE17CE7E2CF35
:102A000007E225EE46EE6DE17CE7DCCF08E221E04F
:102A100045EE6EE17CE7D6CF12968C91882319F0B3
:102A200010924E02D3CF81E0D1CF90938D0180934D
:102A30008C01089590935402809353020895E0917D
:102A40005302F0915402309729F00190F081E02D6B
:102A50000995089580E00895E0915302F0915402A1
:102A6000309799F020911201222359F02091790298
:102A700027FF07C0DC012C9111962C93119726E0BB
:102A80002C930280F381E02D09950895E091530283
:102A9000F0915402309739F022E0DC012C9304804D
:102AA000F581E02D09950895A3E0B0E0EAE5F5E1B0
:102AB0000C94301E20915102309152022817390790
:102AC000A1F09093520280935102E0915302F09151
:102AD0005402309751F023E029839B838A83068038
:102AE000F781E02DCE01019609952396E2E00C9442
:102AF0004C1EA3E0B0E0EFE7F5E10C94301E20910E
:102B00004F023091500228173907A1F090935002DC
:102B100080934F02E0915302F0915402309751F0AC
:102B200024E029839B838A830680F781E02DCE01F0
:102B3000019609952396E2E00C944C1EFC01329616
:102B400080911201882321F0809179029EE187FF14
:102B500096E080E0915008F4089521912223D1F36A
:102B60008F5FF8CF662301F1209112012223F1F04B
:102B70002091790227FF1AC0462F46954695469523
:102B80004E3190F4677021E030E002C0220F331F15
:102B90006A95E2F7840F911DFC01828190E0282361
:102BA000392381E0232B69F480E00895FC013296FB
:102BB00008962191261721F0E817F907D1F7F4CFED
:102BC00081E008959C01FC0132969FEF80E04191E5
:102BD000461751F09F3F19F4411101C0982F8F5FA4
:102BE0008630A9F79F3F09F40895290F311D97FDFD
:102BF0003A95F90162830895FC0132960896219175
:102C0000261303C0DF0111971C92E817F907B9F7E3
:102C10000895E62FE695E695E695EE3168F4E80F1F
:102C2000F92FF11D677021E030E001C0220F6A9595
:102C3000EAF78281822B82830895E62FE695E69556
:102C4000E695EE3170F4E80FF92FF11D677021E081
:102C500030E001C0220F6A95EAF72095828128238F
:102C60002283089520911201222339F020917902C4
:102C700027FF03C00E94091608950E94E2150895D7
:102C800020911201222339F02091790227FF03C0FD
:102C90000E941D1608950E94FC150895FC013296AD
:102CA00080911201882351F08091790287FF06C03C
:102CB0008EE1DF011D928A95E9F7089586E0F9CF4C
:102CC00046E050E00E946B1E21E0892B09F420E0D1
:102CD000822F089508950E946A160895811106C0F2
:102CE00081E0809355020E946B16089582E0F9CF2F
:102CF00083E0809355020E946B1608950E946E1621
:102D0000089581E0809355020E946B1608950E94F9
:102D100081160895089508950E948B1608950895C8
:102D200008950E948A160895CF930E948F160E94DC
:102D30004D100E949016C0E08C2F0E94820F892BAC
:102D400031F4CF5FC430C1F780E0CF91089581E0C6
:102D5000FCCF85B7806885BF85B7806885BF08953B
:102D60001F921FB61F9211248F939F93AF93BF930F
:102D700080915602811113C080918B0290918C0238
:102D8000A0918D02B0918E024196A11DB11D80933C
:102D90008B0290938C02A0938D02B0938E02BF9110
:102DA000AF919F918F911F901FBE1F90189580919A
:102DB0009302843031F10E9402031092560288E19E
:102DC00090E020E40FB6F894A895809360000FBEC1
:102DD0002093600083B7817F846083BF83B7816065
:102DE00083BF7894889583B78E7F83BF0FB6F8949E
:102DF000A8958091600088618093600010926000C7
:102E00000FBE08950E9491060E940703089582E074
:102E100084BD93E095BD9AEF97BD80936E000895B1
:102E20002FB7F89480918B0290918C02A0918D0223
:102E3000B0918E022FBF08952FB7F89460918B0246
:102E400070918C0280918D0290918E022FBF089517
:102E50009C014FB7F89480918B0290918C02A091C5
:102E60008D02B0918E024FBF821B930B0895789410
:102E70001F921FB61F9211248F939F93AF93BF93FE
:102E800080918B0290918C02A0918D02B0918E0264
:102E90000196A11DB11D80938B0290938C02A0938B
:102EA0008D02B0938E02BF91AF919F918F911F9031
:102EB0001FBE1F90189587E797E7909301088093AE
:102EC000000888E19AE00FB6F894A8958093600016
:102ED0000FBE90936000FFCF88E19AE00FB6F894A0
:102EE000A895809360000FBE90936000FFCF809103
:102EF000770208959B01BA01909193029430E9F40E
:102F00008F708093E9009FEF8091E800915085FDDC
:102F100006C085ED8A95F1F700009111F5CF8091FB
:102F2000E80085FF0AC050E040E0C9010E947F1917
:102F30008091E8008E778093E800089543E050E0A8
:102F4000BC0182E00E947A17089546E050E0BC017F
:102F500082E00E947A170895CF93DF93EC0180916D
:102F60001201811111C048E050E0BE0181E00E94D1
:102F70007A1780E2FE01A7E5B2E001900D928A95F2
:102F8000E1F7DF91CF9108958091790287FF05C025
:102F900040E282E050E0BE01EACF48E081E0FACFB3
:102FA00080919202811109C00E940F1B0E946C1B2C
:102FB0008091E20084608093E20008951092920272
:102FC00008950E948116089560918F0281E0611139
:102FD00001C080E00E94781608959091930281E0EC
:102FE000943009F080E060918F020E947E1608956F
:102FF00042E061EC81E00E948B1A42E261EC82E0E7
:103000000E948B1A9091930281E0943009F080E045
:1030100060918F020E946E16089580919502833010
:1030200009F461C030F48130D1F1823009F49EC0DE
:1030300008958A3009F48AC08B3009F46FC0893052
:1030400009F050C080919402813209F04BC0809108
:10305000980290919902029708F044C08091E8008C
:10306000877F8093E8008091E80082FF37C09091CD
:10307000F3008091F200029731F48091F1008130E9
:1030800011F0863021F48091F100809377028091D5
:10309000E8008B778093E8000E94BF1A23C08091DC
:1030A0009402813AF9F48091E800877F8093E800E8
:1030B0008091980290919902892B61F460E287E5F2
:1030C00092E070E00E94CE198091E8008B778093A7
:1030D000E800089560E090E080E0F3CF80919302F3
:1030E0008111C1CF089580919402813AD9F78091DE
:1030F000980290919902892BA9F78091E800877F27
:103100008093E8008091E80080FFFCCF809112015D
:103110008093F1008091E8008E77BCCF809194027B
:10312000813201F78091980290919902892BD1F612
:103130008091E800877F8093E8000E94BF1A809109
:103140009602809312010E94910608958091940244
:10315000813241F68091E800877F8093E8000E94E9
:10316000BF1A80919702809378020895809194020B
:10317000813A09F0B7CF8091E800877F8093E8001B
:103180008091E80080FFFCCF80917802C1CF84B7A6
:10319000877F84BF0FB6F894A895809160008861FE
:1031A00080936000109260000FBE80E890E00FB640
:1031B000F89480936100909361000FBE0E9487167F
:1031C00008950E940F1B0E946C1BE2EEF0E08081CC
:1031D0008460808378940E94EB1D08958AE091E0DA
:1031E0000E941A15089580919302853031F48091E0
:1031F0009302853019F00E94021708950E94D71695
:1032000080919102882399F30E949416882379F380
:103210000E9469190E949106EACF08950E9411192F
:103220000895292F33272330310519F168F421300F
:10323000310509F444C02230310509F445C090E05D
:1032400080E030E020E025C02132310549F1223212
:103250003105A9F780E490E02FEB33E061157105AB
:10326000C1F086EB90E029E033E06130710589F030
:10327000E6CF99278130910581F0009729F00297D8
:10328000F1F6ECE8F2E002C0E8EBF2E0849190E0C5
:103290009F01FA01318320830895E0EAF2E0F6CF3E
:1032A00089E090E02EEC32E06115710591F389E040
:1032B00090E027EE32E06130710559F3C0CF82E132
:1032C00090E027EF32E0E5CF8BE390E02CEB32E0AB
:1032D000E0CF80E189BD82E189BD09B400FEFDCF68
:1032E0008091D8008F7D8093D8008091E00082602B
:1032F0008093E0008091E00081FDFCCF0895AF92C3
:10330000BF92CF92DF92FF920F931F93CF93DF93E1
:103310006C01EB018A010E94DE1AF82E811123C094
:103320000115110539F0F80180819181C81BD90B75
:10333000C80ED91EB12CA12C2097A9F08091E800CD
:1033400085FD22C08091E8008E778093E80001150A
:103350001105A1F0F80180819181A80EB91EB182FA
:10336000A08285E0F82E8F2DDF91CF911F910F91D4
:10337000FF90DF90CF90BF90AF9008950E94DE1A2B
:103380008823D1F2F82EEFCFF60181916F0180935F
:10339000F1002197FFEFAF1ABF0ACECFFC01809159
:1033A0009A0290919B0286179707A0F0611571050C
:1033B00029F49091E8009E779093E80090E06115E1
:1033C000710551F4911108C08091E80082FF34C06A
:1033D00080E00895BC01F2CF809193028823C1F16F
:1033E0008530C1F18091E80083FD30C08091E80014
:1033F00082FDEACF8091E80080FFE1CF8091F30069
:103400002091F200382F6115710519F0283031052F
:1034100058F091E02830310509F090E02091E80063
:103420002E772093E800CBCF81918093F1006150FB
:1034300071092F5F3F4FE7CF80919302882341F0BE
:10344000853041F08091E80083FFBECF81E0089590
:1034500082E0089583E00895FC0180919A029091A2
:103460009B0286179707A0F06115710529F48091DA
:10347000E8008E778093E80090E06115710551F4C3
:10348000911108C08091E80082FF35C080E0089566
:10349000BC01F2CF809193028823C9F18530C9F134
:1034A0008091E80083FD31C08091E80082FDEACF81
:1034B0008091E80080FFE1CF8091F3002091F2003D
:1034C000382F6115710519F02830310558F091E059
:1034D0002830310509F090E08091E8008E778093E4
:1034E000E800CBCF84918093F1003196615071094F
:1034F0002F5F3F4FE6CF80919302882341F08530C4
:1035000041F08091E80083FFBDCF81E0089582E023
:10351000089583E00895982F973028F08F70809356
:10352000E90081E008959093E900242F762F50E080
:10353000981731F07091EC002091ED005091F0005F
:1035400021FD02C09F5FE8CF3091EB003E7F3093BA
:10355000EB003091ED003D7F3093ED003091EB00BA
:1035600031603093EB007093EC002093ED005093AA
:10357000F0002091EE0027FDE5CF80E008958091D6
:10358000940287FF13C08091E80082FF06C08091FB
:10359000E8008B778093E80004C08091930281114A
:1035A000F2CF0895809193028823D9F38091E800A7
:1035B00080FFF8CF8091E8008E77ECCF2091E40077
:1035C0003091E50095E6A9012091EC00822F8170F1
:1035D00020FF06C08091E80080FF06C080E00895CB
:1035E0002091E80022FD1AC080919302882389F07F
:1035F000853089F08091EB0085FD0FC02091E400BB
:103600003091E50042175307F9F29150E1F684E05A
:10361000089582E0089583E0089581E008950E946E
:103620007E1B0E94861BE0EEF0E08081816080833B
:10363000E8EDF0E080818F77808319BCA7EDB0E0E2
:103640008C918E7F8C9380818F7E808310929202EA
:1036500008950F931F93CF93DF930E947E1B0E94C8
:10366000861BC8EDD0E088818F7788838881806849
:10367000888388818F7D888319BC10929302109271
:103680008F02109291021092900200EE10E0F80169
:1036900080818B7F808388818160888342E060E0C5
:1036A00080E00E948B1AE1EEF0E080818E7F8083C3
:1036B000E2EEF0E080818160808380818860808399
:1036C000F80180818E7F8083888180618883DF918B
:1036D000CF911F910F910895E8EDF0E080818F7EEA
:1036E0008083E7EDF0E080818160808384E082BFA9
:1036F00081E0809392020E94291B0895E8EDF0E09A
:1037000080818E7F80831092E20008951092DA000B
:103710001092E10008951F920F920FB60F9211249C
:103720002F933F934F935F936F937F938F939F93C9
:10373000AF93BF93EF93FF938091E10082FF0BC0A3
:103740008091E20082FF07C08091E1008B7F80932F
:10375000E1000E94EA1D8091DA0080FF19C080918B
:10376000D80080FF15C08091DA008E7F8093DA0048
:103770008091D90080FF96C080E189BD82E189BD3A
:1037800009B400FEFDCF81E0809393020E94D01720
:103790008091E10080FF19C08091E20080FF15C098
:1037A0008091E2008E7F8093E2008091E200806150
:1037B0008093E2008091D80080628093D80019BC89
:1037C00085E0809393020E94E4178091E10084FFDA
:1037D0002BC08091E20084FF27C080E189BD82E197
:1037E00089BD89B5982F917080FFFBCF8091D8005B
:1037F0008F7D8093D8008091E1008F7E8093E100DF
:103800008091E2008F7E8093E2008091E2008160EF
:103810008093E20080918F02882309F449C084E0FC
:10382000809393020E94ED178091E10083FF29C0ED
:103830008091E20083FF25C08091E100877F809323
:10384000E10082E08093930210928F028091E10068
:103850008E7F8093E1008091E2008E7F8093E20072
:103860008091E20080618093E20042E060E080E0CD
:103870000E948B1A8091F00088608093F0000E9473
:10388000E117FF91EF91BF91AF919F918F917F9140
:103890006F915F914F913F912F910F900FBE0F90BD
:1038A0001F90189519BC109293020E94DE1770CFDA
:1038B0008091E30087FD93E090939302B3CF1F9232
:1038C0000F920FB60F9211242F933F934F935F9354
:1038D0006F937F938F939F93AF93BF93CF93DF9318
:1038E000EF93FF93D091E900DF708091EC00C82F37
:1038F000C17080FDC0E81092E9008091F000877FE0
:103900008093F00078940E94A31C1092E9008091AB
:10391000F00088608093F000CD2BCF70C093E90059
:10392000FF91EF91DF91CF91BF91AF919F918F91D7
:103930007F916F915F914F913F912F910F900FBEAB
:103940000F901F901895AAE2B0E0E9EAFCE10C9410
:103950002F1E84E992E02091F100FC012193CF0118
:10396000F2E08C399F07B9F70E940D188091E800AA
:1039700083FF1EC180919402909195029A3008F0C5
:1039800017C1E92FF0E0E650F14E0C941A1E803872
:1039900099F0823809F00CC1809198028F708730BD
:1039A00008F006C18093E9008091EB0085FB882731
:1039B00080F91092E90006C08091900290919102E6
:1039C000911182609091E800977F9093E800809336
:1039D000F1001092F1008091E8008E77E5C0882315
:1039E00009F4D3C0823009F0E3C0809196028111BE
:1039F000D6C0809198028F702FEF280F263008F0E4
:103A0000D7C08093E9002091EB0020FFC8C093301D
:103A100031F48091EB0080628093EB00C0C0909104
:103A2000EB0090619093EB0021E030E001C0220FA9
:103A30008A95EAF72093EA001092EA008091EB0061
:103A40008860EACF8111B4C0109196021F778091EF
:103A5000E3008078812B8093E3008091E800877FEA
:103A60008093E8000E94BF1A8091E80080FFFCCF9D
:103A70008091E30080688093E30082E0111183E08D
:103A80008093930295C08058823008F091C0809155
:103A90009602909197028C3D23E09207A1F583E076
:103AA0008A838AE289834FB7F894DE01139620E077
:103AB0003EE051E2E32FF0E050935700E49120FF05
:103AC00003C0E295EF703F5FEF708E2F90E0EA3019
:103AD000C0F0C7968D939D932F5F243159F74FBF48
:103AE0008091E800877F8093E8006AE270E0CE0171
:103AF00001960E94CE198091E8008B778093E800B0
:103B000057C0C096E7CF6091980270919902AE01BC
:103B10004F5F5F4F0E940E19BC01892B09F448C00A
:103B20009091E800977F9093E80089819A810E94A4
:103B30002C1AE1CF8038E1F58091E800877F8093EF
:103B4000E80080918F028093F10045CF811130C051
:103B500090919602923060F58091E800877F809383
:103B6000E80090938F020E94BF1A80918F028823F1
:103B700011F084E005C08091E30087FDFACF81E079
:103B8000809393020E94F81713C0809196028130AF
:103B900079F481E0933009F080E0809391021092F3
:103BA000E9008091E800877F8093E8000E94BF1AB7
:103BB0008091E80083FF0AC08091E800877F8093AE
:103BC000E8008091EB0080628093EB00AA96E3E02E
:103BD0000C944B1E0895CF93809193028823A1F0FB
:103BE000C091E900CF709091EC00892F817090FD19
:103BF00080E8C82B1092E9008091E80083FD0E94C4
:103C0000A31CCF70C093E900CF91089597FB072EB6
:103C100016F4009407D077FD09D00E94571E07FCC8
:103C200005D03EF4909581959F4F089570956195CC
:103C30007F4F0895EE0FFF1F0590F491E02D09943A
:103C40002F923F924F925F926F927F928F929F92AC
:103C5000AF92BF92CF92DF92EF92FF920F931F939A
:103C6000CF93DF93CDB7DEB7CA1BDB0B0FB6F8944B
:103C7000DEBF0FBECDBF09942A88398848885F848B
:103C80006E847D848C849B84AA84B984C884DF80FC
:103C9000EE80FD800C811B81AA81B981CE0FD11DE0
:103CA0000FB6F894DEBF0FBECDBFED010895AA1B7D
:103CB000BB1B51E107C0AA1FBB1FA617B70710F017
:103CC000A61BB70B881F991F5A95A9F78095909549
:103CD000BC01CD010895FB01DC0104C08D91019070
:103CE000801921F441505040C8F7881B990B089562
:103CF000FB01DC0102C001900D9241505040D8F709
:103D00000895F999FECF92BD81BDF89A992780B5A3
:103D10000895A8E1B0E042E050E00C94B51E262FD3
:103D2000F999FECF92BD81BDF89A019700B40216B1
:103D300039F01FBA20BD0FB6F894FA9AF99A0FBE5F
:103D400008950396272F0E94901E0E948F1E252FF4
:103D50000E94901E242F0C94901E0196272F0E94E3
:103D6000901E0C948F1EDC01CB01FC01F999FECF53
:103D700006C0F2BDE1BDF89A319600B40D924150F3
:103D80005040B8F70895F894FFCF7D047D04AE0449
:103D9000AE0440055C05DD04DD046105D205E105E6
:103DA000E105BF133314C71391139513CB13991364
:103DB000CF13DB13A5132C14A913DF13AD13E313D7
:103DC0000B14B113E7131214B713ED13F5139D136E
:103DD000D313A113D713BB13F11301141B142A140B
:103DE0008B13C3133A14EE14F414DD14E814FA140C
:103DF00000150615C71CEF1CD81DEF1CD81D221D71
:083E0000431DD81D9A1DA61DEB
:103E08000602280850011E0A14017717AC17A517D7
:103E18009E1701E200E900EA00B500B600B700CD40
:103E2800008301CC008A019201940121022302241B
:103E3800022502260227022A02B300B4006F00708E
:103E4800009F01CB01818283E200E900EA00B5000E
:103E5800B600B700CD008301CC008A01920194011D
:103E68002102230224022502260227022A02B30085
:103E7800B4006F0070009F01CB0181828394669724
:0C3E8800C63435F4F5F6F731333236005D
:00000001FF
