:1000000057C3000072C3000070C300000C947D2C25
:100010006CC300006AC3000068C3000066C3000030
:1000200064C3000062C300000C94B12A0C94992BA5
:100030000C94662A5AC3000058C3000056C300003F
:1000400054C3000052C3000050C300004EC3000060
:100050004CC300000C948D2A48C3000046C3000026
:1000600044C3000042C3000040C300003EC3000080
:100070003CC300003AC3000038C3000036C3000090
:1000800034C3000032C3000030C300002EC30000A0
:100090002CC300002AC3000028C3000026C30000B0
:1000A00024C3000022C3000020C30000050109068C
:1000B000A1018506050719E029E715002501950826
:1000C000750181020507190029EF1500250195F03A
:1000D000750181020508190129059505750191022F
:1000E000950175039101C00660FF0961A1010962D4
:1000F000150026FF0095207508810209631500266A
:10010000FF00952075089102C005010906A10105AF
:100110000719E029E7150025019508750181029569
:1001200001750881010507190029FF150026FF0048
:100130009506750881000508190129051500250196
:10014000950575019102950175039101C0000000AC
:10015000000000000000000000000000000000009F
:10016000000000000000000000000000000000008F
:10017000007E0F00D4FFFFFFC700000078000000E2
:1001800000000000002A2B280000000000000000F2
:10019000000000000000000029000000002C1E34B8
:1001A00020212224342627252E362D3738271E1FBE
:1001B000202122232425263333362E37381F0405E9
:1001C000060708090A0B0C0D0E0F10111213141557
:1001D000161718191A1B1C1D2F3130232D35040535
:1001E000060708090A0B0C0D0E0F10111213141537
:1001F000161718191A1B1C1D2F3130354C09025BBC
:1002000000030100A0FA0904000001030101000934
:1002100021110100012244000705810308000109A2
:100220000401000203000000092111010001222243
:1002300000070582032000010705030320000109D0
:100240000402000103000000092111010001223B0A
:1002500000070584032000011201000200000008CD
:10026000534601000100010203011C0376006900EE
:1002700061006C003A006600360034006300320012
:1002800062003300630000000C0343006F00720043
:100290006E0065000000100366006F006F007300C1
:1002A000740061006E000000040309042B001400B8
:1002B0001A00080015001700E000040016000700EF
:1002C00009000A00E1001D001B00060019000500DE
:1002D000000000000000E300777C2C002A001300DF
:1002E00012000C0018001C00340033000F000E0038
:1002F0000D000B00290038003700360010001100F7
:10030000000000000000E600787C28002B001E00A2
:100310001F00200021002200E0000000000000007B
:1003200000000000E10000000000000000000000EC
:10033000000000000000E30001002C002A0027005C
:100340002600250024002300000000004F0052007A
:1003500051005000000000000000000000000000FC
:10036000000000000000E600010028002B001E0233
:100370001F02200221022202E00000000000000013
:1003800000000000E100000000000000000000008C
:10039000000000000000E30001002C002A002702FA
:1003A00026022502240223023500310030002F00EE
:1003B0002E002D003502310230022F022E022D02B6
:1003C000000000000000E60001002800007C0000A2
:1003D00000000000000000002078237825782778AE
:1003E000000000002178247826782878000000009A
:1003F000000000000000E30001002C0000000000ED
:1004000000000000000000000000000000000000EC
:1004100000000000000000000000000000000000DC
:10042000000000000000E6000100280000010101BA
:1004300001010101010102020202020202020203A1
:100440000303030303030304040404040404050571
:100450000505050606060606070707070708080834
:1004600008090909090A0A0A0B0B0B0C0C0C0D0DE3
:100470000D0E0E0E0F0F0F1010111111121213137B
:100480001414151516161717181819191A1A1B1BF4
:100490001C1D1D1E1E1F2020212222232424252650
:1004A00026272829292A2B2C2D2D2E2F3031323288
:1004B000333435363738393A3B3C3D3E3F40414294
:1004C000434445464748494A4C4D4E4F505153547A
:1004D000555658595A5B5D5E5F616264656668692E
:1004E0006B6C6D6F7072737577787A7B7D7E8082AE
:1004F000838587888A8C8E8F91939596989A9C9EF7
:10050000A0A2A3A5A7A9ABADAFB1B3B5B7BABCBE06
:10051000C0C2C4C6C9CBCDCFD1D4D6D8DBDDDFE2D3
:10052000E4E7E9EBEEF0F3F5F8FAFDFFFD377A5872
:100530005A000004E6D6B44602002101160000006D
:10054000742FE5A3E0042F01425D003D8889C65465
:1005500036C3174FE4DCCBB3DF6320E7D71739D8B6
:100560003D5F52C90BECB7E6D5195224B0736759F9
:10057000B3E0B456C74788C96520CF4A3C940C0104
:100580005E29865C8E1FD2901470DD8177B2096E71
:10059000B5F6AEE987F3FD6E8628D433CFB875780B
:1005A0006A02A926DEE8E6250BF2F12FEB95EF753E
:1005B0007127C27F9195E2635AB0D245B872C0B537
:1005C00054D7004EDE62BA2013945BD1FF592158F4
:1005D0004935658A11E5CA1A8401C66412A7BCC4EC
:1005E00061E80A8B8F1814972CD485C2CA11139D09
:1005F0008194454D5141C1135A07F3F59C8A2EB0A1
:1006000089D73F3EF2C32110C396AA6256BA70B38F
:100610001061455FB111971836BB16666F7B478F27
:10062000C44223D0767E3FA7ECEA0CBF2774C309EF
:10063000BD093C35A8EED8AEC7E9FF0F2F64DF72C5
:10064000C5CDF6701A8177ECEF634989711EFAEC1B
:10065000985A059B0A0F6BC0B382F93085B0A8A6E3
:1006600030E1DE91E0E101A42FEECFFAB4CC09FA3B
:1006700055E9DC3EB4782343F5F745FEAA6A7F626C
:100680000EBDEBFB2CF315BF380D4959E0000000FF
:100690005614AADD3187545C0001DE02B008000068
:1006A000C0E5C082B1C467FB020000000004595AD3
:1006B00011241FBECFEFDAE0DEBFCDBF11E0A0E016
:1006C000B1E0EEE0FEE502C005900D92A636B1075E
:1006D000D9F724E0A6E6B1E001C01D92AF36B2071B
:1006E000E1F70E940D240C94A62E8ACC9C019A95C9
:1006F00081159F4118F5F32FF270EE27832F81703B
:10070000732F74706627532F5870442734FF0CC022
:100710008295807FEF2B09F08062672B09F080645F
:10072000452B69F080680895EF2B09F08260672BF4
:1007300009F08460452B19F08860089580E00895E1
:10074000CF93DF93EB01D2DFFE010995DF91CF91CB
:10075000089580932404089580932504089521E04A
:1007600030E001C0220F8A95EAF780912504822BA0
:10077000F3CF21E030E0A90102C0440F551F8A9554
:10078000E2F7CA018095909125048923E5CF292FAE
:10079000983090F5863080F590E036E0239F800D0C
:1007A000911D1124282F277041E001C0440F2A9584
:1007B000EAF723E0969587952A95E1F7FC01EE0F7D
:1007C000FF1FE80FF91FE151FD4F20E030E070E01E
:1007D0005191DF01CB01022E02C0969587950A94B4
:1007E000E2F7817081958527842385278E932F5F7B
:1007F0003F4F2330310561F70895292F983078F560
:10080000863068F590E036E0239F800D911D11241D
:10081000682F677023E0969587952A95E1F7FC018C
:10082000EE0FFF1FE80FF91FE151FD4F40E050E0D0
:1008300080E0219130E0062E02C0369527950A947B
:10084000E2F721703327042E01C0220F0A94EAF741
:10085000822B4F5F5F4F4330510559F7089580E079
:1008600008959091250421E030E0F90101C0EE0FD8
:100870008A95EAF7D90102C0AA0FBB1F6A95E2F771
:10088000EA2B01C0220F4A95EAF7892F8E23E8133D
:1008900003C0892F822B60CF2095822F8923FBCF25
:1008A00080912D0490912C04981301C008958F5FBE
:1008B0008770FACF9091270480958923809327042D
:1008C000282F2770211110C0891771F090916E04A4
:1008D00092FF0AC08695869586954BDF1092270475
:1008E00010922904109228040895982F90958091D1
:1008F0002204892380932204089580912104811584
:1009000031F01092210410922B0410922A040895C1
:100910009C01803E910509F448C0D8F481339105CB
:1009200009F47DC048F48932910509F46DC08A97B5
:1009300009F47CC0C90108958933910551F18238C9
:10094000910539F1C597B1F780916D0485FFF2CF1C
:1009500029C0843E910509F447C048F4823E9105C0
:1009600099F1833E9105A9F121EE30E0E3CF863E77
:10097000910509F444C0873E9105E1F680916D042C
:1009800083FD61C090916E0491FF2BC024EE30E096
:10099000D1CF80916D048370811152C080916E041B
:1009A00083FFC8CF29E230E0C5CF80916D0480FD80
:1009B00033C090916E0490FFBDCF23EE30E084FFF2
:1009C000B9CF20E030E0B6CF80916D0482FDF5CF45
:1009D000B1CF80916D0482FD30C090916E0490FD86
:1009E0002FC084FFA7CFEDCF80916E0481FFA2CFEF
:1009F00080916D0427EE30E084FDE3CF9BCF8091A2
:100A00006D0483FDF7CF96CF80916D0485FD1EC0E8
:100A100080916E0483FF8ECF29E330E08BCF8091ED
:100A20006D0486FF87CF2AE230E084CF80916D0489
:100A300086FF80CF21E330E07DCF22EE30E07ACF19
:100A400020EE30E077CF26EE30E074CF25E330E0C3
:100A500071CF90916D0492FF10C041E0282F247156
:100A6000243009F040E031E0282F2871283009F0C7
:100A700030E0431711F02CE0822793FF10C041E0D3
:100A8000282F2471243109F040E031E0282F28710B
:100A9000283109F030E0431711F02CE08227309123
:100AA0006E0430FF10C051E0282F2171213009F071
:100AB00050E041E0282F2871283009F040E0541719
:100AC00011F029E0822731FF10C041E0282F217169
:100AD000213109F040E031E0282F2871283109F058
:100AE00030E0431711F029E0822794FD877E0895B6
:100AF0001F93CF93DF930CDFEC01811522E5920762
:100B000008F044C0811540E5940708F0BAC0883E5B
:100B10009105E0F4803E910560F4853A910570F40A
:100B2000049738F481E0219709F080E0C82F50E065
:100B3000D52FCE01DF91CF911F9108958D5C910942
:100B4000D0654397B0F3C0E0D0E0F3CFC11580E4A7
:100B5000D80798F4C11590E2D90708F0A8C0CE01D3
:100B60009A9581159F4178F78D2F73DF182FCE014D
:100B70009927CEDEEC01D12BDCCFCE019927C8DE40
:100B8000CC27DF70C82BD92BD06AD3CF803842E571
:100B90009407C8F5803652E5950708F056C0C03472
:100BA00082E5D807D0F4C03292E5D90708F046C0F4
:100BB0008C2F8695869520E2829FC0011124C370F8
:100BC00021E030E0A90102C0440F551FCA95E2F7A9
:100BD000EA01C82BD92BDD68ACCF8C2F8695869582
:100BE000877050E2859FC0011124C37021E030E07E
:100BF000A90102C0440F551FCA95E2F7EA01C82BAC
:100C0000D92BDC6896CF803C52E5950758F48F715C
:100C1000C03AD24578F590E0982F8827EC01C46F50
:100C2000D06A87CF805C9245809708F08CCFDC2F0C
:100C3000CC27CC27DF71C06FD06A7BCFCF71D0E0DB
:100C4000DC2FCC27C16FD06A74CF869586958770CC
:100C500020E2829FC0011124C37021E030E0A9018D
:100C600002C0440F551FCA95E2F7EA01C82BD92BE1
:100C7000DA685FCFEEDEC82FD0E0DC2FCC27D06261
:100C800058CF8F71E6DE93E0CC0FDD1F9A95E1F728
:100C9000CC27DF70282F30E084FF05C050E1859F0E
:100CA000900111243327C22BD32BD06942CF8D2F33
:100CB0008F71CFDE182FCE0199272ADEEC01D12BC0
:100CC000DECF80E00895F894E82FE295EF70F0E031
:100CD00041A18F7021E030E0B90102C0660F771F9B
:100CE0008A95E2F7CB01962F9095942391A392A138
:100CF000892B82A37894089580911904843070F42C
:100D000080911904837084608093190480911C047D
:100D1000893718F088E780931C040895883080F79D
:100D2000F5CFCF938091190480FF03C06FD3CF918B
:100D30000895C091020180910301C817B8F780910E
:100D400000019C2F981B892F20E040E060E090E09C
:100D50002BD0CF5FF0CF9C0121158CE7380741F4F1
:100D600080918A0290918B02892B11F420E030E06F
:100D7000C9010895E0E9F3E080E090E069EC70E2F9
:100D80004CEE50E22EE531E277836683518740874F
:100D900033872287978786870196709688309105DA
:100DA00099F70895539A0895FC01EE0FFF1FE80F7D
:100DB000F91FEC54FE4F6183408322830895FC01A8
:100DC0008481862381110AC082818115B9F068234C
:100DD000908593FF05C081E061110FC080E0089508
:100DE000282F22952F708F70282B962F92959F7009
:100DF0006F70962B81E02913F1CF089581E008955B
:100E0000FA01309709F0099508958091B90281158A
:100E100069F0E091E502F091E602309739F0019037
:100E2000F081E02D309711F00995089580E0089544
:100E300090913C01913091F0AAE6B1E0EFEF90E0A3
:100E40002D91821751F0EF3F19F4211101C0E92FC4
:100E50009F5F9630A9F7EF3FC9F4089590916D0414
:100E600097FFEACFE82FE695E695E695803FA8F74D
:100E7000F0E0E059FE4F877021E030E001C0220F22
:100E80008A95EAF78281822B828308950E2E000CC8
:100E9000FF0BE859FE4FF8CF90913C01913021F4BF
:100EA00090916D0497FD0CC0EAE6F1E091918913F1
:100EB00002C0DF011E9251E0E037F507B9F708954F
:100EC000E82FE695E695E695803FC8F7F0E0E05913
:100ED000FE4F877021E030E0A90102C0440F551F8A
:100EE0008A95E2F7CA0180959281892382830895C9
:100EF00080913B0108952FB7F8948091B0019091B3
:100F0000B101A091B201B091B3012FBF0895CF9369
:100F1000DF93C091220480912604C82B8091210484
:100F20008115F1F0E8DF20912A0430912B04821B17
:100F3000930B8838934108F0E0DCD0912104809134
:100F40003C01813021F480916D0487FD13C086E05F
:100F50002AE631E090E0815088F49111CEDCCD2B6F
:100F600080910C0380958C2390910B03892BDF914A
:100F7000CF9108958EE122E731E0ECCFF901419164
:100F80009F01411541F39F5FE6CF962F20916E049C
:100F900022FF0EC0682F660F660F660F692B6093E5
:100FA0002704DDDBA8DF90932904809328040895AB
:100FB000D6CB90912104292F2823211559F0809513
:100FC000892380932104811531F095DF80932A04D1
:100FD00090932B04089580E090E0F8CF2FB7F89419
:100FE0006091B0017091B1018091B2019091B30113
:100FF0002FBF0895CF92DF92EF92FF928091B902B6
:10100000811551F0EBDF6B017C01C701B601FF9048
:10101000EF90DF90CF900895E1DFC090BB02D090B9
:10102000BC02E090BD02F090BE02C60ED71EE81EC4
:10103000F91EEBCFCF92DF92EF92FF92CF93DF9327
:10104000D82FC92FC0908A03D0908B03E0908C03D7
:10105000F0908D03C3DF6C197D098E099F09643FF1
:1010600071408105910510F1B9DF6B017C0182E3CC
:1010700090E0A0E0B0E0C0927902D0927A02E092D3
:101080007B02F0927C028093750290937602A0938B
:101090007702B0937802D0938803C0938903DF91DD
:1010A000CF91FF90EF90DF90CF90089584EF91E083
:1010B000A0E0B0E0E0CF87E797E790930108809346
:1010C000000888E19AE00FB6F894A8958093600034
:1010D0000FBE90936000FFCF08950895FC019B011F
:1010E0008091A6019091A7018617970740F0672B82
:1010F00029F48091E8008E778093E800C90140E0F0
:10110000009741F4411106C08091E80082FF2FC092
:1011100080E0089520918C022115A9F12530A9F1D4
:101120002091E80023FD2DC02091E80022FDECCFA6
:101130002091E80020FFE4CF3091F3002091F200ED
:10114000009719F02830310558F041E0283031057A
:1011500009F040E02091E8002E772093E800D0CFFE
:1011600041914093F10001972F5F3F4FE9CF80916C
:101170008C02811541F0853041F08091E80083FFB9
:10118000C3CF81E0089582E0089583E008958091BF
:10119000A00187FF13C08091E80082FF06C0809104
:1011A000E8008B778093E800089580918C0281118C
:1011B000F2CF089580918C028115D9F38091E800D7
:1011C00080FFF8CF8091E8008E77ECCF2091E4008B
:1011D0003091E50095E6A9012091EC00822F817005
:1011E00020FF06C08091E80080FF06C080E00895DF
:1011F0002091E80022FD1AC080918C02811589F0AF
:10120000853089F08091EB0085FD0FC02091E400CE
:101210003091E50042175307F9F29A95E1F684E020
:10122000089582E0089583E0089581E00895E8ED4F
:10123000F0E080818E7F80831092E2001092DA00CD
:101240001092E100A0EEB0E08C9181608C938081DF
:101250008F77808319BCA7EDB0E08C918E7F8C9343
:1012600080818F7E808310929F010895E091E50236
:10127000F091E602309739F00284F385E02D309743
:1012800011F060E209950895FC01AC014C5F5F4FDD
:101290008FEF61E39191892728E030E0982F990F33
:1012A00087FF09C0892F862721503040B9F7E417FE
:1012B000F50781F70895892FF7CF982F9093E900CC
:1012C000891771F07091EC002091ED005091F000C1
:1012D00021FD09C09F5F973089F78093E900089549
:1012E000762F242F50E03091EB003E7F3093EB00BF
:1012F0003091ED003D7F3093ED003091EB00316097
:101300003093EB007093EC002093ED005093F000CD
:101310002091EE0027FDDECF0895A0E0B0E0E3E9E4
:10132000F9E00C94962DC8EDD0E088818F7E8883FB
:10133000E7EDF0E080818160808384E082BF81E01E
:1013400080939F0188818E7F888302EE10E0F801F0
:1013500010821092DA0081EEC82ED12CF601108294
:1013600088818F77888388818068888388818F7D52
:10137000888319BC10928C0210929E0110926B020D
:1013800010929D0190EEE92EF12CF70180818B7F68
:10139000808388818160888342E060E080E08DDF27
:1013A000F60180818E7F8083F80180818160808357
:1013B000808188608083F70180818E7F808388812F
:1013C00080618883CDB7DEB7E8E00C94B22DE09160
:1013D0002D0490912C0427E0E91302C080E00895C9
:1013E000AE2FB0E02E9FF0011124E25DFB4F318162
:1013F000361306C03081381303C03581341304C05E
:10140000FD013196E770E8CF81E008953BB1377F69
:101410002BB128604FB7F89484EB91E0FC01019662
:10142000508168E02BB9000000C057FF3BB9550F51
:10143000000000C000C000C03BB900C06A9591F731
:1014400052E08635950751F74FBF8FE594E001973D
:10145000F1F700C0000008950F931F93CF93DF931F
:101460008B01EA0190918C02943051F58093E90050
:101470008FEF9091E80095FD06C095ED9A95F1F7F4
:1014800000008A95B1F78091E80085FF19C09EDEC3
:10149000811111C08091E80085FD06C08091E800AF
:1014A0008E778093E800F3CFF80181918F018093CC
:1014B000F100219779F78091E8008E778093E8001A
:1014C000DF91CF911F910F910895792F603229F408
:1014D00040E250E0682F82E0BFCF0895CF93DF93C2
:1014E000D82FC92F48E050E0682F792F81E0B4DF72
:1014F00088E0ED2FFC2FA8EAB1E001900D928A95CB
:10150000E1F7DF91CF910895BC0140E250E084E023
:10151000A3CFA0E0B0E0EFE8FAE00C94942D182FF0
:10152000092FB62EA72E7A0180919A019AE0C92E32
:10153000D12C8A3018F0CC24C394D12CC1E0D0E057
:101540006B2D7A2D812F902FF7010995811116C0EF
:101550002196CC16DD0694F0CC9FC001CD9F900D56
:10156000900D112420E030E045E34A95F1F70000AA
:101570002F5F3F4F28173907B9F7E2CFCDB7DEB756
:10158000EAE00C94B02D90916E0492FB222720F992
:10159000281771F080FB92F990936E0460916D04AE
:1015A00070916E0484E090E00E948B2E82E082C9EC
:1015B00008951F93CF93DF93962F122F632F8430BC
:1015C000D8F49830C8F44630B8F4C42FD0E0CC0F2B
:1015D000DD1F2CE0929FC00DD11D112490E6899F44
:1015E000C00DD11D1124CE0189960E94712E612F4C
:1015F000CE018A960E94712EDF91CF911F9108959E
:1016000080913C01813061F580916D0487FF28C095
:101610007EDC8093710140E250E065EC72E080E78F
:1016200091E00E94232E892BD1F080E2E0E7F1E0E7
:10163000A5ECB2E001900D928A95E1F7E091E50208
:10164000F091E602309759F00480F581E02D309753
:1016500031F086E08093700180E791E0099508956C
:1016600056DC8093680148E050E067EE72E088E65F
:1016700091E00E94232E892B91F388E0E8E6F1E0C7
:10168000A7EEB2E001900D928A95E1F7E091E502B4
:10169000F091E602309719F30280F381E02D309744
:1016A000F1F288E691E0DACF811531F090912204D1
:1016B000892B80932204A4CF0895811531F0909155
:1016C0002604892B809326049BCF0895CF93C82F9F
:1016D0008115C9F08CEF8C0F813A88F580913C011F
:1016E000813021F480916D0487FD0FC0EAE6F1E0BE
:1016F00080E791E02191C217F1F08E179F07D1F793
:101700008C2F96DB7DDFCF910895EC2FE695E69543
:10171000E695F0E0E059FE4F828190E04C2F477053
:1017200021E030E002C0220F331F4A95E2F7822306
:101730009323892B29F38C2FAFDB62DFE1CF80E28B
:101740008C0F883000F7C77021E030E001C0220F15
:10175000CA95EAF780912204822B80932204D2CF8B
:10176000CF93DF93EC01805E9109089720F06DE53F
:101770007BE0209711F464E57BE0CE010E94A0039A
:101780008C2FA4DFDF91CF910895811531F09CEF6C
:10179000980F913A18F480DB33CF089590E2980FB8
:1017A0009830D8F7877091E001C0990F8A95EAF7D1
:1017B000892F9BD8F1CF0F931F93CF93C82F8B0105
:1017C00085DF0115110531F48C2FDFDFCF911F91DB
:1017D0000F9108958FE99FE00197F1F700C0000095
:1017E00001501109EECF811511F07FD809CF08956E
:1017F000811539F0809590912604892380932604E1
:10180000FFCE08951092220480913C01813071F442
:1018100080916D0487FF0AC0E2E7F1E08EE1DF010D
:101820001D928A95E9F710922604EACEEAE6F1E0E5
:1018300086E0F5CFE7DF2FEF84E39CE02150804086
:101840009040E1F700C0000088E19AE00FB6F894FC
:10185000A895809360000FBE90936000FFCFAAE22E
:10186000B0E0E5E3FCE00C949B2D80EA91E0FC0104
:1018700001962091F100208321E0883A9207B9F780
:101880008091A101893009F457C0C8F4823009F46D
:10189000B2C0833009F482C0813081F18091E800C8
:1018A00083FFE6C08091A0019091A1019A3008F0D9
:1018B000DFC0E92FF0E0E855F14D0C94D72D8A30C8
:1018C00009F489C08B3051F78091A001813231F742
:1018D0008091A4019091A501892B01F78091E800E6
:1018E000877F8093E80053DC81E09091A201911101
:1018F00001C080E080933C0185DFD0CF8091A001C2
:10190000813A61F68091E800877F8093E8008091BA
:10191000A4019091A501892B59F060E080E090E04E
:1019200070E0DCDB8091E8008B778093E800B6CF35
:1019300068E088EA91E0F4CF8091A001813209F05B
:10194000ADCF8091A4019091A5018D7F892B09F0E5
:10195000A5CF8091E800877F8093E8008091E80020
:1019600082FF17C09091F3008091F200029731F44A
:101970008091F100813011F0863021F48091F100E6
:1019800080933B018091E8008B778093E800FFDB38
:1019900085CF80918C028111E1CF80CF8091A00111
:1019A000813A09F07BCF8091A4019091A501892B08
:1019B00009F074CF8091E800877F8093E8008091E0
:1019C000E80080FFFCCF80913C018093F100809182
:1019D000E8008E77DACF8091A001813209F05ECFE6
:1019E0008091E800877F8093E800D1DB8091A3019C
:1019F00080933A0153CF8091A001813A09F04ECFF4
:101A00008091E800877F8093E8008091E80080FF64
:101A1000FCCF80913A01D9CF803889F0823841F5E6
:101A20008091A4018F70873018F58093E900809130
:101A3000EB0085FB882780F91092E90006C08091B1
:101A40006B02880F90919D01892B9091E800977F00
:101A50009093E8008093F1001092F1008091E800EB
:101A60008E7723C0811116C08091A201813009F1C7
:101A70008091E80083FF0AC08091E800877F80930F
:101A8000E8008091EB0080628093EB00AA96E3E08F
:101A90000C94B72D823061F78091A201811581F0FD
:101AA0001092E9008091E800877F8093E8006FDB67
:101AB000DFCF81E0933009F080E080936B02F0CFBC
:101AC0008091A4018F702FEF280F263088F6809325
:101AD000E9002091EB0020FFE3CF933031F48091B7
:101AE000EB0080628093EB00DBCF9091EB00906184
:101AF0009093EB0021E030E0A90102C0440F551F94
:101B00008A95E2F74093EA001092EA008091EB0098
:101B10008860E8CF8111ACCF1091A2011F7780912E
:101B2000E3008078812B8093E3008091E800877F39
:101B30008093E8002CDB8091E80080FFFCCF80914F
:101B4000E30080688093E30083E0111101C082E02C
:101B500080938C028DCF8058823008F089CF80919D
:101B6000A2019091A3018C3D53E0950791F583E08C
:101B70008A838AE289834FB7F894DE01139620E0C6
:101B80003EE051E2E32FF0E050935700849120FFB4
:101B900003C082958F703F5F8F708A30C0F0895C80
:101BA00090E08D939D932F5F243161F74FBF80911B
:101BB000E800877F8093E8006AE270E0CE0101963A
:101BC0008DDA8091E8008B778093E80051CF805DBB
:101BD000E7CF292F33272330310509F44EC078F59C
:101BE0002130310509F488C08BE590E0EDEFF1E09C
:101BF0002230310509F03CCF2091E800277F209367
:101C0000E8002091A6013091A7018217930708F4FC
:101C10009C0140E02115310509F073C0411171C0EC
:101C20008091E80082FDCDCF80918C02811549F230
:101C3000853039F28091E80083FFF2CFC2CF8091E6
:101C4000A4019091A5012132310509F446C0223248
:101C5000310509F00DCF8330910508F009CFFC0163
:101C6000EE0FFF1FE55BFE4F0190F081E02D885BDA
:101C70009E4FDC018C9190E010C09C013327823094
:101C800021F12330310568F4232BB9F4E8EAF2E0BE
:101C9000E4918E2F90E0E8EAF2E0009709F4E8CEB4
:101CA000ABCF2330310509F0E3CEEAE6F2E0E49170
:101CB0008E2F90E0EAE6F2E0F0CFE6E9F2E0E49180
:101CC0008E2F90E0E6E9F2E0E8CFE8E8F2E0E49178
:101CD0008E2F90E0E8E8F2E0E0CF8330910508F045
:101CE000C7CEFC01EE0FFF1FEF5AFE4F0190F081AF
:101CF000E02D89E090E080CF82E190E0E8E5F2E03D
:101D00007BCF80918C02811509F45BCF853009F47B
:101D100058CF8091E80083FD54CF8091E80082FD88
:101D20007FCF8091E80080FF75CF9091F300809184
:101D3000F2002115310519F08830910550F041E08D
:101D4000089709F040E08091E8008E778093E800E2
:101D500061CF44914093F1003196215031090196B1
:101D6000E8CF803809F084CE8091E800877F8093A7
:101D7000E80080919E018093F10070CE811178CEB1
:101D80001091A201123008F073CE8091E800877F95
:101D90008093E80010939E01FAD91115D9F084E0E0
:101DA00080938C0242E061EC81E087DA42E261ECF0
:101DB00084E083DA42E261EC82E07FDA42E260ECC6
:101DC00083E07BDA80918C02843051F482E080934E
:101DD0003D014ECE8091E30087FDE1CF81E0E0CF71
:101DE00081E0F5CFCF93DF93EC014A855B856E856B
:101DF0007F8506D89B8190958091260489238093C6
:101E000026048C810E947504FBDB86E0FE011192A2
:101E10008A95E9F7DF91CF910895CF93DF93EC0195
:101E20008D8181FD16C082608D83809126049B8107
:101E3000892B80932604809122049C81892B809396
:101E40002204DEDB488559856E857F85CE010E94A0
:101E5000000710921104109210048D8180FD02C0C1
:101E6000CE01C0DFDF91CF9108951F93CF93DF9311
:101E7000182FA0918603B0918703109709F448C0EA
:101E8000109289031092880310920C0310920B0396
:101E90001696CD91DC911797CE019A9581159F41A9
:101EA00008F4D07ED1E0C11101C0D0E01996ED91C7
:101EB000FC911A97309731F01B966D917C9180E0E0
:101EC0000995D823D11539F08CEF8C0F813A20F584
:101ED0008C2F0E944C071115A1F0E0918603F09120
:101EE0008703808584FD0DC080918503811549F0AD
:101EF000808191819C01215031092F333E4708F4A4
:101F000099D87EDB10928703109286031092850386
:101F1000DF91CF911F91089573DB8C2F36DCDBCFDF
:101F2000A0E0B0E0E6E9FFE00C94952DEC0188819B
:101F3000811509F1813009F045C08981813051F462
:101F40008A81239660E570E0893311F060E070E0EB
:101F500032DCEDCF823021F48A812396B7DBE7CFE4
:101F6000833021F48A81239610DCE1CF843041F064
:101F700022968111DCCFCDB7DEB7E9E00C94B12D0C
:101F80008A81239620E030E09AE0682F6053770B37
:101F9000AB016A30710560F02115310551F3EFE9AD
:101FA000FFE03197F1F700C0000021503109F4CF74
:101FB000929FB001939F700D11249A01260F371F35
:101FC0008991E3CFE82FF0E0E358FE4FB490282F3B
:101FD00026952695269530E0F901E359FE4FE490C9
:101FE0008770F12C082E02C0F594E7940A94E2F76A
:101FF000E0FAEE24FF24E0F8F901E35AFE4FC49022
:10200000D12C082E02C0D594C7940A94E2F7C0FAE6
:10201000CC24DD24C0F8F901E35BFE4F049110E00D
:1020200002C0159507958A95E2F701701127E11412
:10203000F10411F081EE4ADBC114D10411F086EEF7
:1020400045DB60E070E08B2DB6DBC114D10411F0EC
:1020500086EE9BDBE114F10411F081EE96DB0115B5
:10206000110521F060E070E08CE2A5DB21965FCFE6
:10207000CF92DF92EF92FF921F93CF93DF9300D026
:1020800000D0CDB7DEB7C0909102D0909202E09020
:102090009302F09094020E94EE076C197D098E095C
:1020A0009F0911E0643671058105910578F10E9460
:1020B000FA07DC01CB010296A11DB11D89839A8329
:1020C000AB83BC8380912B0190912C018F559D4F48
:1020D00020912A01422F50E0253010F044E050E0DA
:1020E000BE016F5F7F4F0E94302E83E090E00E9420
:1020F0001E2D182F811551F00E94EE07609391025A
:10210000709392028093930290939402812F0F9088
:102110000F900F900F90DF91CF911F91FF90EF9054
:10212000DF90CF9008954F925F926F927F92AF921F
:10213000BF92CF92DF92EF92FF920F931F93CF93B4
:10214000DF93C82F7B01A42EB22ED32F6801FB0191
:1021500040805180628073800E94EE076419750987
:1021600086099709643671058105910510F4A1145B
:1021700029F10C2F0C2E000C110B88E0C802F00185
:102180001124EE5EFE4F818192818F559D4F2081FB
:10219000422F50E0C216D10408F4A6016B2D7D2F0A
:1021A0000E94302EC8010E941E2D811541F00E9410
:1021B000EE07F701608371838283938381E0DF916F
:1021C000CF911F910F91FF90EF90DF90CF90BF9034
:1021D000AF907F906F905F904F9008950F931F93F3
:1021E000CF93DF93D82FC92F44E050E066EA72E026
:1021F0000E94232E41E0892B09F440E004E010E026
:102200002D2F3C2F65E972E082E08DDFDF91CF91C9
:102210001F910F910895ABE0B0E0E1E1F1E10C9482
:102220009A2D28E0E9E1F4E0CE010196DC0101906D
:102230000D922A95E1F730911604209117045091E0
:10224000180439872A875B8741E09C01511101C03E
:1022500040E00BE010E06DE872E084E064DF8111A3
:10226000109218042B96E4E00C94B62D8F929F9256
:10227000AF92BF92EF92FF921F93CF93DF9300D064
:1022800000D00F92CDB7DEB77B0180E090E00E94D6
:102290001E2D182F811509F464C080911501482F57
:1022A00050E0811511F041E050E06091160170910D
:1022B00017016F557D4FCE0105960E94302E8090FC
:1022C0009D0290909E02A0909F02B090A0020E945A
:1022D000EE07681979098A099B0964367105810539
:1022E000910538F482EA92E00E9444099D818917A1
:1022F000C1F181E090E00E941E2D811509F43FC0DC
:1023000080911D01482F50E0853010F044E050E0EE
:1023100060911E0170911F016F557D4FCE01019696
:102320000E94302E82EA92E00E9444099D81891326
:1023300026C00E94EE0760939D0270939E028093D8
:102340009F029093A00289819A81AB81BC81809386
:10235000990290939A02A0939B02B0939C0281E011
:102360000FC08091A2029091A302A091A402B0910B
:10237000A50289839A83AB83BC831111E4CF80E0EB
:102380004091990250919A0260919B0270919C0237
:10239000F70140835183628373830F900F900F90F6
:1023A0000F900F90DF91CF911F91FF90EF90BF9012
:1023B000AF909F908F9008950F931F93CF93DF93CB
:1023C000843030F5683020F5463010F5C42FD0E069
:1023D000CC0FDD1F2CE0629FC00DD11D112430E613
:1023E000839FC00DD11D1124CE0189960E94502ECD
:1023F000082F10E0102F0027CE018A960E94502E41
:102400009801282BC901DF91CF911F910F91089559
:1024100080E090E0F8CF462F672F2091C1023091E5
:10242000C202232B81F4703F39F4403F61F4809164
:10243000BF029091C0020895783028F4463018F415
:10244000843008F4B9CF80E090E00895A0E0B0E0D7
:10245000ECE2F2E10C94972D7C010091250480912F
:102460002404082BC3E0D0E010E0C8010C2E02C009
:10247000959587950A94E2F780FD09C02197A8F702
:10248000D12C8D2DCDB7DEB7E7E00C94B32DDC2E2B
:10249000B7018C2FC0DF0E947805019779F3F1CF47
:1024A0000F931F93CF93FC018581008111818115CA
:1024B00081F0611571F0C801C9DFC82F682FC8010C
:1024C0000E94C703B8018C2FA6DFCF911F910F91F7
:1024D0000895C8010E94FD03C82FF4CFCF93DF9366
:1024E000D82FC92FB3DF6D2F7C2F95DF0E94780581
:1024F000DF91CF910895FC018481811599F080814D
:102500009181ECDF282F92959F70963099F060F4BE
:10251000925F9F70923030F4203FB1F038F481E048
:10252000283E38F080E008959A5FF3CF81E0243FA1
:10253000C9F7089591E0213F09F090E081E0283E3D
:1025400008F080E0892B089581E008950F931F9390
:102550008B019C01073B11402105310540F4CB0163
:10256000875B9D4F0E94502E1F910F91089580E030
:10257000FBCF85E290E00E94502E893189F486E2FB
:1025800090E00E94502E853259F487E290E00E943C
:10259000502E91E0813E09F090E0892F81700895DE
:1025A00080E0FCCFAAE0B0E0E8EDF2E10C94912DE0
:1025B000C0908A02D0908B0281E090E090938B02D1
:1025C00080938A02812C912CE12C5401F12C15C0AE
:1025D000F80125913491472D6F2D8E2D0E94D90A37
:1025E0000E5F1F4F739486E07812F2CF96E0A90E2B
:1025F000B11CF394E8E0FE1639F08501000F111FBD
:1026000004551D4F712CE4CFE394F0E38F0E911C21
:1026100084E0E812DACF1A8219821C821B821E82A1
:102620001D8218861F8284EB90E09A87898709EAC9
:1026300011E0FE0131967F014AE050E0B801C70188
:102640000E948F2E065F1F4F5701093FF1E01F07C1
:1026500099F789E0F70111928A95E9F78FEF9FEFDB
:102660009E838D8387E08A874AE050E0B801C501E8
:102670000E948F2E065F1F4F0934F2E01F07A1F75B
:10268000D0928B02C0928A022A96EDE00C94AD2D76
:10269000AAE0B0E0EEE4F3E10C94942D0DE013E039
:1026A00089EFE82EFF24F39497E0B92E26E5C22E99
:1026B00022E0D22EAA24A3944AE050E0B701CE0132
:1026C00001960E94402EF8013896DF018B2D1D9255
:1026D0008A95E9F789819A81D80111969C938E9306
:1026E0008F8112968C9312978D8113968C931397EA
:1026F000888514968C931497898515968C931597D5
:102700008B819C8117969C938E9316978A8587FD63
:1027100004C01E96DC92CE921D9780FF02C0F80185
:10272000A08681FF07C0D80118969C9118979260E7
:1027300018969C9382FF04C0F8019085946090875E
:1027400083FF07C0D80118969C9118979860189637
:102750009C9384FF04C0F80190859061908785FF69
:1027600007C0D80118968C911897806218968C93A0
:10277000BAE0EB0EF11C015F1F4FE9E4EE16E2E058
:10278000FE0609F099CF2A96EAE00C94B02D282F86
:10279000CB01283070F44AE0249F90011124B90144
:1027A00067557E4F4AE050E00E94402E80E090E066
:1027B00008958FEF9FEF0895AAE0B0E0E2EEF3E115
:1027C0000C949C2D9C0197558115914068F4BE0195
:1027D0006F5F7F4F822FDBDF892B31F489859A85EC
:1027E0002A96E2E00C94B82D84EB90E0F9CFA0E0BB
:1027F000B0E0EDEFF3E10C94972D162FD72FC42FF7
:10280000D22E8115A9F0409314040E947B07909367
:102810009C0180939B01C77081E001C0880FCA951D
:10282000EAF70E94540BCDB7DEB7E7E00C94B32D66
:1028300090911404491339C0E0909B01F0909C01E1
:102840000E947B079C012E193F097901812F9D2F42
:10285000B3DFE816F90648F5D0E2DD0DCD15A1F09D
:10286000C77011E0812F01C0880FCA95EAF70E9456
:10287000F30BD83048F48D2D877001C0110F8A9565
:10288000EAF7812F0E94540B60E070E0802F0E94D5
:10289000DB0BD83040F62D2D277081E001C0880F6A
:1028A0002A95EAF70E94F30BBECFC77081E001C002
:1028B000880FCA95EAF7F6CF0F93CF93DF93C9E15C
:1028C000D4E0488159816A817B8188E090E00E9450
:1028D000832E288139814A815B816C817D818E8143
:1028E0009F8100E20E94FF2D622F83E290E00E9410
:1028F000712EDF91CF910F910895E9E1F4E085E029
:10290000808311828FEF828388E783831482E6E1DC
:10291000F4E082818360828389E194E0CDCF80916D
:102920001D04833018F48F5F80931D0489E194E0C7
:10293000C3CF80911D04811519F0815080931D042F
:1029400089E194E0B9CFA0E0B0E0E9EAF4E10C94C9
:10295000912D182FD62FA42E722EB0901904B0FEF0
:1029600043C080911A04811308C080911B04861310
:1029700004C080911C04841729F08091180482609F
:1029800080931804EB2DE695E695F0E0E95AFE4FAA
:102990008081809316048B2D8C7F8430D1F4EA2DB6
:1029A00059E7C52EAC1408F0E8E7F0E0E45DFB4F12
:1029B000D1111FC0E491CE2F0E2F9E2EB0FE09C064
:1029C000F090020180910301F81608F483C00E9480
:1029D000910610931A04D0931B04A0921C04711446
:1029E00019F089E194E068DFCDB7DEB7EDE00C9433
:1029F000AD2DC12ED12C8D2E912CE491CE2F26E021
:102A0000129F700111242FEF30E0C701B9010E941D
:102A1000C32DCC0CDD1C45E5469FC001479F900DA2
:102A20001124C81AD90A8C2D880F8C0DA9014819B8
:102A300059094A01E89DA001E99D500D1124052F77
:102A4000D89FD0011124AB2FBB276901CA1ADB0A1A
:102A5000D601EA9F6001EB9FD00C1124D901A81B7D
:102A6000B109CD01D89FD001D99FB00D1124AB2F52
:102A7000BB27C9018A1B9B0BDC01EA9FC001EB9FAE
:102A8000900D1124992E63307105D1F0ACEFEA1648
:102A9000A3E0FA0658F461307105B1F062307105B7
:102AA00009F08CCFC52F092F9E2E88CF6430710579
:102AB00071F06630710509F481CF952E0D2D7ECF12
:102AC0009D2CC52F0E2F7ACF9E2ECD2D77CFC92FBF
:102AD000952EF8CF80910001BF2DB81B8B2F202F92
:102AE000492D6C2F90E00E94D406F3946BCF809117
:102AF000190480FF16C0837084608093190480914C
:102B00001804816080931804611519F089E194E03C
:102B1000D3DE20E040911C0460911B0480911A04D4
:102B200012CF089580911904869586958A9509F4A7
:102B300081E061E0DCCFE9E1F4E0818121E04381E3
:102B40006281865F00CFE9E1F4E0818121E0438189
:102B500062818A50F8CEE9E1F4E0628121E1620FFE
:102B600008F46FEF21E043818181EDCEE9E1F4E0EB
:102B7000628121E1621B08F460E021E043818181F0
:102B8000E2CEE9E1F4E0438121E1420F08F44FEFA6
:102B900021E062818181D7CEE9E1F4E0438121E146
:102BA000421B08F440E021E062818181CCCEACE0A0
:102BB000B0E0EDEDF5E10C948D2D7C01DC01149677
:102BC0008C91811509F488C161E0C70169DC8C0131
:102BD000F7018581811521F18091100490911104F4
:102BE0000097F1F008171907D9F0FC01FF27887F3B
:102BF0009927892B09F072C054E0EE0FFF1F5A95F8
:102C0000E1F7E057FC4F8581846085831183008361
:102C1000CF0103D91092260461E0C70141DC8C0189
:102C2000D70115968C91811509F4E2C0C801975718
:102C30008038910508F00DC1003108F03CC166EB09
:102C400071E080E090E082DC811135C1812C912C13
:102C50005401011146C004E09E012F5F3F4F6901FE
:102C6000D601E02F1D92EA95E9F724013501FFEF27
:102C70004F1A5F0A6F0A7F0AC501B40167DC8983B6
:102C8000811509F418C1813009F0AFC0A501940184
:102C90002E5F3F4F4F4F5F4F2D833E834F835887AB
:102CA000C301B20153DC182F8A83811509F403C1D3
:102CB0008FEF810F833070F56D817E818F819885D4
:102CC00045DC8B83811511F0C6012AD92401350119
:102CD00033E0430E511C611C711C4AC0E0E0F0E07F
:102CE00092CFB7EB8B16B1E09B06A104B10409F4B7
:102CF000E2C0C501B4012ADCEFEF8E1A9E0AAE0ACB
:102D0000BE0A8111EECF0150A4CF4D805E806F804E
:102D100078842EC08BEF810F833098F52401350124
:102D200043E0440E511C611C711C6D817E818F81BA
:102D300098850CDC8B838115D9F0C301B20106DCC8
:102D40008C83811571F08B819C8181305FEF9507B9
:102D500010F0982F8827163071F0173079F00E9404
:102D6000BE202401350134E0430E511C611C711C4E
:102D70005301420175CF0E946920F3CF0E948C203D
:102D8000F0CF143009F0C1CF6D817E818F8198859D
:102D9000DDDB182F2401350184E0480E511C611C35
:102DA000711CC501B4016D5F7F4F8F4F9F4FCEDB0C
:102DB000111509F480C0811509F47DC08150990B6B
:102DC0004FEF489F9001499F300D1124A12FA15032
:102DD000BB0B2A0F3B1F2150310950F2EFE9FFE0F6
:102DE0003197F1F700C00000F6CFC60199D8C0CFE7
:102DF000680127E5D21AC11431E0D30650F561E02D
:102E000073E08C2DC4DC892B21F5C60134E0880FDA
:102E1000991F3A95E1F7FC01E057FC4F22812130E0
:102E2000A1F52091010330910203232B91F0209111
:102E3000030330910403232B61F0209105033091AB
:102E400006034091070350910803242B352B232BB5
:102E500021F1D70115963C90311409F441C00E358B
:102E6000BCE71B0729F10F35ECE71E0741F00D35D4
:102E7000FCE71F07A9F580913E018115C9F010926A
:102E80003E0180E00E94350F16C0223011F72091DC
:102E9000050330910603232BE1F2FC01EB56FC4FB6
:102EA00020812E7F208380579C4F0E940D0FD1CF11
:102EB00081E080933E01809127048770811561F045
:102EC000D70115968C91811539F080916E0482FF9F
:102ED00003C082E00E945A042C96E1E10C94A92DD3
:102EE00080913E01811168C0C801975581159140BC
:102EF00008F0FEC05801F8EFAF22BB24A114B104C2
:102F0000D1F6F801FF2794E0EE0FFF1F9A95E1F745
:102F10009F0120573C4F6901D70115968C91EB56C4
:102F2000FC4F908180FB90F99083811509F4D9C101
:102F30000E947B079093130480931204F601828110
:102F40008F5F82838091260490912204892B838352
:102F50008091210484834681578166857785C601E7
:102F60000E940007D60115968C9181FF5801B092FE
:102F70001104A0921004D70115969C91911509F4A3
:102F8000DFC510921404980130572332310508F040
:102F9000E5C584E090E00E945D2E90936E048093DE
:102FA0006D04F801E150F047E232F10508F0E1C1AB
:102FB000EE54F14D0C94D72D380130EE631A7108A0
:102FC0005090230480912204582A80912104582A89
:102FD00048E06416710408F05EC09801277033273A
:102FE00081E090E001C0880F2A95EAF7311409F4D6
:102FF0004FC0582AD7018D919C910E94FD0321E07A
:1030000030E0F90102C0EE0FFF1F8A95E2F7FE8360
:10301000ED8320918603309187033A872987409179
:103020008E0350918F035C874B872DE0C22E23E0E7
:10303000D22EA12CB12C511005C0D60112968C9124
:1030400081111BC0F601838190E02D813E81822396
:103050009323892B91F08085982F9770911101C04F
:1030600087E038E06316710408F066C0311409F493
:103070005FC086958170811164C09FEFA91AB90A5B
:10308000AFE0CA0ED11CB8E0AB16B104A1F61CC06B
:1030900080955822AFCF311038C080918E03909127
:1030A0008F030817190781F410928F0310928E0373
:1030B00010928A0310928B0310928C0310928D034E
:1030C0001092890310928803809186039091870360
:1030D000009709F409CFE8E06E16710408F0EBC020
:1030E000652D0E94DF06811103C081E00E94350F2B
:1030F000F7018581F801E851FC47E730F10508F058
:103100003ACFEC52F14D0C94D72D10938F030093CE
:103110008E030E94EE0760938A0370938B03809363
:103120008C0390938D03109289031092880362CFD1
:1031300082FB882780F99FCF311409F49ECF80FF4E
:103140009CCFD6018D909C900815190519F4311467
:1031500009F493CFE985FA85EC15FD0509F48DCFC7
:10316000D6011D96ED91FC91309721F0808181155B
:1031700009F483CF652DC6010E94DF06811509F48D
:103180007CCF81E00815190509F080E0482E432026
:103190008114910441F0411006C0EB85FC858E1628
:1031A0009F0609F06ACF80E00E94350FD092870316
:1031B000C092860381E0809385038FE08A9DF001B1
:1031C0008B9DF00D1124E35FFC4F858180930C03F0
:1031D00041100EC08114910459F0808191819C01AD
:1031E00024503109213A310508F049C00E944C07AA
:1031F0008FE08A9DF0018B9DF00D1124E35FFC4F61
:10320000C680D780C6019A9581159F4110F420EEA3
:10321000D22299249394C60101978F339E4708F0D8
:10322000912C8FE08A9DD0018B9DB00D1124A35F5E
:10323000BC4F1996ED91FC911A97309731F01B967F
:103240006D917C9181E0099598229114A9F08FE00D
:103250008A9DF0018B9DF00D1124E35FFC4F868168
:1032600097810E94760380930B03C60148E06416A1
:10327000710440F40E941A080E94000B0AC00E94C8
:10328000C50BB6CF0497813A910548F48C2D0E9466
:103290001807411409F428CE0E94000B0CCE0E949E
:1032A000000B8FE39CE90197F1F700C000008C2D23
:1032B0000E94660BEECFDC012D913C9102171307A3
:1032C00041F4311009C01092850380E00E94350F4F
:1032D0000BCE311409F408CEFC01808585FD04CEA7
:1032E000F4CFF9014485558566857785C9010E942B
:1032F0000007D60115968C9181FF3DCEC6010E9434
:10330000F20E80911004909111040817190709F02A
:1033100032CE10921104109210042DCE06E221EE4E
:1033200041EE6AE17CE763DAC6CD07E225EE45EEC1
:103330006BE17CE7F8CF06E221EE40EE68E17CE746
:10334000F2CF07E225EE44EE69E17CE7ECCF06E23E
:1033500021EE42EE6CE17CE7E6CF07E225EE46EE99
:103360006DE17CE7E0CF08E221E045EE6EE17CE72D
:10337000DACF80916D04816080936D0460916D045B
:1033800070916E0484E090E00E948B2E0E94020CEB
:1033900092CD80916E04886080936E04EFCF80910F
:1033A0006D048260E9CF80916D048460E5CF8091E7
:1033B0006D048860E1CF80916E048160EDCF8091D3
:1033C0006E048260E9CF80916D048061D5CF8091D9
:1033D0006D048062D1CF80916D048064CDCF0E9456
:1033E000020C80916D048068C7CF80916D048C6061
:1033F000C3CF80916E048360CFCF80916D048E7FA8
:10340000BBCF80916E04877FC7CF80916D048D7F85
:10341000B3CF80916D048B7FAFCF80916D04877F98
:10342000ABCF80916E048E7FB7CF80916E048D7F7D
:10343000B3CF80916D048F7E9FCF80916D048F7D7F
:103440009BCF80916D048F7B97CF0E94020C80915F
:103450006D048F7791CF80916D04837F8DCF8091A4
:103460006E048C7F99CF80916D04992782FF93958C
:1034700090FB82F990FB83F97FCF80916E04982FA7
:10348000909590FB80F990FB81F986CF90916D0427
:10349000892F8F7B96FF80646FCF0E94020C9091E2
:1034A0006D04892F97FB87F9805866CF61E08EE025
:1034B00090E00E94712E62CF60E0F9CF90916D0490
:1034C000892F8F7E94FF806157CF90916D04892F53
:1034D0008E7F90FF816050CF90916E04892F877FFF
:1034E00093FF886059CF89E24BC389E234C3073721
:1034F000BCE71B0709F057C081E00E94B90375C003
:103500008272F801E052F847EB30F10508F047C04D
:10351000E552F14D0C94D72D8091190480FF0EC017
:103520008E7F8093190489E194E0C6D980911804B4
:103530008160809318040E949106BDCC81608093C5
:10354000190461E086958695D2DAB5CC811521F013
:10355000E9DAB1CC8115E1F361E081E0F5CF8115C5
:1035600021F0F1DAA8CC8115E1F3E5DAA4CC8115DC
:1035700021F0FCDAA0CC8115E1F3EDDA9CCC8115C9
:1035800021F00ADB98CC8115E1F3FBDA94CC8115AC
:1035900021F0CFD990CC8115E1F3C1D98CCC07377C
:1035A000ECE71E07F9F00837FCE71F0721F1980147
:1035B000205E32452032310518F5911139C00F7166
:1035C00081E090E09C0102C0220F331F0A95E2F7D0
:1035D0008901622F83E090E00E94712E802F0E946B
:1035E000A90369CC81E00E94AF0343E062E081E07F
:1035F0000E94310460CC82E0911509F47ECFF3CFB4
:103600009115B1F00A353CE7130709F4A8C008F09A
:103610007FC001305CE7150709F49FC003308CE7D9
:10362000180709F494C001159CE7190709F482C032
:10363000F7018581C080D180811509F494C0C6014D
:103640000E942612182F682FC6010E94C703B601D8
:10365000812F0E940B120E947805D82E192FD701B6
:103660001596AC9015971696BC90B2948FE0B82240
:10367000809127048770811509F1CA2CA114F9F0F3
:10368000892F807F803469F080E28D0D8830B0F022
:10369000892F807E803229F4B2E0DB1678F0B114F5
:1036A00069F080916E0482FF09C082E00E945A0492
:1036B000809127048770CC24C3948111C12C812F61
:1036C00082958F70883009F439C108F051C082307A
:1036D00008F460C0825F8F70823008F493C0C11418
:1036E00009F45BC18091270480FD57C1D70115966D
:1036F0001C928695869586950E94AF03C70157DA7E
:10370000809127048695869586950E94B90345C1C8
:103710000B35ACE71A0729F180916E04002482FF73
:103720000394802D0C35BCE71B0709F081CF0E9464
:10373000C30A7ECF0E94020CEFEFF4E32CE0E150CD
:10374000F0402040E1F700C000000E945B086FEFEE
:103750007FEF80E090E00E948B2E0E941A0C81E0A7
:10376000E6CF80E0E4CFC6010E94FD03182F6FCFA3
:10377000893009F456C18A5F8F70823008F0AFCF6C
:10378000E2EFDE125FC1812F8F71A11058C10E943C
:10379000AF0301C1012F0F70103110F00295007FAF
:1037A000A114B9F0011569F080E28D0D883010F098
:1037B000D11009C080912204802B809322040E94A2
:1037C000000B8D2D42C080912604802B809326040F
:1037D000F6CF8D2D0E94C50B011509F480CF80E234
:1037E0008D0D883010F0D11004C0802F0E94750418
:1037F00006C00095809126048023809326040E94B1
:10380000000B6DCF012F0F70107F103211F0029559
:10381000007FD11451F0F1E0DF1609F46EC0A1145D
:1038200009F47AC0B114F9F0CCCF80916E0482FD16
:1038300016C0A11469F0011539F080912204802B83
:10384000809322040E94000B80E00E94660B47CF09
:1038500080E00E94C50B011509F441CFC6CFA11429
:1038600071F1B11004C0802F0E94540B38CF21E0B9
:10387000B21211C010912104802F8123081709F47E
:103880002ECF0E947B0790932B0480932A04102B49
:103890001093210424CF35E0B31221CF802F0E9452
:1038A000540B802F0E94D90780912304902F9823D6
:1038B000091709F414CF802B8093230410CFB11083
:1038C00012C0802F0E94F30B802F0E94D907809195
:1038D0002304902F9823911509F401CF0095082314
:1038E00000932304FCCE41E0B412F9CE809122046F
:1038F0008023811509F4F3CEE4CFA11429F056E01A
:10390000B51608F0ECCEAFCF85E0B81608F0E7CEDC
:10391000802F0E94F30BE3CEB114D1F399E3D912B7
:1039200009C0AFEFB7EEE3E0A150B040E040E1F7EF
:1039300000C000008D2D0E94C50BD1CE812F837059
:10394000811138C0A11027C04D2D42954695477072
:10395000440F440F8D2D8F70042E01C0880F0A94E0
:10396000EAF72D2D2071D4FE07C02FE030E001C012
:10397000220F4A95EAF72095169516951370123086
:10398000A1F0133081F030912404113059F0822BD2
:1039900083230E94A9030E94050760E0C7010E94DB
:1039A00050129ACA832B822BF4CF822B909124043D
:1039B0008927EFCFA11451F110FFEDCF4D2D429586
:1039C00046954770440F440F8D2D8F70042E01C013
:1039D000880F0A94EAF72D2D2071D4FE07C02FE03E
:1039E00030E001C0220F4A95EAF72095169516950A
:1039F0001370123089F0133069F0309125041130C2
:103A000041F0822B83230E94AC03C5CF823018F291
:103A1000D5CF832B822BF7CF822B9091250489273A
:103A2000F2CF1F70A11439F0812F0E94AF038D2DAA
:103A30000E94540BB0CF8D2D0E94F30B812F0E945A
:103A4000B903A9CFF3EFDF1680F420EFD216E1F02F
:103A500031EFD316A1F0A11409F460C0B11409F438
:103A60005AC08D2D0E94660B96CF43EFD416F1F00D
:103A700054EFD512F0CF80916E0482FD23C0812FC8
:103A80008F71A114E1F283CEA11469F085E0B8161C
:103A900008F081CF1F7181E090E0012E01C0880FF6
:103AA0000A94EAF7BACF96E0B916F2CF80E0A114F3
:103AB00009F4A9CF1F7181E0012E01C0880F0A947B
:103AC000EAF7A1CFA114C1F0809127048770843058
:103AD00049F4109227041092290410922804812F8F
:103AE0008F71ADCFA5E063E0BA1608F054CF812FF7
:103AF0008F710E94C5074FCFB5E0BB1640F0109202
:103B00002704109229041092280464E0F0CF81E089
:103B10000E945A0440CF812F8F7139CEB114F9F22F
:103B2000E9E3DE1209C0FFEF27EE33E0F150204059
:103B30003040E1F700C000008D2D0E94C50B2BCF57
:103B40000631BCE71B0709F0D2CC80911504811522
:103B500009F4CBCC85E30E944C079ECB80912204D4
:103B60000631ECE71E0709F0CBCC8A7A91E081118F
:103B700001C090E090931504811509F4B4CC85E35D
:103B80000E94180789CBA0E0B0E0E9ECFDE10C94BD
:103B9000972D80916C04803108F049C080916B04AE
:103BA000811509F444C0C0912D0487E0D82E80917E
:103BB0002C048C17E1F1EC2EF12CDC9EE001112499
:103BC000FE01E25DFB4F84818115B1F1918180910D
:103BD0006704981331C090818091660498132CC0BB
:103BE0008581811129C0028113818091680490919F
:103BF0006904081B190B60E086E694E00E945012ED
:103C00000E94DC1308171907B8F480916C048F70B8
:103C1000806180936C04CC5CDB4F88818F70806105
:103C2000888386E694E00E94D7150E945004CDB7A1
:103C3000DEB7E7E00C94B32DE7012196C770B7CF4C
:103C4000ADE0B0E0E6E2FEE10C948F2D8C0186E061
:103C5000F801DE01189601900D928A95E1F7F801BE
:103C6000F580E48086E6882E84E0982E80916A04B0
:103C7000811117C0E11491F0F11409F455C1C80184
:103C80000E947B12811509F44FC187E0F801A6E676
:103C9000B4E001900D928A95E1F775DFFF24F3946B
:103CA00061C0A280B380D0906B0480916804909131
:103CB00069043501681A790AD11409F4F0C0C0808A
:103CC000518060E086E694E00E9450120E94DC136E
:103CD0006816790608F09EC0E11401F3809167042C
:103CE000F8019181E0906C04F0E1EF1608F05BC000
:103CF000981317C090916604F8018081981311C041
:103D0000F1104BC08E2D8F70806180936C0486E61D
:103D100094E00E94D71580916C04F8018683F12C01
:103D200021C0F1103AC040E0652D8C2D0E94E709BA
:103D300040E0652D8C2D0E94E709F82E8111EFCF10
:103D4000888599850E946E12292F22952F709034B4
:103D500070F49F702230A0F09115B1F0F8019681B7
:103D6000903190F48F2D2D96EFE00C94AB2D2A5FBF
:103D70002F70223068F0C8010E94D715FD2CF2CFB9
:103D8000911511F0811571F3805E883058F3F3CFEF
:103D9000803F40F3815F8330F9CF80916C04816074
:103DA00080936C04BCCF981315C090916604F80101
:103DB000808198130FC0F1100DC0E682C8010E94E7
:103DC000D71587E0F801A6E6B4E001900D928A9538
:103DD000E1F764CFC8010E947B12811509F4A4C0E9
:103DE000F11409F4A1C080916C04803208F44DCF25
:103DF00080916604909167049A838983BC82AB8228
:103E000080916A048D831E82EF82CE0101960E940A
:103E1000D7153BCFD0906C04F0E1DF1650F486E666
:103E200094E00E94D71587E0F40111928A95E9F792
:103E300076CFE11409F432CF90916704F8018181C3
:103E4000981311C090916604808198130CC0F110F2
:103E50000AC0D682C8010E94D71587E0F4011192EA
:103E60008A95E9F71BCFC8010E947B12811509F4DE
:103E70005BC0F11409F458C080916C04803208F4DE
:103E800004CF80916604909167049A838983BC82F1
:103E9000AB8280916A048D831E82DF82B6CF60E0A0
:103EA00086E694E00E9450120E94DC1368167906A0
:103EB00008F0B9CFE11409F4F1CEF114A9F1909111
:103EC0006704F8018181981325C090916604808170
:103ED000981320C08091680490916904A81AB90AC7
:103EE000F4EBAF16B10408F06CCF80916C0480FD48
:103EF00068CF803108F465CFF8018683982F907FD2
:103F0000903F09F45BCF982F907F905F8F70892B43
:103F1000868354CFC8010E947B128111B6CE809156
:103F20006C04816080936C04C8010E94D715B6CEE2
:103F3000ABE1B0E0EEE9FFE10C949A2D4E8B5F8B84
:103F4000688F798F8A8F192F9B8F91111092260479
:103F50001D8A86E0FE017696DE011F9601900D9285
:103F60008A95E1F70A8D80916E0482FF1FC00E943E
:103F70007B072091280430912904821B930B8838F9
:103F8000934138F08091270482FD03C082E00E94B3
:103F90005A040E947B0720912A0430912B04821B33
:103FA000930B8838934110F00E947D04011561F055
:103FB0000B8B1C8B61E0CE010F960E94501261E0CA
:103FC000CE010F960E9450120B8B1C8B87E0FE01D6
:103FD0003F96DE01189601900D928A95E1F7CE0189
:103FE00008962EDE811110C020912C0430912D04F2
:103FF00087E0FE013896DE01119601900D928A95B8
:10400000E1F78C8581110BC017E080912D04909110
:104010002C0489132BC06B96E4E00C94B62D822FF0
:1040200090E00196877099273817190671F40E945D
:10403000020C10922C0410922D0487E0E6E6F4E0C6
:10404000DF011D928A95E9F7DFCF97E0929FD001BB
:104050001124A25DBB4FFE01319601900D929A95FD
:10406000E1F780932C040E945004CECF189FC0012A
:104070001124825D9B4FE4DD811569F280912D044E
:1040800090E001968770992780932D04BECFA6E01B
:10409000B0E0EDE4F0E20C949A2D0E947B078C01D5
:1040A0008091C3029091C4028017910771F0198228
:1040B0001A820E947B07BC0149815A8180E090E00E
:1040C00037DF1093C4020093C3022696E4E00C94F9
:1040D000B62DA6E0B0E0EFE6F0E20C949C2D9C013A
:1040E0009093C0028093BF02211580E2380738F414
:1040F000C9010E94B00B2696E2E00C94B82D80EF27
:1041000089838A830E947B078160BC0149815A812F
:1041100081E091E00DDFEFCFA6E0B0E0E2E9F0E270
:104120000C949A2D8C019093C0028093BF020115CC
:1041300080E21807B0F4802F0E94C50BC801805E92
:104140009109089728F068EF7BE00115110511F43B
:1041500063EF7BE0C8010E94A0032696E4E00C9484
:10416000B62D80EF89838A830E947B078160BC0122
:1041700049815A8181E090E0DBDEEFCFCF93DF937E
:10418000D82FC92FA6DF8D2F9C2FC6DFDF91CF91AF
:1041900008950F931F93CF93DF938C01862F61E0D7
:1041A00073E00E94C713892B91F4C0910103D09151
:1041B0000203209761F0F8018281833039F4CE0147
:1041C000DDDFCE01DBDFCE01D9DF01C0E0F7DF911B
:1041D000CF911F910F9108950F931F93CF93DF936A
:1041E0008C01EB0161E073E08C2F0E94C713892BD7
:1041F00009F057C0FE01FF27D80112968C91129743
:10420000E95AFD4F8130A9F415968C9182FD4EC07C
:1042100080FF4CC082E0808380910303909104036F
:104220000097B9F480910103909102030097C9F1BE
:1042300010C08230A1F515968C9182FD26C080FDBC
:104240000AC083E080838091050390910603009764
:10425000F1F03FDF26C084E08083809107039091D6
:1042600008030097B1F78091010390910203009732
:1042700001F184DF8091030390910403009749F7D3
:104280008091010390910203E4CF85E080838091C7
:10429000010390910203009721F070DFF1CF86E0D7
:1042A0008083DF91CF911F910F91089581E08083EA
:1042B000B9CF8091030390910403B8CF0F931F935C
:1042C000CF93DF938C01EB0161E073E08C2F0E94B0
:1042D000C713892B71F4DD27C95ADD4F8881F80196
:1042E000128218828330E9F048F4813059F082302C
:1042F00081F0DF91CF911F910F9108958430B1F03B
:104300008530B9F78091010390910203009789F3FA
:1043100006C08091030390910403009799F3FCDE9B
:10432000E8CF8091050390910603F7CF80910703B2
:1043300090910803009799F72091010330910203AF
:10434000809103039091040321153105F9F2009740
:1043500031F7C901E4CFA3E1B0E0E1EBF1E20C9465
:104360008D2DFE013C9688E0DF011D928A95E9F7CC
:1043700089E5E82E81E0F82E8F019DE5692E91E018
:10438000792E2F01AA24A394B12C33E6832E31E099
:10439000932EF70181917F018F3F09F43EC0F8947D
:1043A000E82FE295EF70F0E021A18F70A50102C027
:1043B000440F551F8A95E2F7CA01922F982B91A3BB
:1043C00092A18095892382A3789400C0EDE5F1E065
:1043D00031E0312C21912F3F79F0A22FA295AF70BF
:1043E000A05EB0E08C9190E02F7002C0959587950B
:1043F0002A95E2F780FF87C080E0382A330F8E16B7
:104400009F0641F7F70182918F3F11F00E946306EA
:1044100050EA5A95F1F7D8013C920F5F1F4F6E1486
:104420007F0409F0B6CF48E050E0B2018FE592E09A
:104430000E94232E6C01892B41F088E0F201AFE548
:10444000B2E001900D928A95E1F70091680210E0C8
:104450000E571D4FC114D10409F457C081E0809359
:1044600099010E947B079093980180939701809116
:10447000B902FE0131967F01811509F4A1C084E0E3
:10448000DF011D928A95E9F780919A018A3008F040
:1044900060C046E351E1B701C8010E94890A811555
:1044A00009F47CC04EEE50E1B701C8010E94890AB0
:1044B000811509F473C048E350E1B701C8010E94B7
:1044C000890A811509F46AC04BE051E1B701C801BE
:1044D0000E94890A811509F461C010929A018091A5
:1044E000670290E044E050E0B7018E579D4F0E9474
:1044F000232E21E020939601892B09F041C0639679
:10450000E1E10C94A92D832F78CF80919901811539
:1045100009F4ADCFE0909701F09098010E947B07DD
:104520008E199F09059708F4A2CF44E050E06FE58B
:1045300072E0C8010E94232E892B41F084E0EFE550
:10454000F2E0D80101900D928A95E1F7109299015D
:104550008ECFC0909401D09095010E947B078C195A
:104560009D09843F914008F094CF80919601811578
:1045700031F284E0F70111928A95E9F710929601E1
:10458000E0916702F0E0EE57FD4F89819A81AB819F
:10459000BC8180839183A283B383B1CF80919A0140
:1045A0008F3F39F40E947B0790939501809394018B
:1045B000DCCF8F5F80939A018A3008F490CFF2CFDE
:1045C000C0906702D12C96012E573D4F6901F8012A
:1045D00080819181A281B3818093A2029093A302F2
:1045E000A093A402B093A50282EA92E00E9444093B
:1045F0008093A1028091A6029091A702A091A802A7
:10460000B091A902F60180839183A283B383809045
:10461000AA029090AB02A090AC02B090AD02809143
:10462000900190919101A0919201B091930188160F
:104630009906AA06BB06B1F0809290019092910172
:10464000A0929201B09293010E94EE07861A970AF7
:10465000A80AB90A8092BB029092BC02A092BD0245
:10466000B092BE028BE0EEEAF2E0D70101900D922B
:104670008A95E1F70091AF02F090B002E090B102AC
:104680001091B8021092B802111509F438CF10FF3A
:104690000DC089819091190480FF11C091609093A1
:1046A000190460E0869586950E94771511FF27CF43
:1046B00020E04E2D6F2D802F0E94A31420CF9E7FCF
:1046C00090931904809118048160809318040E94CB
:1046D0009106ECCFA0E1B0E0E0E7F3E20C948E2D80
:1046E000FE01319680E1DF011D928A95E9F70CE128
:1046F00010E099E4A92E92E0B92E27EB422E552422
:104700005394612C712C4F0173016201B1E14B167E
:104710005104610471041CF080E1C82ED12CA60163
:10472000B501C4010E94622EAC0CBD1C0D2C000C06
:10473000EE08FF084C185D086E087F080150104015
:1047400019F76096E0E10C94AA2D6FEF85E290E0F6
:104750000E94712E6FEF86E290E00E94712E6FEF43
:1047600087E290E00E94712E60E088E290E00E9473
:10477000712E0E94D212AEDF69E185E290E00E94C4
:10478000712E65E286E290E00E94712E61EE87E272
:1047900090E00C94712E8F929F92AF92BF92CF9225
:1047A000DF92EF92FF920F93CF93DF9388E090E038
:1047B0000E94582E4B015C01C9E1D4E068839982C4
:1047C000AA82BB821C821D821E821F8283E290E02D
:1047D0000E94502E282F30E040E050E060E070E072
:1047E00080E090E000E20E94E42D282939294A293E
:1047F0005B29288339834A835B836C837D838E8323
:104800009F83DF91CF910F91FF90EF90DF90CF903A
:10481000BF90AF909F908F900895CDB7DEB7AC97C3
:104820000FB6F894DEBF0FBECDBF85B7806885BFD9
:1048300085B7806885BF84B7877F84BF0FB6F8943B
:10484000A89580916000886180936000109260005C
:104850000FBE80E890E00FB6F894809361009093CB
:1048600061000FBE81E080933D0181E696E0909368
:104870006701809366010E94BA060E9448130E9455
:1048800017090E948D098091E20084608093E20004
:10489000789480918C02811599F08091E9001091B3
:1048A000EC008F70179511271795182B1092E900BF
:1048B0008091E80083FD0E942F0C1F701093E90087
:1048C00082E084BD93E095BD9AEF97BD80936E0022
:1048D0001092BB021092BC021092BD021092BE0256
:1048E0000E94B912811101C030DF8091D80080612F
:1048F0008093D8002AE12A95F1F700C08091D90071
:10490000182F117080FD04C00E94170910928C02AC
:104910001093B9021093BA0210930501111509F40E
:104920009DC0109200018BE180930101A2D780917C
:1049300005018091050191E08927880F880F8093F8
:10494000680294E0981B9093670284E90E946306D2
:1049500086E60E94630687E90E94630686EC0E9451
:1049600063060DE511E0D8018D918D018F3F11F0A7
:104970000E946306B1E003361B07A9F788E0E2E86E
:10498000F2E0DF01282F1D922A95E9F7EFE5F2E02A
:10499000DF011D928A95E9F780E090E00E945D2E8C
:1049A000833E9E4F21F40E94B91281112AC063EE0A
:1049B0007EEF80E090E00E948B2E60E082E090E04D
:1049C0000E94712E81E08093240461E083E090E0F6
:1049D0000E94712E60E074E184E090E00E948B2ED2
:1049E0000E947D14B2DE40E050E0BA018FE090E01A
:1049F0000E94832E40E050E0BA0183E190E00E94E3
:104A0000832E82E090E00E94502E80936C0284E01E
:104A100090E00E945D2E90936E0480936D049BDC69
:104A2000EFEFF6E721E0E150F0402040E1F700C071
:104A3000000091DCE091BA0281E0E827EE0FEE0F72
:104A4000F0E0EE57FD4F808181FF0EC06FEF7FEFEA
:104A500080E090E00E948B2E0E945B088BE18093A7
:104A600000018093010163CF83E090E00E94502E0B
:104A70000E94A90380916902811121C089E194E01B
:104A80008ADE809118048360809318048091190451
:104A9000843028F40E947D1489E194E07CDE0E9439
:104AA0007C060E94D2068091190480FF05C060E058
:104AB000869586950E94771581E0809369028091A2
:104AC000B902811101C0D8D686E091E09093E60248
:104AD0008093E50280918C02853049F480918C02AC
:104AE000853009F44EC00E94020C0E94050733DC99
:104AF0000DE612E042E8E42E42E0F42ED701F80180
:104B000091918D9122E0E537F20709F46EC0981774
:104B1000B9F38090B902D12CD701CD907D01F80175
:104B200091908F019C1431F19C24B12CAA24A39460
:104B30008A2D89218115B9F08114A9F0B982DA8210
:104B40000E947B079C838B83F1E0FD8391E08A2D9B
:104B50008C21811101C090E09E8349815A816B8133
:104B60007C818D81E5D9B394AA0C26E0B212E0CF06
:104B7000F801C292D39438E0D312CECF0E94FA0744
:104B800037C080918C02843021F110926A0288E152
:104B900090E0A0E40FB6F894A895809360000FBE53
:104BA000A093600083B7817F846083BF83B78160F7
:104BB00083BF7894889583B78E7F83BF0FB6F894B0
:104BC000A8958091600088618093600010926000D9
:104BD0000FBEC1DBE2E8F2E0819181115AC42AE8FC
:104BE00032E02E173F07C1F779CF981392CF4FDAF3
:104BF0008091B902811509F467C000918803109172
:104C000089030115110591F1C0907902D0907A02C3
:104C1000E0907B02F0907C020E94EE076C197D0907
:104C20008E099F09C0907502D0907602E0907702BD
:104C3000F09078026C157D058E059F05B8F0C801CF
:104C40000E94B00B1092890310928803109279028F
:104C500010927A0210927B0210927C0210927502DE
:104C6000109276021092770210927802E09010046F
:104C7000F0901104E114F10439F1C0901204D090C5
:104C800013040E947B078C010C191D09C7010E94A7
:104C9000DC1380179107C0F42091100430911104A7
:104CA000C9019927287F3327232B09F04FC034E00F
:104CB000880F991F3A95E1F780579C4FDC011596B4
:104CC0002C9122FF0E940D0F0E94050790917D02FA
:104CD000891721F080937D020E94EE0780918C025B
:104CE000843009F0F7CE83E08093E9008091E800FA
:104CF00082FFF0CE8091E80090E085FF05C00E9421
:104D0000E608811531F191E08091E8008B7780937E
:104D1000E800911509F4DECE0091C1021091C202A3
:104D2000E9810115110589F1EE3F09F050C08A8132
:104D3000833020F08550833008F049C0EA81EE309E
:104D400008F045C0F0E0EA51F14D31C780E090E055
:104D5000B5CF00E210E0FE0131967F018091E800BE
:104D600085FD0AC08091E8008B778093E8000E945F
:104D7000E608811599F3C7CF8091F100D7018D9393
:104D80007D010150104051F7BECFE43148F4E115E8
:104D900049F0E150E33130F4F0E0EC50F14D07C759
:104DA000EE3F61F28FEF898312C01A8289E08B8314
:104DB0000EC08A81823081F08330B1F0813091F76A
:104DC0000E94EE07FAD66B837C838D839E83CE018F
:104DD00001960E9436097ECE88E290E061D71B8260
:104DE0001C821D828E83F3CF80918A0290918B0268
:104DF000892B69F388E0E2E8F2E0DE011396019086
:104E00000D928A95E1F7E3CF8A81823059F66B8162
:104E10007C818D819E81D1D688E290E062D7D7CF08
:104E20004C816B818A810E94DC1198278927982701
:104E30009E838D83CCCF2D813E813227232732273D
:104E40004C816B818A810E94D90AC1CF0E94D21203
:104E5000BECF8A818238A9F1C8F4803801F1813847
:104E600009F0B5CF60E08B810E9477159B8180911E
:104E7000190491111DC08E7F80931904809118042C
:104E80008160809318040E949106A1CF833809F0B5
:104E90009ECF20E040911C046C818B8106C020E0F5
:104EA0004B8160911B0480911A040E94A3148FCF40
:104EB00081608093190460E0869586950E9477153D
:104EC00086CF8B8180931D0482CF8A818238E1F066
:104ED00060F48038A1F0813809F079CF809119040D
:104EE00080FF10C08695869562CF833809F06FCF1A
:104EF00080911A048B8380911B048C8368CF8091EE
:104F00001C0455CF80E053CF80911D0450CF0E94E8
:104F10007C0689E194E00E945C1459CF80E18A8389
:104F200056CF81E08A8387EB42CF8C818D3108F0A8
:104F30004ECF8A809B80982489249824A12CB12C60
:104F40008E010F5F1F4F7801E80EF11CE016F1068D
:104F500009F43DCF80E0B7EB8B16B1E09B06A104CE
:104F6000B10420F4C401875B9D4F9AD6F801848375
:104F70000F5F1F4FFFEF8F1A9F0AAF0ABF0AE6CFDE
:104F800080918A0290918B02892B09F420CF8C8129
:104F90008D3108F01CCF882E912CA12CB12CCA8009
:104FA000DB80DC24CD24DC24E12CF12C8E010F5F8E
:104FB0001F4F412C512C3201481459046A047B04C0
:104FC00008F005CF27EBC21621E0D206E104F10478
:104FD00038F4D80114966C91C601875B9D4F81D639
:104FE000BFEF4B1A5B0A6B0A7B0AEFEFCE1ADE0AA1
:104FF000EE0AFE0A0F5F1F4FDFCF6CDBE8CE84E0C6
:105000008ECF8C818D3108F0E2CE882E912CA12C90
:10501000B12CCA80DB80DC24CD24DC24E12CF12CF3
:10502000412C512C32018E010B5F1F4F4814590443
:105030006A047B0408F0CBCE80E0F0E8CF16F1E004
:10504000DF06E104F10418F4C601899629D6D801D7
:105050008D938D01BFEF4B1A5B0A6B0A7B0AEFEF52
:10506000CE1ADE0AEE0AFE0AE1CF2C81022F10E0F2
:105070002D3108F0ACCE8A819B819827892798270B
:105080002C01612C712C8038F1E09F0708F09FCE35
:10509000822E912CA12CB12C40E851E060E070E010
:1050A00044195509660977094217510561057105CB
:1050B00008F48DCE20918A0230918B02232B09F0C7
:1050C0003EC01C0129E2220E311C80FBEE24FF248D
:1050D000E0F880FF0BC08896E3D59D81892798274B
:1050E000892781159C4711F48FEF8D83D501C40169
:1050F000840D951DA61DB71D80FF19C0680181E0B4
:10510000C81AD108DE011596AC0DBD1DBCA7ABA712
:10511000C101800F911FC4D5EBA5FCA5908181151D
:105120009C4721F48FEFABA5BCA58C938601FE01B3
:105130003196EE0DFF1D2FEFE016F10638F08E01CF
:105140000F5F1F4FC12CD12C760125C09481858122
:1051500081159C4711F42483258332E0E30EF11C72
:105160003296EACF80E8481681E05806610471045F
:1051700030F4D80114966C91C2018996B2D5BFEF74
:10518000CB1ADB0AEB0AFB0AEFEF4E1A5E0A6E0A35
:105190007E0A0F5F1F4FC814D904EA04FB0410F302
:1051A00016CE80918A0290918B02892B09F40FCE42
:1051B000CE0101960E943609FFEF21EE34E0F15056
:1051C00020403040E1F700C0000046CC88E0EFE32B
:1051D000F1E0DE01919601900D928A95E1F7FE01D2
:1051E00032968FE1DF011D928A95E9F786E0898387
:1051F00088E07F96DE01159602CE84E8898381E0FF
:105200008A831B821C82E3CD8B819C81092E000C3A
:10521000AA0BBB0B25E0880F991FAA1FBB1F2A955D
:10522000D1F7AC01BD01405E5F4F6F4F7F4F481714
:1052300059076A077B0708F4CACD8438E1E09E0766
:10524000A105B10508F0C3CD4538F1E05F07610560
:10525000710520F044E851E060E070E0481B590B14
:10526000BC01645D7A4FCE010196E4D4B0CD4AE131
:1052700050E06FEF70E0CE010796FBD480918A0278
:1052800089830A831B821C821D8281E0ABCD81E071
:1052900090E09093C2028093C10282E390E09093E9
:1052A0008102809380020E947B0790937F0280930B
:1052B0007E028DCD0115110571F1D0908202E09032
:1052C0007E02F0907F020E947B078E199F0985362F
:1052D000910540F1D1FE26C0D0FE24C00E947B077C
:1052E00090937F0280937E02809180029091810250
:1052F00001979093810280938002892B61F4109230
:10530000C2021092C10281E090E090938B028093E0
:105310008A0200E010E080918A0289830A838091EA
:10532000800245CD82E390E09093810280938002D9
:10533000F2CF10928B0210928A0249CD40E250E0E7
:105340006FEF70E0CE01019694D441CD8B81823015
:1053500009F44DC060F4811133C0FE0132968FE133
:10536000DF011D928A95E9F788E0898320CD853099
:1053700009F472C0863009F02ACD1C818AE0FE0152
:105380003596DE01919601900D928A95E1F78BA1F9
:105390009CA10E94AB069CA38BA38FEF183060F4F6
:1053A000FAE01F9FB001112467507E4F4AE050E0A1
:1053B000CE018196B4D480E089830E94481307CD42
:1053C0008C819AE0F92E8E010F5D1F4FF8012F2D71
:1053D00011922A95E9F7B8010E94C7138983F80151
:1053E000DE01129601900D92FA94E1F7F0CC1C8147
:1053F0008AE0FE013596DE01919601900D928A9524
:10540000E1F789A19AA10E94AB069AA389A38BA177
:105410009CA10E94AB069CA38BA38DA19EA10E9480
:10542000AB069EA38DA38FA198A50E94AB0698A75B
:105430008FA38FEF183060F43AE0139FB00111246E
:1054400067557E4F4AE050E0CE01819668D480E0F7
:1054500089830E94BA06BBCC2C816AE0CE0181967A
:10546000DC01E62F1D92EA95E9F7283080F4629F6F
:10547000B001112467507E4F4AE050E001D480E033
:1054800089838AE0FE01B196DE011296B8CC8FEFD7
:10549000F7CF80916B02811509F420CB30E139BD43
:1054A00082E189BD09B400FEFDCF8091D8008F7DD7
:1054B0008093D8008091E00082608093E00080912A
:1054C000E00081FDFCCF0E94020C08CB1F921FB6AA
:1054D0001F9211248F939F93AF93BF9380916A0281
:1054E000811113C08091B0019091B101A091B201DE
:1054F000B091B3014196A11DB11D8093B00190936D
:10550000B101A093B201B093B301BF91AF919F914C
:105510008F911F901FBE1F90189578941F921FB6F1
:105520001F9211248F939F93AF93BF938091B001EB
:105530009091B101A091B201B091B3010196A11D6A
:10554000B11D8093B0019093B101A093B201B093CB
:10555000B301BF91AF919F918F911F901FBE1F907C
:1055600018951F920F920FB60F9211242F933F930D
:105570004F935F936F937F938F939F93AF93BF935B
:10558000EF93FF938091E10082FF09C08091E200D8
:1055900082FF05C08091E1008B7F8093E1008091C4
:1055A000DA0080FF24C08091D80080FF20C0809165
:1055B000DA008E7F8093DA008091D90080FFA9C045
:1055C00080E189BD82E189BD09B400FEFDCF81E0A3
:1055D00080938C0280919F01811109C00E9417095C
:1055E0000E948D098091E20084608093E2008091A6
:1055F000E10080FF1AC08091E20080FF16C0809118
:10560000E2008E7F8093E2008091E20080618093CF
:10561000E2008091D80080628093D80019BC85E0B8
:1056200080938C0283E080933D018091E10084FFB0
:105630002FC08091E20084FF2BC080E189BD82E110
:1056400089BD09B400FEFDCF8091D8008F7D809385
:10565000D8008091E1008F7E8093E1008091E2008C
:105660008F7E8093E2008091E20081608093E2006F
:1056700080919E01811509F452C084E080938C02D0
:1056800080918C02843009F052C082E080933D0109
:105690008091E10083FF2CC08091E20083FF28C04D
:1056A0008091E100877F8093E10082E080938C020B
:1056B00010929E018091E1008E7F8093E1008091A5
:1056C000E2008E7F8093E2008091E200806180930F
:1056D000E20042E060E080E00E945D098091F0001D
:1056E00088608093F00081E080933D0180933C01CD
:1056F000FF91EF91BF91AF919F918F917F916F91AA
:105700005F914F913F912F910F900FBE0F901F907F
:10571000189519BC10928C0210929F0168CF80914D
:10572000E30087FF02C083E0A9CF81E0A7CF81E03B
:10573000ADCF1F920F920FB60F921124EF92FF92EE
:105740000F931F932F933F934F935F936F937F9389
:105750008F939F93AF93BF93CF93EF93FF9309EEF4
:1057600010E0F8018081C091EC008F70C795CC27C4
:10577000C795C82B108280EFE82EF12CF7018081AD
:10578000877F808378940E942F0CF8011082F701A4
:10579000808188608083CF70F801C083FF91EF9192
:1057A000CF91BF91AF919F918F917F916F915F91B9
:1057B0004F913F912F911F910F91FF90EF900F907C
:1057C0000FBE0F901F9018958EE14A9B02C08A95DC
:1057D000E1F74A9BFECF08955A9880E28A95F1F747
:1057E0005A9A0895FC013BE03A95F1F798E020E0E1
:1057F00080E031E040E14A95F1F7880F4A9B02C012
:105800008160232742E04A95F1F7000040E14A9584
:10581000F1F79A9579F790E19A95F1F799B132E01D
:105820003A95F1F7000040E14A95F1F792FB99278C
:1058300090F992272081920F90830895A1E0B0E023
:10584000E3E2FCE275C119828C017C01E60EF11CD9
:10585000BBDFCE010196C6DFF80181938F01EE1503
:10586000FF05B1F781E09981911180E02196E6E092
:105870007BC1529A5A9A089552985A9AEA9AE9E63E
:10588000F0E080818F7C808308956150770B91E0F8
:1058900001C0990F6A95EAF7692F90E021E0611144
:1058A00008C0911599F05A9A80E28A95F1F75A98B2
:1058B0000895362F3823311539F05A9A922730E25D
:1058C0003A95F1F76695EBCF5A98F9CF5A98ECCF05
:1058D000FF920F931F93CF93DF93EC018C01060F80
:1058E000111DF99079DF68E08F2DCFDFC017D10748
:1058F000C1F7CDB7DEB7E5E038C11F920F920FB602
:105900000F9211240F931F932F933F934F935F9305
:105910006F937F938F939F93AF93BF93EF93FF9377
:10592000CF93DF930F92CDB7DEB719824DDFCE0153
:10593000019658DF082F069506950695982F9295A3
:105940009570202F2570920F292F2370969596958C
:10595000920F982797708981892B811509F058C07B
:10596000063008F055C080E18A95F1F75A9A529AAC
:1059700082E08A95F1F700C05A9888E0089F80017C
:105980001124D801AE5EBE4F1696ED91FC9117978B
:105990003097A9F0609163017091640114962D9184
:1059A0003C911597260F371F11968D919C91129758
:1059B000680F791F13964C9113978C910995F801F4
:1059C000EE5EFE4F6381611549F0209163013091D5
:1059D000640184819581820F931F7ADFFDDE80E16F
:1059E0008A95F1F75A9852985A9A80E18A95F1F778
:1059F000F801EE5EFE4F6081611549F02091630170
:105A00003091640181819281820F931F17DFDCDE68
:105A10000F90DF91CF91FF91EF91BF91AF919F9147
:105A20008F917F916F915F914F913F912F911F9136
:105A30000F910F900FBE0F901F9018950F931F930B
:105A4000CF93DF938C0106970CF05EC0F894529AC6
:105A50005A9885E08A95F1F70000C02FC695C57069
:105A6000802F8570C80F8C2F8370C695C69593E0E4
:105A7000000F111F9A95E1F7C80FC8018C2BEC019C
:105A8000ABDE00C068E08C2F00DF90E19A95F1F763
:105A900052985A9A4A9B31C087E090E04A992FC0A9
:105AA000F801EE5EFE4F6381611559F020916301AC
:105AB0003091640184819581820F931FBFDE81152F
:105AC00001F182DE80E28A95F1F75A98529A90E1CC
:105AD0009A95F1F7F801EE5EFE4F6081611549F08D
