:100000002FC300004AC3000048C300000C946E34A4
:1000100044C3000042C3000040C300003EC30000D0
:100020003CC300003AC300000C94A2320C948A3303
:100030000C94573232C3000030C300002EC30000BE
:100040002CC300002AC3000028C3000026C3000000
:1000500024C300000C947E3220C300001EC30000A5
:100060001CC300001AC3000018C3000016C3000020
:1000700014C3000012C3000010C300000EC3000030
:100080000CC300000AC3000008C3000006C3000040
:1000900004C3000002C3000000C30000FEC2000051
:1000A000FCC20000FAC20000F8C20000050109020B
:1000B000A10185020901A1000509190129081500FE
:1000C0002501950875018102050109300931158165
:1000D000257F95027508810609381581257F9501D0
:1000E00075088106050C0A38021581257F95017572
:1000F000088106C0C005010980A101850319012AF4
:10010000B700150126B700950175108100C0050CD8
:100110000901A101850419012AA002150126A002E6
:10012000950175108100C005010906A1018506052C
:100130000719E029E71500250195087501810205D9
:1001400007190029EF1500250195F07501810205B9
:10015000081901290595057501910295017503910D
:1001600001C00660FF0961A1010962150026FF00B8
:100170009520750881020963150026FF00952075FA
:10018000089102C005010906A101050719E029E748
:1001900015002501950875018102950175088101F9
:1001A0000507190029FF150026FF0095067508812F
:1001B000000508190129051500250195057501910E
:1001C00002950175039101C00000000000000000CD
:1001D000000000000000000000000000000000001F
:1001E0000000000000000000000000007E0F00D4AE
:1001F000FFFFFFC7000000780000000000000000C3
:100200002A2B280000000000000000000000000071
:1002100000000029000000002C1E3420212224347C
:100220002627252E362D3738271E1F20212223244E
:1002300025263333362E37381F0405060708090AEA
:100240000B0C0D0E0F101112131415161718191A86
:100250001B1C1D2F3130232D350405060708090A04
:100260000B0C0D0E0F101112131415161718191A66
:100270001B1C1D2F3130354C09025B00030100A00F
:10028000FA09040000010301010009211101000124
:10029000224400070581030800010904010002034C
:1002A000000000092111010001222200070582033C
:1002B00020000107050303200001090402000103D7
:1002C00000000009211101000122B6000705840386
:1002D0002000011201000200000008534601000145
:1002E00000010203011C037600690061006C003A02
:1002F00000660036003400630032006200330063A1
:100300000000000C0343006F0072006E00650000E7
:1003100000100366006F006F007300740061006ED0
:1003200000000004030904000014001A000800156E
:10033000001700000004001600070009000A000072
:10034000001D001B00060019000500000000000051
:1003500000E0002C0021520000130012000C0018D5
:10036000001C00000033000F000E000D000B000009
:1003700000380037003600100011000000000000B7
:1003800000E200E1002252010001008304D013AC1E
:10039000170000020002007F04D013AC1700000316
:1003A0000001008404D013AC1700000400020069AF
:1003B00004D013AC172907050001008504D013AC45
:1003C000170000060002006B04D013AC17000007F2
:1003D0000002008104D013AC170000090002006D78
:1003E00004D013AC1732070A0002006F04D013AC1C
:1003F0001732070B0002007104D013AC1732070C40
:100400000002007304D013AC1732070D0002007510
:1004100004D013AC1732070E0002007704D013ACDF
:100420001732070F0002007904D013AC17320710FF
:100430000002007B04D013AC173207110002007DCC
:1004400004D013AC173207120002008704D013AC9B
:10045000170000130002008904D013AC1700001429
:100460000001008B04D013AC170000150000000041
:10047000005707AB0F0000160001008604E713C207
:10048000170000170001018604E713C217000018C7
:100490000001028604E713C2170000190002008D54
:1004A00004D013AC1700001A0001038604E713C23E
:1004B0001700001B0002008F04D013AC170000FDD2
:1004C000377A585A000004E6D6B4460200210116D5
:1004D000000000742FE5A3E00404012E5D003D88B8
:1004E00089C65436C3174FE4DCCBB3DF6320E7D7AC
:1004F0001739D83D5F52C90BECB7E6D5195224B075
:10050000736759B3E0B456C74788C96520CF4A3CE2
:10051000940C015E29865C8E4576A9EB7FD2E23190
:10052000701E67C9402BA3BE6E98A8433D32C1938D
:1005300048C1ADE377E523A546D114F3733C3854A5
:10054000F3C3228D2986785157A2FA3EA7F6DE4FD3
:1005500032C947E7CA5EA787F8E4D5A5393D969A20
:10056000DF244B78524AB7DC9E4828B0A54892EE6B
:10057000429B632FAC4ACFA6DC808A897CF0C6CE32
:100580004BCBB2298ACA87ECACC96F1E6F80A5EC31
:10059000A0C495C61A8BA14AD346CAF0814A6C5FA3
:1005A0008F6338B617128289DB6CFF873A0DEF9F95
:1005B000DB9FB94D4802B862B7295B403FFA0C4453
:1005C000D5255B2665FB9C09C4C2E05F789CB033EF
:1005D0005D274EA7275884A03015C954F7F948273E
:1005E000A1F1BF0D3132DAEF92305B85C9D1FF1135
:1005F00004207C40969D1813D13ED7DED795B94D87
:1006000040784674E14D4138F4B071E70000005B7A
:1006100025FA175344D6B60001CA0285080000DE49
:10062000AD72DDB1C467FB020000000004595A003E
:100630004C4C4C4C4C004C4C4C4C4C004C4C4C4C92
:100640004C0000004C4C4C0052525252520052523C
:100650005252520052525252520000005252520014
:1006600011241FBECFEFDAE0DEBFCDBF11E0A0E066
:10067000B1E0E8ECFDE602C005900D92A03DB107A7
:10068000D9F724E0A0EDB1E001C01D92A639B20770
:10069000E1F70E94742B0C946F36B2CC9C019A95B2
:1006A00081159F4118F5F32FF270EE27832F81708B
:1006B000732F74706627532F5870442734FF0CC073
:1006C0008295807FEF2B09F08062672B09F08064B0
:1006D000452B69F080680895EF2B09F08260672B45
:1006E00009F08460452B19F08860089580E0089532
:1006F000CF93DF93EB01D2DFFE010995DF91CF911C
:100700000895282F92959F70963099F060F4925F2B
:100710009F70923030F4203FB1F038F481E0283EF1
:1007200038F080E008959A5FF3CF81E0243FC9F765
:10073000089591E0813F09F090E081E0283E08F0C3
:1007400080E0892B089581E0089580931D04089529
:1007500080931E04089521E030E001C0220F8A95A5
:10076000EAF780911E04822BF3CF21E030E0A9014B
:1007700002C0440F551F8A95E2F7CA0180959091F7
:100780001E048923E5CF292F983090F5863080F517
:1007900090E036E0239F800D911D1124282F2770B3
:1007A00041E001C0440F2A95EAF723E0969587952A
:1007B0002A95E1F7FC01EE0FFF1FE80FF91FE45245
:1007C000FD4F20E030E070E05191DF01CB01022EBF
:1007D00002C0969587950A94E2F7817081958527E6
:1007E000842385278E932F5F3F4F2330310561F798
:1007F0000895292F983078F5863068F590E036E036
:10080000239F800D911D1124682F677023E096951A
:1008100087952A95E1F7FC01EE0FFF1FE80FF91FFE
:10082000E452FD4F40E050E080E0219130E0062EA0
:1008300002C0369527950A94E2F721703327042EDB
:1008400001C0220F0A94EAF7822B4F5F5F4F4330BB
:10085000510559F7089580E0089590911E0421E014
:1008600030E0F90101C0EE0F8A95EAF7D90102C024
:10087000AA0FBB1F6A95E2F7EA2B01C0220F4A9527
:10088000EAF7892F8E23E81303C0892F822B60CFCC
:100890002095822F8923FBCF8091DB0290E020E01E
:1008A000022E001C0008281709060CF008952F5F7F
:1008B000F7CFFC01DB018481813041F514968C91E6
:1008C0001497813019F5918186E0E081F0E0899FED
:1008D000E00DF11D1124E15DF94F94919A32B1F0D0
:1008E00011962C911197EC91F0E0829FE00DF11D93
:1008F0001124E15DF94FE49181E09E1301C080E095
:1009000091E0EA3209F090E0892B089581E00895A2
:100910009C0180911F048D79811119C0211540E53A
:10092000340780F4211580E23807C0F42333310501
:1009300011F1D0F481E02E31310590F424303105ED
:1009400030F00895C90196558115914010F080E06E
:100950000895C901805F96450797C8F33327E6CF0E
:100960002C323105A1F708952653310981E0233057
:10097000310538F3ECCF81E00895809129049091FE
:100980002804981301C008958F5F8770FACF909163
:1009900023048095892380932304282F2770211115
:1009A00010C0891771F09091920492FF0AC0869549
:1009B00086958695DADE1092230410922504109213
:1009C0002404089590911F04982B90931F04089578
:1009D000982F909580911F04892380931F04089578
:1009E00080911B04811531F010921B0410921A049F
:1009F0001092190408959C01803E910509F448C0A5
:100A0000D8F48133910509F47DC048F48932910509
:100A100009F46DC08A9709F47CC0C901089589332F
:100A2000910551F18238910539F1C597B1F780915F
:100A3000910485FFF2CF29C0843E910509F447C097
:100A400048F4823E910599F1833E9105A9F121EE8A
:100A500030E0E3CF863E910509F444C0873E91051E
:100A6000E1F68091910483FD61C09091920491FF21
:100A70002BC024EE30E0D1CF80919104837081119E
:100A800052C08091920483FFC8CF29E230E0C5CFE5
:100A90008091910480FD33C09091920490FFBDCF6E
:100AA00023EE30E084FFB9CF20E030E0B6CF809174
:100AB000910482FDF5CFB1CF8091910482FD30C0C9
:100AC0009091920490FD2FC084FFA7CFEDCF80912D
:100AD000920481FFA2CF8091910427EE30E084FD43
:100AE000E3CF9BCF8091910483FDF7CF96CF809188
:100AF000910485FD1EC08091920483FF8ECF29E36F
:100B000030E08BCF8091910486FF87CF2AE230E0DE
:100B100084CF8091910486FF80CF21E330E07DCFA8
:100B200022EE30E07ACF20EE30E077CF26EE30E0D4
:100B300074CF25E330E071CF9091910492FF10C003
:100B400041E0282F2471243009F040E031E0282FC3
:100B50002871283009F030E0431711F02CE082278B
:100B600093FF10C041E0282F2471243109F040E0A8
:100B700031E0282F2871283109F030E0431711F0B7
:100B80002CE082273091920430FF10C051E0282FD2
:100B90002171213009F050E041E0282F28712830E0
:100BA00009F040E0541711F029E0822731FF10C00E
:100BB00041E0282F2171213109F040E031E0282F58
:100BC0002871283109F030E0431711F029E082271D
:100BD00094FD877E08951F93CF93DF930CDFEC0184
:100BE000811522E5920708F052C0811540E594076F
:100BF00008F0CDC0803E910520F58D3C910508F0B0
:100C0000A1C0883A910570F4853A910508F097C023
:100C100081309105B9F10497813A910598F1C0E0CE
:100C2000D0E030C0885A91094B97C8F7C85AD0E035
:100C3000CC0FDD1FCC59DE4F0990D881C02DD46474
:100C400021C0811550E49507B0F4C11580E2D807A2
:100C500008F0B3C0C83ED105A8F0CE019A95811521
:100C60009F41E8F68D2F68DF182FCE019927C3DE4C
:100C7000EC01D12B07C09927BEDECC27DF70C82B33
:100C8000D92BD06ACE01DF91CF911F910895803882
:100C900042E59407C8F5803652E5950708F05BC039
:100CA000C03482E5D807D0F4C03292E5D90708F005
:100CB0004BC08C2F8695869520E2829FC00111241F
:100CC000C37021E030E0A90102C0440F551FCA954E
:100CD000E2F7EA01C82BD92BDD68D4CF8C2F86959B
:100CE0008695877050E2859FC0011124C37021E072
:100CF00030E0A90102C0440F551FCA95E2F7EA018E
:100D0000C82BD92BDC68BECF803C52E5950758F440
:100D10008F71C03AD245A0F590E0982F8827EC015A
:100D2000C46FD06AAFCF805C9245809708F077CFD0
:100D3000DC2FCC27CC27DF71C06FD06AA3CFA4975C
:100D4000D064A0CFD0659ECFCF71D0E0DC2FCC2770
:100D5000C16FD06A97CF86958695877020E2829F73
:100D6000C0011124C37021E030E0A90102C0440F8A
:100D7000551FCA95E2F7EA01C82BD92BDA6882CF52
:100D8000DBDEC82FD0E0DC2FCC27D0627BCF8F7189
:100D9000D3DE93E0CC0FDD1F9A95E1F7CC27DF700F
:100DA000282F30E084FF05C050E1859F9001112479
:100DB0003327C22BD32BD06965CF8D2F8F71BCDE2B
:100DC000182FCE01992717DEEC01D12BDECF80E062
:100DD0000895F894E82FE295EF70F0E041A18F704C
:100DE00021E030E0B90102C0660F771F8A95E2F773
:100DF000CB01962F9095942391A392A1892B82A346
:100E0000789408959C0121158CE7380741F480916E
:100E1000170190911801892B11F420E030E0C901ED
:100E20000895E8E8F3E080E090E06CE27AE24FE4D5
:100E30005AE221EC3AE27783668351874087338711
:100E4000228797878687019670968830910599F753
:100E500008958091690490916A049093120180939F
:100E600011010895E9E6F4E0848195812AE030E0FB
:100E7000B9010E94B43560931501868180931601F3
:100E800082858093030184858093020186859785FE
:100E9000B9010E94B43560931301808980931401D5
:100EA0008289809301018489809300010895EF92E3
:100EB000FF920F931F93CF93DF93FB018FEF9FEF71
:100EC0004430510508F45FC04091910441FB8827EC
:100ED00080F990E0880F991F42FB002700F910E08D
:100EE000000F111F000F111F802B912B40FBEE24D0
:100EF000E0F8F12C8E299F2943FB222720F9C22FED
:100F000050E0D52F53E0CC0FDD1F5A95E1F78C2B25
:100F10009D2B44FB222720F950E1259F90011124AD
:100F2000822B932B45FB222720F950E2259F90012D
:100F30001124822B932B46FB222720F950E4259F76
:100F400090011124822B932B47FB222720F940E8A4
:100F5000249F90011124822B932B20919204322FF5
:100F60003170932B26952170B22FBB0FA0E08A2BF6
:100F70009B2B092E000CAA0BBB0B80839183A283B1
:100F8000B38380E090E0CDB7DEB7E6E00C94A53502
:100F90009C0143E0969587954A95E1F78E719927D4
:100FA000FC01EE5DFD4F40815181F901EF70FF279B
:100FB00021E030E002C0220F331FEA95E2F761150D
:100FC00041F0422B532B8E5D9D4FFC01518340839A
:100FD00008952095309542235323F5CFFC01848159
:100FE000862381110AC082818115B9F0682390851A
:100FF00093FF05C081E061110FC080E00895282FA4
:1010000022952F708F70282B962F92959F706F705E
:10101000962B81E02913F1CF089581E00895282FC0
:1010200035EB2303C001112497FF04C080589109B8
:10103000892F089580589F4FFBCF8091F0026091D7
:1010400071047091720480FF14C020910301269FE7
:10105000C001279F900D1124BC0176956795769568
:10106000679560387105F0F561157105E9F1862F16
:10107000089581FF0BC020910301269FC001279F87
:10108000900D1124BC0176956795EBCF82FF09C0C6
:10109000809103019B01829FB001839F700D1124F9
:1010A000E0CF8091EF028115E1F290910201209151
:1010B0000301891738F0CB01289FB001299F700DDB
:1010C0001124CFCF289F90011124269FA001279F94
:1010D000500D369F500D1124692F70E0CA010E94F7
:1010E000B435BFCF8FE7089581E008958091F00275
:1010F00080FF0CC06091010170E075956795759552
:1011000067956115710549F1862F089581FF06C025
:101110006091010170E075956795F3CF60910101D1
:1011200082FD0BC09091EE029115A1F0609100013B
:1011300080910101961738F0682F70E060387105D2
:1011400000F38FE70895899FC001112470E00E9489
:10115000C835F4CF61E070E0D7CF81E00895FA019F
:10116000309709F00995089580919502811569F0ED
:10117000E091C102F091C202309739F00190F08104
:10118000E02D309711F00995089580E00895A3E0CF
:10119000B0E0EDECF8E00C948D359C0180912002DC
:1011A0009091210282179307B1F03093210220938E
:1011B0002002E091C102F091C202309761F00084F8
:1011C000F185E02D309739F083E089833B832A83D2
:1011D000CE01019609952396E2E00C94A935A3E08F
:1011E000B0E0E5EFF8E00C948D359C0180911E0293
:1011F00090911F0282179307B1F030931F02209342
:101200001E02E091C102F091C202309761F00084A9
:10121000F185E02D309739F084E089833B832A8380
:10122000CE01019609952396E2E00C94A9359091A0
:101230003B01913091F0A4EDB1E0EFEF90E02D9102
:10124000821751F0EF3F19F4211101C0E92F9F5F80
:101250009630A9F7EF3FC9F408959091910497FF54
:10126000EACFE82FE695E695E695803FA8F7F0E00F
:10127000E652FE4F877021E030E001C0220F8A95D0
:10128000EAF78281822B828308950E2E000CFF0BD9
:10129000EE52FE4FF8CF90913B01913021F49091A6
:1012A000910497FD0CC0E4EDF1E09191891302C027
:1012B000DF011E9251E0EA3DF507B9F70895E82FE6
:1012C000E695E695E695803FC8F7F0E0E652FE4FDA
:1012D000877021E030E0A90102C0440F551F8A95B4
:1012E000E2F7CA01809592818923828308958091D3
:1012F0003A0108952FB7F89480911A0290911B0239
:10130000A0911C02B0911D022FBF089580916B0423
:1013100090916C04892B89F0EDDF209119043091B4
:101320001A04AC01421B530B9A0181E040916B04FB
:1013300050916C042417350708F480E00895CF938A
:10134000DF93C0911F0480912204C82B80911B045D
:101350008115E1F080916B0490916C04892B19F058
:10136000D5DF81113DDBD0911B0480913B018130A1
:1013700021F48091910487FD13C086E024ED31E0D3
:1013800090E0815088F491112BDBCD2B80910403E8
:1013900080958C2390910303892BDF91CF91089541
:1013A0008EE12CED31E0ECCFF90141919F01411527
:1013B00041F39F5FE6CF962F2091920422FF0EC04B
:1013C000682F660F660F660F692B60932304C3D9DD
:1013D00091DF90932504809324040895BCC99091D3
:1013E0001B04292F2823211559F0809589238093E8
:1013F0001B04811531F07EDF8093190490931A0449
:10140000089580E090E0F8CFCF93C82F80919204A8
:1014100082FF0BC080911B048C1739F06BDF909317
:101420001A0480931904C0931B04CF91089562DFBE
:101430002091F3023091F402232B211521F08093A7
:101440006A0290936B022091F5023091F602232BF1
:10145000211521F08093680290936902E091C10206
:10146000F091C202309759F00680F781E02D309755
:1014700031F082E08093F10281EF92E009950895C6
:10148000611509F441C0E3E3E80FE33148F4F0E00B
:10149000EF58F94C0C94DB35D0DD81958093F40244
:1014A000C6CFCBDDFBCFC9DD81958093F302F8CFAA
:1014B000C4DDFBCF1BDE8093F502F2CF17DE8195F2
:1014C000FACF14DE81958093F602EACF0FDEFBCFD0
:1014D000815D990B21E030E001C0220F8A95EAF787
:1014E0008091F202822B8093F202DACF8091F00297
:1014F00081608093F002D4CF8091F0028260F9CFB6
:101500008091F0028460F5CF4091F3028D3C59F454
:101510008091F40287FF0DC01092F402411559F436
:101520001092EF0208C08E3C81F48091F4021816EC
:101530009CF3411581F08091F5029091F602892B80
:101540008111AECF1092EE02ABCF8F3C41F447FF3A
:10155000F0CF1092F3028091F4028115E0CF803D2C
:1015600019F41416B4F3E5CF9091F502893D29F4EE
:101570001916FCF61092F502DCCF8A3D19F497FF9C
:10158000D8CFF8CF9091F6028B3D29F497FFD1CFB9
:101590001092F602CECF8C3D19F41916CCF3C9CFB8
:1015A0009FE2980F983090F4815D990B21E030E034
:1015B000B90102C0660F771F8A95E2F7CB018095CB
:1015C0009091F20289238093F202B3CF8D3D31F4E2
:1015D0008091F0028E7F8093F002ABCF8E3D21F49C
:1015E0008091F0028D7FF7CF8F3D09F0A2CF8091DF
:1015F000F0028B7FF0CF2FB7F89460911A027091B0
:101600001B0280911C0290911D022FBF0895CF9262
:10161000DF92EF92FF9280919502811551F0EBDFFE
:101620006B017C01C701B601FF90EF90DF90CF9076
:101630000895E1DFC0909702D0909802E09099025F
:10164000F0909A02C60ED71EE81EF91EEBCFCF927D
:10165000DF92EF92FF92CF93DF93D82FC92FC090E4
:101660008203D0908303E0908403F0908503C3DF6E
:101670006C197D098E099F09643F714081059105B0
:1016800010F1B9DF6B017C0182E390E0A0E0B0E0F3
:10169000C0926402D0926502E0926602F092670204
:1016A0008093600290936102A0936202B093630200
:1016B000D0938003C0938103DF91CF91FF90EF908F
:1016C000DF90CF90089584EF91E0A0E0B0E0E0CF0C
:1016D00087E797E7909301088093000888E19AE0F4
:1016E0000FB6F894A895809360000FBE90936000A9
:1016F000FFCFFC019B01809110029091110286178F
:10170000970740F0672B29F48091E8008E7780934B
:10171000E800C90140E0009741F4411106C0809102
:10172000E80082FF2FC080E0089520917702211504
:10173000A9F12530A9F12091E80023FD2DC02091C9
:10174000E80022FDECCF2091E80020FFE4CF3091AB
:10175000F3002091F200009719F02830310558F07D
:1017600041E02830310509F040E02091E8002E7773
:101770002093E800D0CF41914093F10001972F5F73
:101780003F4FE9CF80917702811541F0853041F0DC
:101790008091E80083FFC3CF81E0089582E008953F
:1017A00083E0089580910A0287FF13C08091E800CA
:1017B00082FF06C08091E8008B778093E80008954F
:1017C000809177028111F2CF08958091770281157F
:1017D000D9F38091E80080FFF8CF8091E8008E7700
:1017E000ECCF2091E4003091E50095E6A90120912D
:1017F000EC00822F817020FF06C08091E80080FFFE
:1018000006C080E008952091E80022FD1AC0809172
:101810007702811589F0853089F08091EB0085FD94
:101820000FC02091E4003091E50042175307F9F210
:101830009A95E1F684E0089582E0089583E00895A2
:1018400081E00895E8EDF0E080818E7F8083109242
:10185000E2001092DA001092E100A0EEB0E08C916C
:1018600081608C9380818F77808319BCA7EDB0E075
:101870008C918E7F8C9380818F7E80831092090261
:101880000895FC01AC014C5F5F4F8FEF61E39191D4
:10189000892728E030E0982F990F87FF09C0892F0A
:1018A000862721503040B9F7E417F50781F70895EE
:1018B000892FF7CF982F9093E900891771F07091D5
:1018C000EC002091ED005091F00021FD09C09F5FD8
:1018D000973089F78093E9000895762F242F50E000
:1018E0003091EB003E7F3093EB003091ED003D7F77
:1018F0003093ED003091EB0031603093EB0070934A
:10190000EC002093ED005093F0002091EE0027FDB5
:10191000DECF0895A0E0B0E0E0E9FCE00C9487356C
:10192000C8EDD0E088818F7E8883E7EDF0E080818C
:101930008160808384E082BF81E080930902888196
:101940008E7F888302EE10E0F80110821092DA0098
:1019500081EEC82ED12CF601108288818F77888382
:1019600088818068888388818F7D888319BC1092E4
:10197000770210920802109256021092070290EE1F
:10198000E92EF12CF70180818B7F80838881816033
:10199000888342E060E080E08DDFF60180818E7F09
:1019A0008083F8018081816080838081886080836A
:1019B000F70180818E7F8083888180618883CDB7A5
:1019C000DEB7E8E00C94A335E09129049091280457
:1019D00027E0E91302C080E00895AE2FB0E02E9F0B
:1019E000F0011124E65DFB4F3181361306C03081D2
:1019F000381303C03581341304C0FD013196E770FC
:101A0000E8CF81E008959C012115310509F408957E
:101A10008FE99FE00197F1F700C0000021503109E4
:101A2000F3CF0F931F93CF93DF938B01EA01909134
:101A30007702943051F58093E9008FEF9091E800A0
:101A400095FD06C095ED9A95F1F700008A95B1F7DE
:101A50008091E80085FF19C0C4DE811111C080911A
:101A6000E80085FD06C08091E8008E778093E8004D
:101A7000F3CFF80181918F018093F100219779F7DD
:101A80008091E8008E778093E800DF91CF911F91DD
:101A90000F910895792F603229F440E250E0682FC9
:101AA00082E0BFCF0895CF93DF93D82FC92F48E0AE
:101AB00050E0682F792F81E0B4DF88E0ED2FFC2F14
:101AC000A2E1B2E001900D928A95E1F7DF91CF910A
:101AD0000895BC0140E250E084E0A3CFBC0146E0A1
:101AE00050E084E09ECFBC0143E050E084E099CF19
:101AF000A0E0B0E0EEE7FDE00C948535182F092F4B
:101B0000B62EA72E7A01809104029AE0C92ED12C1C
:101B10008A3018F0CC24C394D12CC1E0D0E06B2DD6
:101B20007A2D812F902FF7010995811116C02196EA
:101B3000CC16DD0694F0CC9FC001CD9F900D900D8A
:101B4000112420E030E045E34A95F1F700002F5FD3
:101B50003F4F28173907B9F7E2CFCDB7DEB7EAE034
:101B60000C94A135FC016081718184E090E00C94BB
:101B700054369091920492FB222720F9281751F0B5
:101B800080FB92F99093920481E994E0EBDF82E08C
:101B90000C94C70408951F93CF93DF93962F122FB1
:101BA000632F8630D8F49830C8F44630B8F4C42F88
:101BB000D0E0CC0FDD1F2CE0929FC00DD11D112471
:101BC00090E6899FC00DD11D1124CE0189960E94F7
:101BD0003A36612FCE018A960E943A36DF91CF9134
:101BE0001F91089580913B01813061F580919104AE
:101BF00087FF28C0A4DB8093DB0140E250E061EA6C
:101C000072E08AED91E00E94F135892BD1F080E2FB
:101C1000EAEDF1E0A1EAB2E001900D928A95E1F7D8
:101C2000E091C102F091C202309759F00480F58131
:101C3000E02D309731F086E08093DA018AED91E073
:101C4000099508957CDB8093D20148E050E063EC75
:101C500072E082ED91E00E94F135892B91F388E0EA
:101C6000E2EDF1E0A3ECB2E001900D928A95E1F78C
:101C7000E091C102F091C202309719F30280F38122
:101C8000E02D3097F1F282ED91E0DACF811519F075
:101C90000E94E204A7CF0895811531F090912204AB
:101CA000892B809322049ECF0895811519F00E94FC
:101CB000E80498CF0895811539F080959091220419
:101CC0008923809322048ECF0895CF93C82F811546
:101CD000C1F08CEF8C0F813A80F580913B0181300F
:101CE00021F48091910487FD0EC0E4EDF1E0819133
:101CF000C817F9F021E0EA3DF207C9F78C2F97DA0F
:101D000071DFCF910895EC2FE695E695E695F0E02A
:101D1000E652FE4F828190E04C2F477021E030E088
:101D200002C0220F331F4A95E2F782239323892BA7
:101D300029F38C2FB0DA56DFE1CF80E28C0F8830A8
:101D400048F4C77081E001C0880FCA95EAF70E9485
:101D5000E204D6CF8BE58C0F833030F42C2F245245
:101D6000330BC90114DACDCFE8E5EC0FEB3148F4C1
:101D7000F0E0EE0FFF1FE656FE4F808191812FDAD3
:101D8000C0CF83E38C0F833108F0BBCF61E08C2F91
:101D900077DBB7CFCF93DF93EC01805E9109089793
:101DA00020F06CE47EE0209711F466E47EE0CE0142
:101DB0000E9478038C2F89DFDF91CF9108959C01D9
:101DC000611529F080912204826080932204C90168
:101DD00090528115904308F43327C901DBCF811558
:101DE00041F19CEF980F913A10F455DAFBCE90E256
:101DF000980F983050F4877091E001C0990F8A9540
:101E0000EAF7892F0E94E804F1CF9BE5980F933001
:101E100018F480E090E0BBC998E5980F9B3118F466
:101E200080E090E0DCC993E3980F933110F460E018
:101E300027CB0895CF93DF93EC01D1DFCE01805EF5
:101E40009109089720F06BE57EE0209711F465E595
:101E50007EE0CE010E947803DF91CF9108950F9329
:101E60001F93CF93C82F8B0130DF0115110531F47B
:101E70008C2FB5DFCF911F910F9108958FE99FE0CF
:101E80000197F1F700C0000001501109EECF6091F9
:101E9000890470918A04893321F0609187047091DC
:101EA0008804DDCF10921F0480913B01813011F531
:101EB0008091910487FF1EC0ECEDF1E08EE1DF011F
:101EC0001D928A95E9F780E090E061D980E090E08A
:101ED00086D91092220486DE86E0E1EFF2E0DF018F
:101EE0001D928A95E9F71092EF021092EE0210927D
:101EF000F0029DCAE4EDF1E086E0E1CFD3DF2FEF01
:101F000084E39CE0215080409040E1F700C0000055
:101F100088E19AE00FB6F894A895809360000FBE10
:101F200090936000FFCFCF93DF93D82FC92F2091DC
:101F3000DB02283010F0B6DF20E0E22FF0E0EE0FF9
:101F4000FF1FE553FD4FD083C1832F5F2093DB023A
:101F5000DF91CF910895CF93DF93FB018FEF9FEF38
:101F60004430510588F0D081C1819CDFD093910429
:101F7000C370809192048C7FC82BC093920481E936
:101F800094E0F0DD80E090E0DF91CF910895AAE247
:101F9000B0E0EDECFFE00C948C358AE092E0FC01BF
:101FA00001962091F100208322E082319207B9F757
:101FB00080910B02893009F457C0C8F4823009F4CB
:101FC000B2C0833009F482C0813081F18091E80091
:101FD00083FFE6C080910A0290910B029A3008F0CC
:101FE000DFC0E92FF0E0EC57F94C0C94DB358A3078
:101FF00009F489C08B3051F780910A02813231F7A0
:1020000080910E0290910F02892B01F78091E800D8
:10201000877F8093E800C6DB81E090910C029111EC
:1020200001C080E080933B013DDFD0CF80910A0268
:10203000813A61F68091E800877F8093E800809183
:102040000E0290910F02892B59F060E080E090E041
:1020500070E04FDB8091E8008B778093E800B6CF8B
:1020600068E082E192E0F4CF80910A02813209F0C7
:10207000ADCF80910E0290910F028D7F892B09F0D8
:10208000A5CF8091E800877F8093E8008091E800E9
:1020900082FF17C09091F3008091F200029731F413
:1020A0008091F100813011F0863021F48091F100AF
:1020B00080933A018091E8008B778093E80072DB8F
:1020C00085CF809177028111E1CF80CF80910A0284
:1020D000813A09F07BCF80910E0290910F02892BFB
:1020E00009F074CF8091E800877F8093E8008091A9
:1020F000E80080FFFCCF80913B018093F10080914C
:10210000E8008E77DACF80910A02813209F05ECF43
:102110008091E800877F8093E80044DB80910D0286
:102120008093390153CF80910A02813A09F04ECF52
:102130008091E800877F8093E8008091E80080FF2D
:10214000FCCF80913901D9CF803889F0823841F5B0
:1021500080910E028F70873018F58093E90080918E
:10216000EB0085FB882780F91092E90006C080917A
:102170005602880F90910702892B9091E800977F73
:102180009093E8008093F1001092F1008091E800B4
:102190008E7723C0811116C080910C02813009F125
:1021A0008091E80083FF0AC08091E800877F8093D8
:1021B000E8008091EB0080628093EB00AA96E3E058
:1021C0000C94A835823061F780910C02811581F062
:1021D0001092E9008091E800877F8093E800E2DABE
:1021E000DFCF81E0933009F080E080935602F0CF9A
:1021F00080910E028F702FEF280F263088F6809383
:10220000E9002091EB0020FFE3CF933031F480917F
:10221000EB0080628093EB00DBCF9091EB0090614C
:102220009093EB0021E030E0A90102C0440F551F5C
:102230008A95E2F74093EA001092EA008091EB0061
:102240008860E8CF8111ACCF10910C021F7780918C
:10225000E3008078812B8093E3008091E800877F02
:102260008093E8009FDA8091E80080FFFCCF8091A6
:10227000E30080688093E30083E0111101C082E0F5
:10228000809377028DCF8058823008F089CF80917B
:102290000C0290910D028C3D53E0950791F583E07F
:1022A0008A838AE289834FB7F894DE01139620E08F
:1022B0003EE051E2E32FF0E050935700849120FF7D
:1022C00003C082958F703F5F8F708A30C0F0895C49
:1022D00090E08D939D932F5F243161F74FBF8091E4
:1022E000E800877F8093E8006AE270E0CE01019603
:1022F00000DA8091E8008B778093E80051CF805D11
:10230000E7CF292F33272330310509F44EC078F564
:102310002130310509F488C08BE590E0E8E7F2E070
:102320002230310509F03CCF2091E800277F20932F
:10233000E80020911002309111028217930708F4EF
:102340009C0140E02115310509F073C0411171C0B5
:102350008091E80082FDCDCF80917702811549F20E
:10236000853039F28091E80083FFF2CFC2CF8091AF
:102370000E0290910F022132310509F446C022323B
:10238000310509F00DCF8330910508F009CFFC012C
:10239000EE0FFF1FE45BFE4F0190F081E02D875BA5
:1023A0009E4FDC018C9190E010C09C01332782305D
:1023B00021F12330310568F4232BB9F4E3E2F3E093
:1023C000E4918E2F90E0E3E2F3E0009709F4E8CE89
:1023D000ABCF2330310509F0E3CEE5EEF2E0E49136
:1023E0008E2F90E0E5EEF2E0F0CFE1E1F3E0E49152
:1023F0008E2F90E0E1E1F3E0E8CFE3E0F3E0E49159
:102400008E2F90E0E3E0F3E0E0CF8330910508F019
:10241000C7CEFC01EE0FFF1FEE5AFE4F0190F08178
:10242000E02D89E090E080CF82E190E0E3EDF2E002
:102430007BCF80917702811509F45BCF853009F459
:1024400058CF8091E80083FD54CF8091E80082FD51
:102450007FCF8091E80080FF75CF9091F30080914D
:10246000F2002115310519F08830910550F041E056
:10247000089709F040E08091E8008E778093E800AB
:1024800061CF44914093F10031962150310901967A
:10249000E8CF803809F084CE8091E800877F809370
:1024A000E800809108028093F10070CE811178CE0F
:1024B00010910C02123008F073CE8091E800877FF3
:1024C0008093E800109308026DD91115D9F084E0CB
:1024D0008093770242E061EC81E0ECD942E261EC6A
:1024E00084E0E8D942E261EC82E0E4D942E260ECC7
:1024F00083E0E0D980917702843051F482E08093C8
:102500003C014ECE8091E30087FDE1CF81E0E0CF3A
:1025100081E0F5CF80913E01877F80933E019091CD
:1025200022049D7F9093220484FF06C08F7E8093B7
:102530003E0182E00E94E20480913E0185FF06C0D8
:102540008F7D80933E0180E20E94E2044BCBCF92CC
:10255000DF92FF920F931F93CF93DF93EC018B01D8
:10256000F42E80913E0182FF61C0C0900E04D09095
:102570000F04CC16DD0619F0209709F057C08091A2
:102580003E018B7F80933E01C1E081FD10C08091B0
:102590000C0490910D049801281B390BC1E0809127
:1025A0001101909112012817390708F4C0E08091B9
:1025B0003E01C0FB81F980933E016C2FC6010E9451
:1025C000C80780911F0481FF08C080913E0180618F
:1025D00080933E0182E00E94E80480911F0485FF01
:1025E00008C080913E01806280933E0180E20E949B
:1025F000E8046C2FC601E3DBF11431F08091840410
:1026000085FF02C086FF25C08091870490918804D1
:10261000FAD980910E0490910F049C01305221153B
:10262000304308F4992706DC75DF0FC0CE019052C5
:1026300081159043B0F4CE019927FCDB80910E0404
:1026400090910F04C817D90779F310930D040093E4
:102650000C04DF91CF911F910F91FF90DF90CF90ED
:102660000895CE01EACFCF93DF93EC014A855B85D5
:102670006E857F850E94AF089B8190958091220492
:102680008923809322048C810E94E804ABDA86E0DF
:10269000FE0111928A95E9F7DF91CF910895CF93CA
:1026A000DF93EC018D8181FD13C082608D83809169
:1026B00022049B81892B809322048C810E94E20456
:1026C00091DA488559856E857F85CE010E94AF08D5
:1026D00010920904109208048D8180FD02C0CE0181
:1026E000C2DFDF91CF9108951F93CF93DF93182F0F
:1026F000A0917E03B0917F03109709F449C0109216
:102700008103109280031092040310920303169623
:10271000CD91DC911797CE019A9581159F4108F4D0
:10272000D07ED1E0C11101C0D0E01996ED91FC91AD
:102730001A97309731F01B966D917C9180E0099546
:10274000D823D11539F08CEF8C0F813A28F58C2FD6
:102750000E944B091115A9F0E0917E03F0917F03CF
:10276000808584FD0EC080917D03811551F08081AC
:1027700091819C01215031092F333E4710F40E9472
:10278000270B30DA10927F0310927E0310927D03A4
:10279000DF91CF911F91089525DA8C2F20DBDACFBE
:1027A0009C01CB01DA01F9013296E4914E2F50E001
:1027B000AE17B10548F0F9013496659174910E9405
:1027C000FE3580E090E008958FEF9FEF0895A4E03C
:1027D000B0E0EDEEF3E10C948A358B01DA01FC01F7
:1027E0003396F49019821A821B821C82AB2B31F42F
:1027F0008FEF9FEF2496E5E00C94A63544E050E07F
:10280000BE016F5F7F4FCCDF019691F381E090E0D6
:102810000F2C02C0880F991F0A94E2F7092E000CB2
:10282000AA0BBB0B49815A816B817C818423952340
:10283000A623B72321E0892B8A2B8B2B09F420E0D8
:10284000F801208380E090E0D5CFACE0B0E0EBE28F
:10285000F4E10C948035FE01319688E0DF011D9291
:102860008A95E9F788E5E82E81E0F82E8F013F018F
:10287000AA24A394B12C22E6822E21E0922EF70105
:1028800081917F018F3F09F43EC0F894E82FE295D3
:10289000EF70F0E021A18F70A50102C0440F551F19
:1028A0008A95E2F7CA01922F982B91A392A1809565
:1028B000892382A3789400C0ECE5F1E031E0512C4B
:1028C00021912F3F79F0A22FA295AF70A05EB0E0CA
:1028D0008C9190E02F7002C0959587952A95E2F72C
:1028E00080FF7EC080E0582A330F8E169F0641F786
:1028F000F70182918F3F11F00E94E90650EA5A9544
:10290000F1F7D8015C920F5F1F4FBCE5EB16B1E009
:10291000FB0609F0B4CF48E050E0B3018BE492E04D
:102920000E94F1356C01892B41F088E0F301ABE4A2
:10293000B2E001900D928A95E1F70091540210E007
:1029400001591D4FC114D10409F44CC081E080939A
:1029500003020E947A0990930202809301028091FF
:102960009502811509F499C07E01E9E0EE0EF11C93
:1029700084E0D7011D928A95E9F7809104028A309C
:1029800008F054C04CE956E1B701C801B1D881152F
:1029900009F471C042E457E1B701C801A9D8811513
:1029A00009F469C041E456E1B701C801A1D8811515
:1029B00009F461C0109204028091530290E044E057
:1029C00050E0B70181599D4F0E94F13521E02093DD
:1029D0000002892B09F041C02C96EFE00C949C3545
:1029E000832F81CF80910302811509F4B8CFE09045
:1029F0000102F09002020E947A098E199F09059740
:102A000008F4ADCF44E050E06BE472E0C8010E94EE
:102A1000F135892B41F084E0EBE4F2E0D80101903C
:102A20000D928A95E1F71092030299CFC090FE01B2
:102A3000D090FF010E947A098C199D09843F914032
:102A400008F0A0CF80910002811531F284E0F701F7
:102A500011928A95E9F710920002E0915302F0E09A
:102A6000E159FD4F89859A85AB85BC85808391832B
:102A7000A283B383B1CF809104028F3F39F40E94C7
:102A80007A099093FF018093FE01DCCF8F5F8093E2
:102A900004028A3008F490CFF2CFE0905302F12C78
:102AA000A70141595D4F7A01F80180819181A2818E
:102AB000B3818093810290938202A0938302B093AA
:102AC000840281E892E00E94410C80938002809110
:102AD000850290918602A0918702B0918802F70149
:102AE00080839183A283B383C0908902D0908A02AD
:102AF000E0908B02F0908C028091FA019091FB01A2
:102B0000A091FC01B091FD01C816D906EA06FB06AA
:102B100009F462CFC092FA01D092FB01E092FC016D
:102B2000F092FD010E94FB0AC61AD70AE80AF90AC8
:102B3000C0929702D0929802E0929902F0929A0283
:102B40004BCFA0E0B0E0E7EAF5E10C948635EC016C
:102B500088818115D9F0813009F03FC089818130A9
:102B600021F48A81239693D9F3CF823021F48A818C
:102B70002396ABD8EDCF833021F48A8123962FD9C9
:102B8000E7CF843041F022968111E2CFCDB7DEB796
:102B9000E9E00C94A2358A81239620E030E09AE0A7
:102BA000682F6053770BAB016A30710560F0211517
:102BB000310551F3EFE9FFE03197F1F700C0000074
:102BC00021503109F4CF929FB001939F700D1124D1
:102BD0009A01260F371F8991E3CFE82FF0E0E850E4
:102BE000FE4FB490282F26952695269530E0F901C2
:102BF000E851FE4FE4908770F12C082E02C0F59446
:102C0000E7940A94E2F7E0FAEE24FF24E0F8F901F1
:102C1000E852FE4FC490D12C082E02C0D594C79420
:102C20000A94E2F7C0FACC24DD24C0F8F901E85395
:102C3000FE4F049110E002C0159507958A95E2F7C2
:102C400001701127E114F10411F081EE3ED8C11496
:102C5000D10411F086EE39D860E070E08B2DFFD8FA
:102C6000C114D10411F086EEBAD8E114F10411F0C8
:102C700081EEB5D80115110511F08CE208D9219625
:102C800067CFCF92DF92EF92FF921F93CF93DF93A4
:102C900000D000D0CDB7DEB7C0907802D0907902D6
:102CA000E0907A02F0907B020E94FB0A6C197D0989
:102CB0008E099F0911E0643671058105910578F14F
:102CC0000E94070BDC01CB010296A11DB11D898377
:102CD0009A83AB83BC8380913201909133018058F9
:102CE0009D4F20913101422F50E0253010F044E0FB
:102CF00050E0BE016F5F7F4F0E94FE3583E090E0A1
:102D00000E940F35182F811551F00E94FB0A609325
:102D100078027093790280937A0290937B02812FDC
:102D20000F900F900F900F90DF91CF911F91FF9018
:102D3000EF90DF90CF9008958F929F92AF92BF92C5
:102D4000EF92FF921F93CF93DF9300D000D00F92AA
:102D5000CDB7DEB77B0180E090E00E940F35182FE1
:102D6000811509F464C080911C01482F50E0811541
:102D700011F041E050E060911D0170911E0160581A
:102D80007D4FCE0105960E94FE3580909102909075
:102D90009202A0909302B09094020E94FB0A6819DC
:102DA00079098A099B09643671058105910538F412
:102DB00081E892E00E94410C9D818917C1F181E078
:102DC00090E00E940F35811509F43FC080912401E5
:102DD000482F50E0853010F044E050E0609125012C
:102DE0007091260160587D4FCE0101960E94FE35FC
:102DF00081E892E00E94410C9D81891326C00E94C7
:102E0000FB0A6093910270939202809393029093D5
:102E1000940289819A81AB81BC8180938D029093C9
:102E20008E02A0938F02B093900281E00FC0809138
:102E3000810290918202A0918302B09184028983E1
:102E40009A83AB83BC831111E4CF80E040918D0263
:102E500050918E0260918F0270919002F701408331
:102E60005183628373830F900F900F900F900F9098
:102E7000DF91CF911F91FF90EF90BF90AF909F9007
:102E80008F900895A0E0B0E0E8E4F7E10C94873576
:102E9000D82FC92F44E050E065E872E00E94F13578
:102EA0008C01C0907C02D0907D02E0907E02F09078
:102EB0007F020E94FB0A6C197D098E099F09643606
:102EC00071058105910518F40115110511F1809125
:102ED0002A0190912B0180589D4F20912901422F6A
:102EE00050E0253010F044E050E06D2F7C2F0E9420
:102EF000FE3582E090E00E940F35811559F00E9466
:102F0000FB0A60937C0270937D0280937E02909313
:102F10007F0281E0CDB7DEB7E8E00C94A3350F93D4
:102F20001F93CF93DF9309E614E0C9E6D2E0CE0108
:102F30000E941E36F80161918F01681719F0CE01C9
:102F40000E943A362196C139F2E0DF0781F7DF911E
:102F5000CF911F910F910895DA01FC013296E4910F
:102F60004E2F50E0AE17B10550F0FC01349685911C
:102F700094910E94FE35D3DF80E090E008958FEFBA
:102F80009FEF0895A4E0B0E0E8ECF7E10C948635FB
:102F90007C016B01FC013396B49019821A821B826A
:102FA0001C82452B31F48FEF9FEF2496E9E00C94BF
:102FB000A23544E050E0BE016F5F7F4FF1DB019628
:102FC00091F381E090E00B2C02C0880F991F0A94C6
:102FD000E2F780959095092E000CAA0BBB0B498156
:102FE0005A816B817C8184239523A623B723F60124
:102FF0002081022F017010E00B2C02C0000F111F66
:103000000A94E2F7012E000C220B330B802B912B3C
:10301000A22BB32B89839A83AB83BC8344E050E01B
:10302000BE016F5F7F4FC70197DFBFCF0F931F9325
:10303000CF93DF9309E614E0C9E6D2E0CE010E9407
:103040001E36F80181938F012196C139F2E0DF0726
:10305000A9F7C1E9D3E0FE0185919491009711F0A1
:10306000FC0109952C96F4E0C93CDF07A1F7DF913C
:10307000CF911F910F910895E9E6F4E0128E138E1F
:103080008FEA90E09183808325E0248F88E893E1A4
:10309000938382838AE090E09583848344E150E0C7
:1030A0005783468348E050E0518740879387828763
:1030B0006EE170E0758764879787868780E590E08A
:1030C000918B808B538B428B48E250E0558B448B25
:1030D00042E350E0578B468B44EB50E0518F408FDA
:1030E000158E55A344A3178E168E91A380A322A3F9
:1030F00017A216A214DF0E94520F1092920410928F
:10310000910480E084608093920481E994E00E94BD
:10311000B20D8CCF0F931F93CF93DF93863030F592
:10312000683020F5463010F5C42FD0E0CC0FDD1FFD
:103130002CE0629FC00DD11D112430E6839FC00D8D
:10314000D11D1124CE0189960E941E36082F10E051
:10315000102F0027CE018A960E941E369801282B38
:10316000C901DF91CF911F910F91089580E090E008
:10317000F8CF462F672F20919D0230919E02232B7E
:1031800081F4703F39F4403F61F480919B0290914B
:103190009C020895783028F4463018F4863008F4FC
:1031A000B9CF80E090E00895A0E0B0E0EAEDF8E16A
:1031B0000C9488357C0100911E0480911D04082B1D
:1031C000C5E0D0E010E0C8010C2E02C095958795AF
:1031D0000A94E2F780FD09C02197A8F7D12C8D2D24
:1031E000CDB7DEB7E7E00C94A435DC2EB7018C2F09
:1031F000C0DF0E94EB05019779F3F1CFCF93DF9306
:10320000D82FC92FD1DF6D2F7C2FB3DF0E94EB05A4
:10321000DF91CF910895FC018481811529F080818F
:103220009181ECDF0C94810380E008951F93CF938C
:10323000DF93182FD92F611589F0411579F0B4DF8C
:10324000C82F682F812F9D2F0E94C303612F7D2FD0
:103250008C2F8FDFDF91CF911F9108950E94F9038A
:10326000C82FF4CFFC01462F658180819181DECF8C
:103270000F931F938B019C0180E00F3C11052105EA
:10328000310528F4CB018F5C9C4F0E941E361F91A4
:103290000F91089585E290E00E941E36893289F4EC
:1032A00086E290E00E941E36873959F487E290E06A
:1032B0000E941E3691E0823409F090E0892F8170DF
:1032C000089580E0FCCFAAE0B0E0E9E6F9E10C94D3
:1032D0008335C0901701D090180181E090E0909361
:1032E00018018093170110E087E2A82E83E0B82E22
:1032F00000E01AC021E030E0111104C0F401859112
:1033000094919C014F2D602F812F0E94CB0DF3943F
:1033100082E0880E911C96E0F912ECCF0F5FECE092
:10332000AE0EB11C083019F04501F12CE3CF1F5F40
:103330001630D1F6A1DE1A8219821C821B821E82EF
:103340001D8218861F8284EB90E09A87898701E9A5
:1033500012E0CE0101967C014AE050E0B801C701BD
:103360000E945836065F1F4F5701013E92E0190731
:1033700099F789E0F70111928A95E9F78FEF9FEFAE
:103380009E838D8387E08A874AE050E0B801C501BB
:103390000E945836065F1F4F0133F3E01F07A1F765
:1033A000D0921801C09217012A96ECE00C949F3538
:1033B000AAE0B0E0EEEDF9E10C94853505E013E00C
:1033C00081EEE82E82E0F82E97E0B92E22E4C22E9C
:1033D00022E0D22EAA24A3944AE050E0B701CE0105
:1033E00001960E940E36F8013896DF018B2D1D9252
:1033F0008A95E9F789819A81D80111969C938E93D9
:103400008F8112968C9312978D8113968C931397BC
:10341000888514968C931497898515968C931597A7
:103420008B819C8117969C938E9316978A8587FD36
:1034300004C01E96DC92CE921D9780FF02C0F80158
:10344000A08681FF07C0D80118969C9118979260BA
:1034500018969C9382FF04C0F80190859460908731
:1034600083FF07C0D80118969C911897986018960A
:103470009C9384FF04C0F80190859061908785FF3C
:1034800007C0D80118968C911897806218968C9373
:10349000BAE0EB0EF11C015F1F4FE1E3EE16E3E033
:1034A000FE0609F099CF2A96EAE00C94A135282F60
:1034B000CB01283070F44AE0249F90011124B90117
:1034C0006F567D4F4AE050E00E940E3680E090E05B
:1034D00008958FEF9FEF0895AAE0B0E0E2E7FAE1E8
:1034E0000C948D359C0197558115914068F4BE016F
:1034F0006F5F7F4F822FDBDF892B31F489859A85BF
:103500002A96E2E00C94A93580918104909182047E
:10351000F7CFA0E0B0E0EFE8FAE10C948835162F81
:10352000D72FC42FD22E8115A9F0409317040E94E3
:103530007A099093060280930502C77081E001C06A
:10354000880FCA95EAF70E94460ECDB7DEB7E7E0CE
:103550000C94A43590911704491337C0E0900502EC
:10356000F09006020E947A099C012E193F09790108
:10357000812F9D2FB1DFE816F90638F5D0E2DD0D79
:10358000CD15A1F0C77011E0812F01C0880FCA9539
:10359000EAF70E94550ED83048F48D2D877001C08F
:1035A000110F8A95EAF7812F0E94460E802F0E9404
:1035B000470FD83050F62D2D277081E001C0880FBD
:1035C0002A95EAF70E94550EC0CFC77081E001C06E
:1035D000880FCA95EAF7F6CFA2E1B0E0E2EFFAE190
:1035E0000C947D357C01DC0114968C91811509F4D5
:1035F000E6C160E0C70136DE6C01F70186818031EB
:1036000070F42091290490912804291335C09091D9
:103610006704911521F090916804903168F1D70109
:1036200015969C91911112C0C114B0E5DB0608F00B
:10363000AFC0C114E0E2DE0608F0C1C0F8EECF165C
:10364000D10498F420EEC216D104B0F4D092F8025E
:10365000C092F702D70112968D919C919093270406
:103660008093260410923F0107C0C6019A958115E8
:103670009F4160F7C110EACF61E0C701F3DD8C0123
:10368000F7018581811529F1809108049091090441
:103690000097F9F008171907E1F0FC01FF27887F70
:1036A0009927892B09F08DC054E0EE0FFF1F5A9522
:1036B000E1F7E857FC4F858184608583118300839F
:1036C000CF010E944F131092220461E0C701CADDAE
:1036D0008C01D70115968C91811509F4FDC0C801A4
:1036E00097578038910508F028C1003108F056C17D
:1036F0006EEC70E080E090E0BBDD81114FC1812C69
:10370000912C5401011160C004E09E012F5F3F4FD6
:103710006901D601E02F1D92EA95E9F724013501F0
:10372000FFEF4F1A5F0A6F0A7F0AC501B401A0DDDF
:103730008983811509F432C1813009F0CAC0A5011D
:1037400094012E5F3F4F4F4F5F4F2F83388749873C
:103750005A87C301B2018CDD182F8A83811509F4C1
:103760001DC18FEF810F833008F048C06F817885CD
:1037700089859A857DDD8B83811511F0C601E1D99C
:103780002401350133E0430E511C611C711C33C010
:1037900040EEC41642E5D40668F450E8C51652E57A
:1037A000D50608F069CFC60180529245809708F08F
:1037B0004DCF62CFC60187579C470297F8CF803123
:1037C000F6CFE0E0F0E077CFBFEC8B169104A104D8
:1037D000B10409F4E3C0C501B4014ADDEFEF8E1A6C
:1037E0009E0AAE0ABE0A8111EFCF01508BCF4F80E7
:1037F000588469847A84530142018BCF8BEF810F07
:10380000833090F52401350143E0440E511C611CC6
:10381000711C6F81788589859A852ADD8B83811556
:1038200051F3C301B20124DD8C83811108C024014E
:10383000350154E0450E511C611C711CDCCF8B819D
:103840009C818130AFEF9A0710F0982F88271630AF
:1038500029F0173031F00E941B2AE9CF0E94D529A8
:10386000E6CF0E94F829E3CF143009F0C0CF6F8172
:10387000788589859A85FCDC182F24013501B4E010
:103880004B0E511C611C711CC501B4016D5F7F4F53
:103890008F4F9F4FEDDC111509F480C0811509F49D
:1038A0007DC08150990B4FEF489F9001499F300D8B
:1038B0001124E12FE150FF0B2E0F3F1F2150310942
:1038C00008F499CF8FE99FE00197F1F700C000005D
:1038D000F5CFC60136D98FCF6801A7E5DA1AC11432
:1038E000B1E0DB0650F569EF72E08C2DE0DD892B4D
:1038F00021F5C60134E0880F991F3A95E1F7FC01E4
:10390000E857FC4F2281213099F52091F90230913E
:10391000FA02232B91F02091FB023091FC02232B21
:1039200061F02091FD023091FE024091FF02509122
:103930000003242B352B232B19F1F70125802114AB
:1039400009F441C00E35FCE71F0729F10F352CE7BC
:10395000120741F00D353CE71307A9F580913D01B1
:103960008115C9F010923D0180E00E94741316C0C9
:10397000223019F72091FD023091FE02232BE9F24B
:10398000FC01E357FC4F20812E7F208388579C4FFA
:103990000E944F13D2CF81E080933D018091230498
:1039A0008770811561F0D70115968C91811539F0DA
:1039B0008091920482FF03C082E00E94C704629655
:1039C000E2E10C94993580913D01811148C0C80114
:1039D00097558115914008F0DEC05801F8EFAF22ED
:1039E000BB24A114B104D1F6F801FF2794E0EE0F37
:1039F000FF1F9A95E1F79F0128573C4F6901D701B6
:103A000015968C91E357FC4F908180FB90F9908341
:103A1000811509F4FEC10E947A0990930B048093EA
:103A20000A04F60182818F5F828380912204909143
:103A30001F04892B838380911B04848346815781D3
:103A400066857785C6010E94AF08D60115968C91D0
:103A500081FF5801B0920904A09208049CC028017B
:103A600050EE451A510830901C0480911F04382AEA
:103A700080911B04382A88E04816510408F05EC083
:103A800098012770332781E090E001C0880F2A95C4
:103A9000EAF7211409F44FC0382AD7018D919C917F
:103AA0000E94F90321E030E0F90102C0EE0FFF1F90
:103AB0008A95E2F7FA8BE98B20917E0330917F03A0
:103AC0003C872B874091860350918703588B4F8703
:103AD00025E0C22E23E0D22EA12CB12C311005C03E
:103AE000D60112968C9181111BC0F601838190E062
:103AF00029893A8982239323892B91F08085982FF5
:103B00009770911101C087E038E04316510408F026
:103B1000A8C0211409F4A1C0869581708111A6C0A6
:103B2000EFEFAE1ABE0AFFE0CF0ED11C28E0A216BE
:103B3000B104A1F61CC080953822AFCF21107AC005
:103B400080918603909187030817190781F41092DA
:103B500087031092860310928203109283031092BF
:103B60008403109285031092810310928003809148
:103B70007E0390917F03009709F429CF38E0431624
:103B8000510408F030C1632D0E94EE07811103C07B
:103B900081E00E9474138091840480FFAAC10E9476
:103BA0007A093C01F7018581811509F4B4C180913E
:103BB0003E0182FF06C040E0B30180E090E00E9439
:103BC000A7120431FCE71F0709F4A1C105312CE756
:103BD000120709F43BC103313CE7130709F47CC128
:103BE000C80190528115904308F03AC110920F0419
:103BF00010920E04F7019581911509F407C31092F4
:103C00001704980130572332310508F0FFC284E0D1
:103C100090E00E9426369093920480939104F801DC
:103C2000E150F047E232F10508F03AC2E257F94CB0
:103C30000C94DB3510938703009386030E94FB0AE4
:103C4000609382037093830380938403909385032E
:103C5000109281031092800320CF82FB882780F985
:103C60005DCF211409F45CCF80FF5ACFD6018D902F
:103C70009C900815190519F4211409F451CFEB850E
:103C8000FC85EC15FD0509F44BCFD6011D96ED9191
:103C9000FC91309721F08081811509F441CF632D8B
:103CA000C6010E94EE07811509F43ACF81E008159C
:103CB000190509F080E082218F838114910441F07D
:103CC000811106C0EF85F8898E169F0609F028CF6E
:103CD00080E00E947413D0927F03C0927E0381E043
:103CE00080937D038FE08A9DF0018B9DF00D112460
:103CF000EB5FFC4F8581809304032F8121110EC05F
:103D00008114910459F0808191819C0124503109E2
:103D1000213A310508F049C00E944B098FE08A9D85
:103D2000F0018B9DF00D1124EB5FFC4FC680D78016
:103D3000C6019A9581159F4110F440EED422992432
:103D40009394C60101978F339E4708F0912C8FE022
:103D50008A9DD0018B9DB00D1124AB5FBC4F19968D
:103D6000ED91FC911A97309731F01B966D917C91F3
:103D700081E0099598229114A9F08FE08A9DF001C5
:103D80008B9DF00D1124EB5FFC4F868197810E9483
:103D90004E038093030388E04816510448F4C6019B
:103DA0000E94270B0E94F20D0BC00E94EF0EB6CFAF
:103DB000C6010497813A910550F48C2D0E94170991
:103DC000BF81B11509F403CE0E94F20DE7CD0E9428
:103DD000F20DAFE3BCE91197F1F700C000008C2DA4
:103DE0000E94650EEDCFDC012D913C910217130767
:103DF00041F4211009C010927D0380E00E947413E9
:103E0000E6CD211409F4E3CDFC01808585FDDFCDED
:103E1000F4CFF9014485558566857785C9010E94EF
:103E2000AF08D60115968C9181FFB5CEC6010E94D0
:103E3000331380910804909109040817190709F0B9
:103E4000AACE1092090410920804A5CE90913E01CA
:103E5000892F8E7F90FF816080933E010E948A129D
:103E600080913E0180FF45C00832110508F069C00D
:103E70000E31110508F076C0C80104974A9788F5FD
:103E80008091840484FD2DC0D70115968C918115F5
:103E900009F4D5C080911B0490911F04892B8D7F5C
:103EA000811509F464C010920F0410920E048091E1
:103EB000840481FD5CC060E0C8010E94C80760E026
:103EC000C8010E94DF0E80911B048D7F0E94040AAE
:103ED00082E00E94C70462CD80913E0181608093A0
:103EE0003E01F7018581811521F010920F04109297
:103EF0000E04D70115968C91F801E851FC47E73084
:103F0000F10508F077CEE055F94C0C94DB35809143
:103F10003E018E7FA1CF80913E018F7E013E110533
:103F200031F0053E110531F480913E018F7D809383
:103F30003E0196CFC80190528115904308F090CF72
:103F400059CE0933110558F40D32110518F40B320E
:103F5000110539F68091840482FDC3CF95CF0436D4
:103F60001105F7CF8091840483FDBBCF8DCF87E00F
:103F7000F701A0E1B4E001900D928A95E1F710926B
:103F800013041092120480910E0490910F040817EC
:103F90001907C1F52091840425FF34C030913E01FA
:103FA00031FF02C026FF2EC020910C0430910D0479
:103FB0006301C21AD30A90DAC816D90618F580919F
:103FC0001F0481FF08C080913E01806180933E0103
:103FD00082E00E94E80480911F0485FF08C0809160
:103FE0003E01806280933E0180E20E94E80460917D
:103FF0003E016695617080910E0490910F040E94BD
:10400000DF0ECCCC80911B04D0901F04D82AD1FAAB
:10401000DD24D0F88D7F0E94040A10930F040093D2
:104020000E0470920D0460920C04DD0C6894D2F8BA
:1040300090913E01997FD92AD0923E0149CF40E02C
:10404000B301C8010E94A712A9CC06E221EE41EEFD
:104050006AE17CE75EDAA2CC07E225EE45EE6BE191
:104060007CE7F8CF06E221EE40EE68E17CE7F2CF94
:1040700007E225EE44EE69E17CE7ECCF06E221EEB3
:1040800042EE6CE17CE7E6CF07E225EE46EE6DE11D
:104090007CE7E0CF08E221E045EE6EE17CE7DACF95
:1040A0008091910481608093910481E994E00E9461
:1040B000B20D0E94520F72CC80919204886080935E
:1040C0009204F3CF809191048260EDCF80919104AE
:1040D0008460E9CF809191048860E5CF809192045B
:1040E0008160EDCF809192048260E9CF809191044C
:1040F0008061D9CF809191048062D5CF8091910465
:104100008064D1CF0E94520F809191048068CBCF00
:10411000809191048C60C7CF809192048360CFCF4F
:10412000809191048E7FBFCF80919204877FC7CF0B
:10413000809191048D7FB7CF809191048B7FB3CF15
:1041400080919104877FAFCF809192048E7FB7CF0B
:10415000809192048D7FB3CF809191048F7EA3CF05
:10416000809191048F7D9FCF809191048F7B9BCF15
:104170000E94520F809191048F7795CF8091910486
:10418000837F91CF809192048C7F99CF809191040D
:10419000992782FF939590FB82F990FB83F983CF57
:1041A00080919204982F909590FB80F990FB81F973
:1041B00086CF90919104892F8F7B96FF806473CF77
:1041C0000E94520F90919104892F97FB87F9805894
:1041D0006ACF61E08EE090E00E943A3666CF60E000
:1041E000F9CF90919104892F8F7E94FF80615BCFEE
:1041F00090919104892F8E7F90FF816054CF909190
:104200009204892F877F93FF886059CF0631FCE79E
:104210001F07C1F580911F043091830430FF04C053
:10422000282F2474211122C0282F2A7A31FF04C09C
:10423000482F4171411120E032FF04C0482F4878D7
:10424000411120E033FF03C08272811120E09115FB
:1042500079F081E0211101C080E08093180485E3AA
:10426000211101C089E20E941709AECD20E0DECF06
:1042700080911804811521F085E30E944B09A4CD9B
:1042800089E2FBCF07372CE71207F9F008373CE744
:10429000130731F19801205E32452032310528F5AF
:1042A00091113BC00F7181E090E0AC0102C0440F5E
:1042B000551F0A95E2F78A01642F83E090E00E947F
:1042C0003A36802F0E94A50369CB81E0911551F009
:1042D0000E94AB0343E062E081E00E942D045ECBCC
:1042E00082E0F4CF0E94B503F5CF9115B1F00A3505
:1042F0005CE7150709F493C008F06AC001309CE739
:10430000190709F48AC00330ACE71A0709F47FC023
:104310000115BCE71B0709F46DC0F7018581C0805A
:10432000D180811509F47FC0C6010E94D418182FCE
:10433000682FC6010E94C303B601812F0E94B918DD
:104340000E94EB05182FD92E86E0F701DE011196A9
:1043500001900D928A95E1F7D7011596CC901597AB
:1043600016969C9092948FE09822809123048770F7
:10437000811501F18C2CC114F1F0892F807F8034DC
:1043800061F080E2810F8830A8F0892F807E803232
:1043900021F4123078F0911469F08091920482FF38
:1043A00009C082E00E94C70480912304877088249A
:1043B00083948111812C8D2D82958F70A82EB12C24
:1043C0008C3008F04FC0F501E954F94C0C94DB3502
:1043D0000B35ECE71E0729F180919204002482FF3F
:1043E0000394802D0C35FCE71F0709F096CF0E943F
:1043F000B90D93CF0E94520F2FEF34E34CE02150C0
:1044000030404040E1F700C000000E94680B6FEFB1
:104410007FEF80E090E00E9454360E947E0F81E0A2
:10442000E6CF80E0E4CFC6010E94F903182F84CFC5
:104430000D2D0F70B0E1DB1610F00295007FC11456
:1044400009F449C0011559F080E2810F883010F05D
:1044500011113BC0802F0E94E2040E94F20D812FB7
:104460000E94650EE8E0AE1AB108F4E0AF16B104A0
:1044700018F40E94B408812C812F9D2D0E94810385
:10448000811541F0C11409F411C2911409F405C257
:10449000109295048114A1F08091230480FD10C036
:1044A000F70115828695869586950E94AB03C70114
:1044B00093D8809123048695869586950E94B503AE
:1044C00060E0C7010E9432197ACA80912204802BD1
:1044D00080932204C2CF812F0E94EF0E011511F2AA
:1044E00080E2810F883010F0111104C0802F0E94EB
:1044F000E80406C000958091220480238093220462
:104500000E94F20DAFCF0D2D0F708D2D807F803268
:1045100011F00295007F111549F0113009F473C0B4
:10452000C11409F47FC09114D9F099CF80919204FD
:1045300082FD12C0C11449F0011529F0802F0E949C
:10454000E2040E94F20D80E08BCF80E00E94EF0E2B
:10455000011509F487CFCACFC11491F1911004C09D
:10456000802F0E94460E7ECF21E0921211C07090E3
:104570001B04802F8721081709F474CF0E947A0941
:1045800090931A0480931904702A70921B046ACFC6
:1045900080918504823008F465CF981263CF802F14
:1045A0000E94460E802F0E94EF0980911C04902FDC
:1045B0009823091709F456CF802B80931C0452CFFF
:1045C000911012C0802F0E94550E802F0E94EF097B
:1045D00080911C04902F9823911509F443CF0095E6
:1045E000082300931C043ECF80918504823008F498
:1045F00039CF31E0931236CF80911F04802381158B
:1046000009F430CFDFCF80918B04C11421F08915DC
:1046100008F428CFA5CF981608F024CF802F0E9449
:10462000550E20CF9114D1F38091890490918A0482
:10463000193321F080918704909188040E94030D22
:10464000812F0E94EF0E0ECF8D2D8695869583705B
:10465000811569F0813009F005CF812F9D2D937070
:10466000C11002C080E090E00E94EF08FBCE812FD5
:104670009D2D9370C11002C080E090E00E94C70899
:10468000F1CE6C2D812F0E94400AECCE8D2D8370CF
:10469000811133C0C110E6CE412F42954695477037
:1046A000440F440F812F8F70042E01C0880F0A948D
:1046B000EAF7212F207114FF07C02FE030E001C07E
:1046C000220F4A95EAF720953D2D369536953370A1
:1046D000323071F0333051F040911D04313029F007
:1046E000822B84230E94A503BDCE842B822BFACF7C
:1046F000822B90911D048927F5CFC11459F1D0FE6A
:10470000B1CE412F429546954770440F440F812FFB
:104710008F70042E01C0880F0A94EAF7212F2071B0
:1047200014FF07C02FE030E001C0220F4A95EAF7DE
:1047300020953D2D369536953370323089F03330E3
:1047400069F040911E04313041F0822B84230E9495
:10475000A80388CE8230A8F685CE842B822BF7CF93
:10476000822B90911E048927F2CF0D2D0F70C1145A
:1047700029F0802F0E94AB03812FF3CE812F0E945E
:10478000550E802F0E94B5036DCE123F71F160F47B
:10479000103FB9F0113F81F0C11409F479C09110B4
:1047A0005ECE8D2D8F7125C0133F31F1143FA1F7DF
:1047B0008091920482FD2CC08D2D8F71C11411F354
:1047C00018C080918B04C11461F0981608F04ACE8D
:1047D0002D2D2F7181E090E001C0880F2A95EAF716
:1047E000C0CF891508F43ECEF3CF8D2D8F71C11047
:1047F000C9CF0E94AB0336CE80E0C11409F4A7CF25
:1048000081E09D2D9F7101C0880F9A95EAF79FCF97
:1048100080918504823048F1C114C9F0909123043D
:104820009770943059F4109223041092250410923A
:1048300024048D2D8F710E94B5031BCE63E0981662
:1048400008F017CE8D2D8F710E94DB0912CE9816BD
:1048500040F010922304109225041092240464E086
:10486000F1CF81E00E94C70404CEC11431F063E0AF
:104870008D2D8F710E94DB09F5CD81E00E94C70468
:1048800042E0941608F4EECD82E00E94C704EACD1F
:104890009110CACE8D2D8F7175CF80912104809398
:1048A000200480911F0480932104F4CD40E060E057
:1048B00089819A810E9416198D879E8700911F0415
:1048C000911429F01092950400932104E3CD809176
:1048D000930490919404AD85BE85A817B907A1F7FC
:1048E0008091860482FFEECF80919504811551F36B
:1048F000809120040E94460E812F0E94470F8091D4
:1049000020040E94550EDECFA0E0B0E0EAE8F4E219
:104910000C94883580916804803108F049C08091FA
:104920006704811509F444C0C091290487E0D82E9A
:10493000809128048C17E1F1EC2EF12CDC9EE00133
:104940001124FE01E65DFB4F84818115B1F1918157
:1049500080916304981331C0908180916204981310
:104960002CC08581811129C002811381809164044A
:1049700090916504081B190B60E082E694E00E94A8
:1049800032190E946C1A08171907B8F4809168044C
:104990008F70806180936804C05DDB4F88818F7069
:1049A0008061888382E694E00E94EC1A0E94BD0434
:1049B000CDB7DEB7E7E00C94A435E7012196C770C8
:1049C000B7CFCF92DF92FF920F931F93CF93DF93D6
:1049D000182F092F87E0F82EC09129048091280410
:1049E000C81799F1FC9EE0011124CE01865D9B4F12
:1049F0006C01FC018581811589F0C6010E940B19AB
:104A0000811561F0FE01E05DFB4F20812F70206178
:104A10002083F601808191810E94930FC6010E943C
:104A2000EC1A2091290430E02F5F3F4F2770332785
:104A300020932904C65DDB4F89818013CDCF888107
:104A40008113CACF8D81811539F2DF91CF911F91EA
:104A50000F91FF90DF90CF900895EF92FF920F9308
:104A60001F93CF93DF93EC0180913F01811539F0C3
:104A700010E0812FCDB7DEB7E6E00C94A535EA80D3
:104A8000FB80E61AF70A24EFE21621E0F20680F72F
:104A900060E0CE010E9432198C0190528115904342
:104AA00038F7C8010E948804811511F38091F7023C
:104AB0009091F8020E948804182F8115C9F2809104
:104AC0008F0490919004853F21E0920710F084EFCD
:104AD00091E0E816F90660F68E818F7080618E8312
:104AE000888199810E94930F0E944C04CE010E94FC
:104AF000EC1ABFCFAEE0B0E0E0E8F5E20C947D3513
:104B00008C0186E0F801DE01189601900D928A95DD
:104B1000E1F7D801BC91BE87F8012180E280F380E3
:104B20004480558051100CC05091DB02252F30E09D
:104B3000E0E08E2F0E2E000C990B821793073CF1AC
:104B400052E6A52E54E0B52E80916604811152C024
:104B50004114D1F0511409F414C3C8010E940B1977
:104B6000811509F40EC36091260470912704C801D1
:104B700074DF811109C087E0F801A2E6B4E001907A
:104B80000D928A95E1F7C0DEFF24F3948DC0880F63
:104B9000991F85539D4FDC0111964C91119742113D
:104BA00004C08C91BE85B81711F0EF5FC2CFEF3F04
:104BB00039F2D80116968C9116978F7080611696EF
:104BC0008C93E517A0F4AFEFA50FA093DB02EA17D3
:104BD00070F4F0E0EE0FFF1FE553FD4FB0E0AA0FB9
:104BE000BB1FA553BD4F8D919C91918380830E94E3
:104BF0004C04A6CF60E082E694E00E9432193C01AA
:104C00003090670480916404909165044701881A8C
:104C1000990A60E082E694E0311409F456C20E94D9
:104C200032190E946C1A8816990608F00CC24114B9
:104C300009F4AACF80916304F8019181B0906804CF
:104C4000F0E1BF1608F0C8C1981350C090916204FB
:104C5000D8018C9198134AC0511048C08B2D8F7089
:104C600080618093680482E694E00E94EC1A80914F
:104C70006804F8018683F0906404E090650447E0DE
:104C8000D42E0091290480912804081751F0D09E59
:104C900080011124065D1B4FD80115968C9181115E
:104CA00008C00E94BD04F12C8F2D2E96E2E10C94D9
:104CB0009935F801B280C380C8010E940B19811197
:104CC0000EC0C8010E94EC1A8091290490E0019660
:104CD0008770992780932904FB2CEC2CD2CF6F2D61
:104CE0007E2DC801BADE8111EFCFDBCFF0E27F1A53
:104CF000611420E3720608F082C0511005C140E043
:104D0000622D8E850E94E40C81114DC040E0622D21
:104D10008E850E94E40CF82E811509F429C180913A
:104D2000860480FFC0CF82E694E00E94EC1A60E027
:104D300082E694E00E9432196C0110912904712ED0
:104D400008E022E6822E24E0922E37E0432E809166
:104D500028047816A1F0A72CB12C479CC00111247F
:104D6000FC01E65DFB4F7F0160E0CF010E9432193C
:104D7000582E692ED70115968C91811196C097E017
:104D8000F92E083008F4BDC0888599851ADE0E9486
:104D90004C040E94BD0487E0E2E6F4E0DF011D92CE
:104DA0008A95E9F780CF60E0C8010E9432198091AE
:104DB000860483FFABCFB80182E694E00E945904D9
:104DC0008111A4CF809168048F7080618093680402
:104DD00080916204909163040E94930F82E694E0B4
:104DE0000E94EC1AE2E6F4E087E0DF011D928A956A
:104DF000E9F788859985E5DD0E944C0452CF51146E
:104E000009F484CF80916804816080936804809164
:104E1000860481FF48CF82E694E00E94EC1A00915C
:104E2000290480912804081709F4CEC0E02EF12C43
:104E3000B7E00B9FC0011124FC01E65DFB4F6F0141
:104E4000CF010E940B19811509F4BEC087E0F6015D
:104E5000A2E6B4E001900D928A95E1F7C7010196B0
:104E600087709927082F809329040E94BD0487E04A
:104E7000F82E80912804801709F413CFF09E80014A
:104E80001124065D1B4FC8010E940B19811109CF27
:104E9000C8010E94EC1A8091290490E00196877065
:104EA0009927082F80932904E4CFC60190528115D9
:104EB000904308F064CF8091860483FD0AC0072DDB
:104EC000C5010196E82FE7707E2EC52CD62C470130
:104ED0003ECFB701C4010E945904811589F3EFCF79
:104EE000F19EC0011124865D9B4F0E94EC1A209117
:104EF000290430E02F5F3F4F27703327122F209374
:104F000029040113EDCF40CF809168048160809324
:104F1000680460E0C8010E9432198091860483FF12
:104F200076CFB80182E694E00E94590481116FCFD8
:104F3000F0906804E894F0F8F0926804C8010E94C8
:104F40000B198111B0CE8F2D8F7080618093680412
:104F500080916204909163040E94930F0E944C041C
:104F600082E694E00E94EC1AE2E6F4E087E016CFD5
:104F7000888599850E94FE18292F22952F709034DC
:104F800050F49F70223080F0911599F0F8019681CD
:104F9000903178F489CE2A5F2F70223078F0C801E2
:104FA0000E94EC1AF32C80CE911519F0811509F4AA
:104FB0007BCE805E883008F477CEF1CF803F08F456
:104FC00073CE815F8330F7CF87E0E2E6F4E0DF0164
:104FD0001D928A95E9F74BCF981315C09091620402
:104FE000F801808198130FC051100DC0B682C8011E
:104FF0000E94EC1A87E0F801A2E6B4E001900D925D
:105000008A95E1F7C1CDC8010E940B19811509F4F9
:10501000B8C0511409F4B5C080916804803208F416
:10502000AACD80916204909163049A838983FC8263
:10503000EB82809166048D831E82BF82CE01019631
:105040000E94EC1A98CDD0906804F0E1DF1638F495
:1050500082E694E00E94EC1A87E0D501A0CE4114CC
:1050600009F492CD90916304F8018181981311C0E5
:1050700090916204808198130CC051100AC0D682AE
:10508000C8010E94EC1A87E0D5011D928A95E9F7C4
:105090007BCDC8010E940B19811509F472C051140F
:1050A00009F46FC080916804803208F464CD809167
:1050B0006204909163049A838983FC82EB828091DD
:1050C00066048D831E82DF82B9CF0E9432190E944E
:1050D0006C1A8816990608F058C0411409F454CD8A
:1050E000511409F44EC090916304F8018181981322
:1050F00030C090916204808198132BC08091640429
:1051000090916504E81AF90A60E082E694E00E9452
:10511000321980918D0490918E04E816F90608F0FA
:1051200069CF8091680480FD65CF803108F462CF3B
:10513000D80116968C931697982F907F903F09F47C
:1051400056CF982F907F905F8F70892B16968C93F7
:105150004ECFC8010E940B19811571F06091260491
:1051600070912704C80179DC811509F404CD87E02A
:10517000E2E6F4E0DF0189CF8091680481608093EA
:105180006804C8010E94EC1AFFCC87E0F501119277
:105190008A95E9F788CDABE1B0E0E1EDF8E20C9457
:1051A00087354E8B5F8B688F798F082F8A8F192FE9
:1051B0009B8FD82EC92E811509F4A1C040E0692F1C
:1051C0008E899F890E9416197C01111549F0109251
:1051D00095049093940480939304109222040AC03F
:1051E00080919304909194048E159F0519F481E0A9
:1051F000809395041D8A86E0FE017696DE011F9657
:1052000001900D928A95E1F78091920482FF21C06E
:1052100080916B0490916C04892BD9F00E947A09DB
:105220002091240430912504821B930B20916B0460
:1052300030916C048217930738F08091230482FD2B
:1052400003C082E00E94C7040E94860981110E9467
:10525000F004D11461F00B8B1C8B61E0CE010F9632
:105260000E94321961E0CE010F960E9432190B8B19
:105270001C8B87E0FE013F96DE01189601900D928F
:105280008A95E1F7CE01089635DC811110C0209196
:1052900028043091290487E0FE013896DE0111963A
:1052A00001900D928A95E1F78C8581112CC017E051
:1052B0008091290490912804891741F0189FC0011A
:1052C0001124865D9B4F16DC811144C08C858111B1
:1052D00012C080913F0181110EC08A859B8520916B
:1052E000260430912704821B930B8F3F9F4318F0B5
:1052F00081E080933F016B96E8E00C94A335911513
:1053000009F478CF6ACF822F90E0019687709927B1
:105310003817190671F40E94520F10922804109247
:10532000290487E0E2E6F4E0DF011D928A95E9F7BF
:10533000BECF97E0929FD0011124A65DBB4FFE0126
:10534000319601900D929A95E1F7809328040E947E
:10535000BD04ADCF8091290490E001968770992714
:1053600080932904A5CFA6E0B0E0E9EBF9E20C9424
:105370008B350E947A098C0180919F029091A00246
:105380008017910771F019821A820E947A09BC0174
:1053900049815A8180E090E0FEDE1093A0020093E4
:1053A0009F022696E4E00C94A735A6E0B0E0EBED72
:1053B000F9E20C948D359C0190939C0280939B02A2
:1053C000211580E2380738F4C9010E94CA0E2696DA
:1053D000E2E00C94A93580EF89838A830E947A09E0
:1053E0008160BC0149815A8181E091E0D4DEEFCF38
:1053F000A6E0B0E0EEEFF9E20C948D359C019093BD
:105400009C0280939B02211580E2380738F4C90181
:105410000E941A0F2696E2E00C94A93580EF89834A
:105420008A830E947A098160BC0149815A8181E0A6
:1054300090E0B1DEEFCFCF93DF93D82FC92FB5DF48
:1054400080918704909188040E94030D8D2F9C2FDA
:10545000CFDFDF91CF9108950F931F93CF93DF9309
:105460008C01862F69EF72E00E94571A892B91F404
:10547000C091F902D091FA02209761F0F80182817F
:10548000833039F4CE01D7DFCE01D5DFCE01D3DFB3
:1054900001C0E0F7DF91CF911F910F9108950F9315
:1054A0001F93CF93DF938C01EB0169EF72E08C2F98
:1054B0000E94571A892B09F057C0FE01FF27D80117
:1054C00012968C911297ED5BFD4F8130A9F41596E1
:1054D0008C9182FD4EC080FF4CC082E08083809121
:1054E000FB029091FC020097B9F48091F90290912F
:1054F000FA020097C9F110C08230A1F515968C917F
:1055000082FD26C080FD0AC083E080838091FD0279
:105510009091FE020097F1F048DF26C084E080837E
:105520008091FF02909100030097B1F78091F902FA
:105530009091FA02009701F17EDF8091FB02909139
:10554000FC02009749F78091F9029091FA02E4CFAA
:1055500085E080838091F9029091FA02009721F012
:105560006ADFF1CF86E08083DF91CF911F910F91A9
:10557000089581E08083B9CF8091FB029091FC0275
:10558000B8CF0F931F93CF93DF938C01EB0169EF9B
:1055900072E08C2F0E94571A892BA1F48091870406
:1055A000909188040E94030DDD27CD5BDD4F88813B
:1055B000F801128218828330E9F048F4813059F002
:1055C000823081F0DF91CF911F910F910895843047
:1055D000B1F08530B9F78091F9029091FA02009705
:1055E00089F306C08091FB029091FC02009799F329
:1055F000FFDEE8CF8091FD029091FE02F7CF80910F
:10560000FF0290910003009799F72091F9023091E1
:10561000FA028091FB029091FC0221153105F9F20A
:10562000009731F7C901E4CFA0E1B0E0EAE1FBE285
:105630000C947F35FE01319680E1DF011D928A9541
:10564000E9F70DE010E091E3A92E93E0B92E2FECDD
:10565000422E512C612C712C4F0173016201B1E17A
:105660004B165104610471041CF080E1C82ED12C4A
:10567000A601B501C4010E942B36AC0CBD1C0D2C3B
:10568000000CEE08FF084C185D086E087F080150FA
:10569000104019F76096E0E10C949B356FEF85E2BE
:1056A00090E00E943A366FEF86E290E00E943A3630
:1056B0006FEF87E290E00E943A3660E088E290E087
:1056C0000E943A360E946319AFDF69E285E290E0FA
:1056D0000E943A3667E986E290E00E943A3662E438
:1056E00087E290E00C943A36CDB7DEB7AE970FB6AE
:1056F000F894DEBF0FBECDBF85B7806885BF85B784
:10570000806885BF84B7877F84BF0FB6F894A8955B
:1057100080916000886180936000109260000FBEED
:1057200080E890E00FB6F894809361009093610058
:105730000FBE81E080933C0187EE96E09093D1010B
:105740008093D0010E9411070E94D8190E94161858
:105750000E94220C0E948A0C8091E2008460809357
:10576000E2007894809177028115A1F08091E900A0
:10577000F090EC008F70F794FF24F794F82A1092C1
:10578000E9008091E80083FD0E94C70F8F2D8F7084
:105790008093E90082E084BD93E095BD9AEF97BDC8
:1057A00080936E00109297021092980210929902C4
:1057B00010929A020E944A19811101C06FDF8091F4
:1057C000D80080618093D8002AE12A95F1F700C0C3
:1057D0008091D900382F3170F32E80FD04C00E94D3
:1057E000220C10927702F0929502F0929602F092BB
:1057F0000401F1100E942A34809104018091040177
:1058000091E08927880F880F8093540294E0981BB9
:105810009093530284E90E94E90686E60E94E90615
:1058200087E90E94E90686EC0E94E906ECE5EE2E87
:10583000E1E0FE2EF2E6CF2EF1E0DF2ED7018D91D2
:105840007D018F3F11F00E94E906CE14DF04B1F70D
:1058500088E0EFE6F2E0DF01282F1D922A95E9F7B4
:10586000EBE4F2E0DF011D928A95E9F780E090E039
:105870000E942636833E9E4F21F40E944A198111D0
:1058800029C063EE7EEF80E090E00E94543660E035
:1058900082E090E00E943A3681E080931D0461E04E
:1058A00083E090E00E943A36198284E18A83CE0137
:1058B00001960E94B20DF2DE40E050E0BA018FE0A6
:1058C00090E00E944C3640E050E0BA0183E190E065
:1058D0000E944C3682E090E00E941E368093570270
:1058E00084E090E00E942636909392048093910485
:1058F0000E942514EFEFF6E721E0E150F040204050
:10590000E1F700C000000E942514E091960281E0BA
:10591000E827EE0FEE0FF0E0E159FD4F808181FFA7
:1059200008C06FEF7FEF80E090E00E9454360E9445
:10593000680B83E090E00E941E360E94A5038091D0
:105940009502811101C089D785E091E09093C20250
:105950008093C10280917702853049F4809177026B
:10596000853009F452C00E94520F0E94B4080E9470
:10597000251468E5E62E62E0F62E7FE6C72E72E07B
:10598000D72ED601F70191918D9120E632E02E17A6
:105990003F0709F46FC09817B1F340909502B12CFE
:1059A000D601AD906D01F70151907F015A1431F18C
:1059B0005A24712C66246394862D85218115B9F0B3
:1059C0004114A9F07982BA820E947A099C838B8360
:1059D000F1E0FD8391E0862D8A21811101C090E0E4
:1059E0009E8349815A816B817C818D81D4DB739444
:1059F000660C26E07212E0CFF701A292B39438E071
:105A0000B312CECF0E94070B38C08091770284304A
:105A100021F11092550248E150E080E40FB6F8946D
:105A2000A895409360000FBE8093600083B7817F8C
:105A3000846083BF83B7816083BF7894889583B780
:105A40008E7F83BF0FB6F894A8958091600088611F
:105A500080936000109260000FBE0E942514EFE654
:105A6000F2E081918111D8C4A7E7B2E0AE17BF0779
:105A7000C1F774CF981391CF76DC80919502811590
:105A800009F48DC0E0908003F0908103E114F104EB
:105A900091F14090640250906502609066027090AF
:105AA00067020E94FB0A64197509860997094090EC
:105AB000600250906102609062027090630264150F
:105AC000750586059705B8F0C7010E94CA0E1092A9
:105AD000800310928103109264021092650210926A
