:1000000016C3000031C300002FC300000C94BA33A4
:100010002BC3000029C3000027C3000025C3000034
:1000200023C3000021C300000C94EE310C94D6329F
:100030000C94A33119C3000017C3000015C30000BE
:1000400013C3000011C300000FC300000DC3000064
:100050000BC300000C94CA3107C3000005C30000A5
:1000600003C3000001C30000FFC20000FDC2000086
:10007000FBC20000F9C20000F7C20000F5C2000098
:10008000F3C20000F1C20000EFC20000EDC20000A8
:10009000EBC20000E9C20000E7C20000E5C20000B8
:1000A000E3C20000E1C20000DFC200000501090256
:1000B000A10185020901A1000509190129081500FE
:1000C0002501950875018102050109300931158165
:1000D000257F95027508810609381581257F9501D0
:1000E00075088106050C0A38021581257F95017572
:1000F000088106C0C005010906A10185060507198A
:10010000E029E71500250195087501810205071909
:100110000029EF1500250195F075018102050819E8
:10012000012905950575019102950175039101C09D
:100130000660FF0961A1010962150026FF009520F4
:10014000750881020963150026FF00952075089146
:1001500002C005010906A101050719E029E71500FC
:100160002501950875018102950175088101050732
:10017000190029FF150026FF009506750881000566
:1001800008190129051500250195057501910295AC
:100190000175039101C00000000000000000000094
:1001A000000000000000000000000000000000004F
:1001B000000000000000000000007E0F00D4FFFFE0
:1001C000FFC70000007800000000000000002A2B9C
:1001D00028000000000000000000000000000000F7
:1001E0000029000000002C1E342021222434262760
:1001F000252E362D3738271E1F2021222324252681
:100200003333362E37381F0405060708090A0B0C4E
:100210000D0E0F101112131415161718191A1B1C96
:100220001D2F3130232D350405060708090A0B0C54
:100230000D0E0F101112131415161718191A1B1C76
:100240001D2F3130354C09025B00030100A0FA0973
:1002500004000001030101000921110100012244F1
:1002600000070581030800010904010002030000E2
:10027000000921110100012222000705820320004C
:100280000107050303200001090402000103000027
:1002900000092111010001228400070584032000C8
:1002A0000112010002000000085346010001000194
:1002B0000203011C037600690061006C003A0066CD
:1002C0000036003400630032006200330063000037
:1002D000000C0343006F0072006E00650000001008
:1002E0000366006F006F007300740061006E000011
:1002F0000004030904000014001A00080015001788
:1003000000000004001600070009000A0000001D9C
:10031000001B00060019000500000000000000E0BE
:10032000002C0021520000130012000C0018001CC9
:1003300000000033000F000E000D000B000000381D
:10034000003700360010001100000000000000E23D
:1003500000E10022520100010013042513011700DF
:1003600000020002000F0425130117000003000122
:1003700000140425130117000004000200F90325EE
:10038000130117FD060500010015042513011700D0
:100390000006000200FB03251301170000070002FE
:1003A00000110425130117000009000200FD0325B8
:1003B00013011706070A000200FF032513011706A1
:1003C000070B00020001042513011706070C0002A9
:1003D0000003042513011706070D0002000504257C
:1003E00013011706070E0002000704251301170664
:1003F000070F000200090425130117060710000269
:10040000000B04251301170607110002000D042537
:100410001301170607120002001704251301170025
:100420000013000200190425130117000014000135
:10043000001B042513011700001500000000002B0D
:1004400007000F00001600010016043C13171700E8
:10045000001700010116043C1317170000180001D3
:100460000216043C1317170000190002001D042592
:1004700013011700001A00010316043C131717009C
:10048000001B0002001F04251301170000FD377A2E
:10049000585A000004E6D6B44602002101160000B6
:1004A00000742FE5A3E00404012E5D003D8889C699
:1004B0005436C3174FE4DCCBB3DF6320E7D71739DB
:1004C000D83D5F52C90BECB7E6D5195224B073671B
:1004D00059B3E0B456C74788C96520CF4A3C940C4D
:1004E000015E29865C8E4576A9EB7FD2E231701ED3
:1004F00067C9402BA3BE6E98A8433D32C19348C143
:10050000ADE377E523A546D114F3733C3854F3C328
:10051000228D2986785157A2FA3EA7F6DE4F32C9BE
:1005200047E7CA5EA787F8E4D5A5393D969ADF2448
:100530004B78524AB7DC9E4828B0A54892EE429BC1
:10054000632FAC4ACFA6DC808A897CF0C6CE4BCB29
:10055000B2298ACA87ECACC96F1E6F80A5ECA0C413
:1005600095C61A8BA14AD346CAF0814A6C5F8F6345
:1005700038B617128289DB6CFF873A0DEF9FDB9F3D
:10058000B94D4802B862B7295B403FFA0C44D52503
:100590005B2665FB9C09C4C2E05F789CB0335D2795
:1005A0004EA7275884A03015C954F7F94827A1F160
:1005B000BF0D3132DAEF92305B85C9D1FF110420D3
:1005C0007C40969D1813D13ED7DED795B94D407823
:1005D0004674E14D4138F4B071E70000005B25FA44
:1005E000175344D6B60001CA0285080000DEAD727A
:1005F000DDB1C467FB020000000004595A004C4CF6
:100600004C4C4C004C4C4C4C4C004C4C4C4C4C000E
:1006100000004C4C4C005252525252005252525214
:1006200052005252525252000000525252001124B3
:100630001FBECFEFDAE0DEBFCDBF11E0A0E0B1E03A
:10064000E8E4FCE602C005900D92A436B107D9F7A4
:1006500024E0A4E6B1E001C01D92A632B207E1F7A2
:100660000E94C02A0C94BB35CBCC9C019A95811575
:100670009F4118F5F32FF270EE27832F8170732FAF
:1006800074706627532F5870442734FF0CC082952E
:10069000807FEF2B09F08062672B09F08064452B87
:1006A00069F080680895EF2B09F08260672B09F0EC
:1006B0008460452B19F08860089580E00895CF93F9
:1006C000DF93EB01D2DFFE010995DF91CF91089511
:1006D000282F92959F70963099F060F4925F9F70EA
:1006E000923030F4203FB1F038F481E0283E38F009
:1006F00080E008959A5FF3CF81E0243FC9F7089521
:1007000091E0813F09F090E081E0283E08F080E030
:10071000892B089581E008958093AD030895809317
:10072000AE03089521E030E001C0220F8A95EAF778
:100730008091AE03822BF3CF21E030E0A90102C00B
:10074000440F551F8A95E2F7CA0180959091AE0338
:100750008923E5CF292F983090F5863080F590E0F9
:1007600036E0239F800D911D1124282F277041E032
:1007700001C0440F2A95EAF723E0969587952A95BC
:10078000E1F7FC01EE0FFF1FE80FF91FE459FD4FE1
:1007900020E030E070E05191DF01CB01022E02C079
:1007A000969587950A94E2F7817081958527842331
:1007B00085278E932F5F3F4F2330310561F70895D2
:1007C000292F983078F5863068F590E036E0239F41
:1007D000800D911D1124682F677023E096958795F1
:1007E0002A95E1F7FC01EE0FFF1FE80FF91FE4590E
:1007F000FD4F40E050E080E0219130E0062E02C045
:10080000369527950A94E2F721703327042E01C00C
:10081000220F0A94EAF7822B4F5F5F4F4330510556
:1008200059F7089580E008959091AE0321E030E0FB
:10083000F90101C0EE0F8A95EAF7D90102C0AA0FAB
:10084000BB1F6A95E2F7EA2B01C0220F4A95EAF72F
:10085000892F8E23E81303C0892F822B60CF209528
:10086000822F8923FBCF80916B0290E020E0022E43
:10087000001C0008281709060CF008952F5FF7CF19
:10088000FC01DB018481813041F514968C91149731
:10089000813019F5918186E0E081F0E0899FE00DDB
:1008A000F11D1124E350FA4F94919A32B1F0119650
:1008B0002C911197EC91F0E0829FE00DF11D112435
:1008C000E350FA4FE49181E09E1301C080E091E093
:1008D000EA3209F090E0892B089581E008959C01A7
:1008E0008091AF038D79811119C0211540E534073E
:1008F00080F4211580E23807C0F42333310511F16B
:10090000D0F481E02E31310590F42430310530F0FF
:100910000895C90196558115914010F080E0089521
:10092000C901805F96450797C8F33327E6CF2C327D
:100930003105A1F708952653310981E023303105AF
:1009400038F3ECCF81E008958091B9039091B8031A
:10095000981301C008958F5F8770FACF9091B30309
:10096000809589238093B303282F2770211110C00D
:10097000891771F09091220492FF0AC0869586959E
:100980008695DADE1092B3031092B5031092B40389
:1009900008959091AF03982B9093AF030895982FEB
:1009A00090958091AF0389238093AF030895809140
:1009B000AB03811531F01092AB031092AA03109291
:1009C000A90308959C01803E910509F448C0D8F41C
:1009D0008133910509F47DC048F48932910509F409
:1009E0006DC08A9709F47CC0C901089589339105C7
:1009F00051F18238910539F1C597B1F78091210401
:100A000085FFF2CF29C0843E910509F447C048F420
:100A1000823E910599F1833E9105A9F121EE30E0E6
:100A2000E3CF863E910509F444C0873E9105E1F687
:100A30008091210483FD61C09091220491FF2BC01D
:100A400024EE30E0D1CF809121048370811152C017
:100A50008091220483FFC8CF29E230E0C5CF809186
:100A6000210480FD33C09091220490FFBDCF23EE7E
:100A700030E084FFB9CF20E030E0B6CF8091210490
:100A800082FDF5CFB1CF8091210482FD30C09091DD
:100A9000220490FD2FC084FFA7CFEDCF80912204C8
:100AA00081FFA2CF8091210427EE30E084FDE3CFC7
:100AB0009BCF8091210483FDF7CF96CF80912104B5
:100AC00085FD1EC08091220483FF8ECF29E330E094
:100AD0008BCF8091210486FF87CF2AE230E084CF3C
:100AE0008091210486FF80CF21E330E07DCF22EE8C
:100AF00030E07ACF20EE30E077CF26EE30E074CFD2
:100B000025E330E071CF9091210492FF10C041E0C5
:100B1000282F2471243009F040E031E0282F28717B
:100B2000283009F030E0431711F02CE0822793FFC2
:100B300010C041E0282F2471243109F040E031E059
:100B4000282F2871283109F030E0431711F02CE0EC
:100B500082273091220430FF10C051E0282F2171EC
:100B6000213009F050E041E0282F2871283009F0A9
:100B700040E0541711F029E0822731FF10C041E016
:100B8000282F2171213109F040E031E0282F287110
:100B9000283109F030E0431711F029E0822794FD55
:100BA000877E08951F93CF93DF930CDFEC018115AF
:100BB00022E5920708F044C0811540E5940708F04B
:100BC000BAC0883E9105E0F4803E910560F4853A14
:100BD000910570F4049738F481E0219709F080E0E2
:100BE000C82F50E0D52FCE01DF91CF911F910895EE
:100BF0008D5C9109D0654397B0F3C0E0D0E0F3CFAE
:100C0000C11580E4D80798F4C11590E2D90708F01F
:100C1000A8C0CE019A9581159F4178F78D2F73DF7B
:100C2000182FCE019927CEDEEC01D12BDCCFCE01DF
:100C30009927C8DECC27DF70C82BD92BD06AD3CF39
:100C4000803842E59407C8F5803652E5950708F0EC
:100C500056C0C03482E5D807D0F4C03292E5D90737
:100C600008F046C08C2F8695869520E2829FC001B1
:100C70001124C37021E030E0A90102C0440F551FC8
:100C8000CA95E2F7EA01C82BD92BDD68ACCF8C2FCF
:100C900086958695877050E2859FC0011124C370A8
:100CA00021E030E0A90102C0440F551FCA95E2F7C8
:100CB000EA01C82BD92BDC6896CF803C52E595071A
:100CC00058F48F71C03AD24578F590E0982F882774
:100CD000EC01C46FD06A87CF805C9245809708F0A2
:100CE0008CCFDC2FCC27CC27DF71C06FD06A7BCFB5
:100CF000CF71D0E0DC2FCC27C16FD06A74CF86953E
:100D00008695877020E2829FC0011124C37021E084
:100D100030E0A90102C0440F551FCA95E2F7EA016D
:100D2000C82BD92BDA685FCFEEDEC82FD0E0DC2FDE
:100D3000CC27D06258CF8F71E6DE93E0CC0FDD1F59
:100D40009A95E1F7CC27DF70282F30E084FF05C0AB
:100D500050E1859F900111243327C22BD32BD069FA
:100D600042CF8D2F8F71CFDE182FCE0199272ADE2B
:100D7000EC01D12BDECF80E00895F894E82FE295C6
:100D8000EF70F0E041A18F7021E030E0B90102C0C6
:100D9000660F771F8A95E2F7CB01962F90959423E3
:100DA00091A392A1892B82A3789408959C01211587
:100DB0008CE7380741F48091170190911801892B35
:100DC00011F420E030E0C9010895E8E1F3E080E0AB
:100DD00090E068E779E24BE959E22DE03AE2778367
:100DE0006683518740873387228797878687019656
:100DF00070968830910599F708958091F903909144
:100E0000FA0390931201809311010895E9EFF3E042
:100E1000848195812AE030E0B9010E940035609319
:100E20001501868180931601828580930301848554
:100E30008093020186859785B9010E9400356093F1
:100E40001301808980931401828980930101848930
:100E5000809300010895EF92FF920F931F93CF9319
:100E6000DF93FB018FEF9FEF4430510508F45FC023
:100E70004091210441FB882780F990E0880F991F59
:100E800042FB002700F910E0000F111F000F111F97
:100E9000802B912B40FBEE24E0F8F12C8E299F292A
:100EA00043FB222720F9C22F50E0D52F53E0CC0F6F
:100EB000DD1F5A95E1F78C2B9D2B44FB222720F94F
:100EC00050E1259F90011124822B932B45FB222773
:100ED00020F950E2259F90011124822B932B46FB91
:100EE000222720F950E4259F90011124822B932B77
:100EF00047FB222720F940E8249F90011124822BF0
:100F0000932B20912204322F3170932B2695217040
:100F1000B22FBB0FA0E08A2B9B2B092E000CAA0B33
:100F2000BB0B80839183A283B38380E090E0CDB735
:100F3000DEB7E6E00C94F1349C0143E0969587958A
:100F40004A95E1F78E719927FC01EE54FE4F4081DE
:100F50005181F901EF70FF2721E030E002C0220F3C
:100F6000331FEA95E2F7611541F0422B532B8E5463
:100F70009E4FFC0151834083089520953095422374
:100F80005323F5CFFC018481862381110AC082811D
:100F90008115B9F06823908593FF05C081E0611148
:100FA0000FC080E00895282F22952F708F70282B76
:100FB000962F92959F706F70962B81E02913F1CF39
:100FC000089581E00895282F35EB2303C0011124F3
:100FD00097FF04C080589109892F089580589F4F2A
:100FE000FBCF80918002609101047091020480FF28
:100FF00014C020910301269FC001279F900D11244A
:10100000BC01769567957695679560387105F0F522
:1010100061157105E9F1862F089581FF0BC02091BC
:101020000301269FC001279F900D1124BC017695D6
:101030006795EBCF82FF09C0809103019B01829FDE
:10104000B001839F700D1124E0CF80917F02811544
:10105000E1F29091020120910301891738F0CB0150
:10106000289FB001299F700D1124CFCF289F900198
:101070001124269FA001279F500D369F500D11244B
:10108000692F70E0CA010E940035BFCF8FE7089535
:1010900081E008958091800280FF0CC06091010181
:1010A00070E075956795759567956115710549F1BE
:1010B000862F089581FF06C06091010170E075954B
:1010C0006795F3CF6091010182FD0BC090917E0284
:1010D0009115A1F06091000180910101961738F0FF
:1010E000682F70E06038710500F38FE70895899FDD
:1010F000C001112470E00E941435F4CF61E070E06B
:10110000D7CF81E00895FA01309709F00995089545
:1011100080912502811569F0E0915102F09152020F
:10112000309739F00190F081E02D309711F009955A
:10113000089580E0089590913B01913091F0A8E6E8
:10114000B1E0EFEF90E02D91821751F0EF3F19F4ED
:10115000211101C0E92F9F5F9630A9F7EF3FC9F435
:1011600008959091210497FFEACFE82FE695E69540
:10117000E695803FA8F7F0E0E259FE4F877021E046
:1011800030E001C0220F8A95EAF78281822B8283A8
:1011900008950E2E000CFF0BEA59FE4FF8CF9091E8
:1011A0003B01913021F49091210497FD0CC0E8E6B9
:1011B000F1E09191891302C0DF011E9251E0EE36F9
:1011C000F507B9F70895E82FE695E695E695803F8F
:1011D000C8F7F0E0E259FE4F877021E030E0A90146
:1011E00002C0440F551F8A95E2F7CA01809592818B
:1011F00089238283089580913A0108952FB7F89446
:101200008091AE019091AF01A091B001B091B10178
:101210002FBF08958091FB039091FC03892B89F0E7
:10122000EDDF2091A9033091AA03AC01421B530BBF
:101230009A0181E04091FB035091FC03241735078C
:1012400008F480E00895CF93DF93C091AF038091BD
:10125000B203C82B8091AB038115E1F08091FB03B1
:101260009091FC03892B19F0D5DF8111A0DBD0917F
:10127000AB0380913B01813021F48091210487FDF3
:1012800013C086E028E631E090E0815088F49111A7
:101290008EDBCD2B8091940280958C2390919302CC
:1012A000892BDF91CF9108958EE120E731E0ECCFDB
:1012B000F90141919F01411541F39F5FE6CF962FC0
:1012C0002091220422FF0EC0682F660F660F660F62
:1012D000692B6093B30326DA91DF9093B503809373
:1012E000B40308951FCA9091AB03292F2823211519
:1012F00059F0809589238093AB03811531F07EDF0F
:101300008093A9039093AA03089580E090E0F8CF1A
:10131000CF93C82F8091220482FF0BC08091AB0332
:101320008C1739F06BDF9093AA038093A903C093C5
:10133000AB03CF91089562DF209183023091840244
:10134000232B211521F08093FA019093FB0120912A
:10135000850230918602232B211521F08093F8011C
:101360009093F901E0915102F0915202309759F0B7
:101370000680F781E02D309731F082E08093810282
:1013800081E892E009950895611509F441C0E3E30D
:10139000E80FE33148F4F0E0E354FA4C0C942735BD
:1013A00020DE819580938402C6CF1BDEFBCF19DE41
:1013B000819580938302F8CF14DEFBCF6BDE8093A0
:1013C0008502F2CF67DE8195FACF64DE8195809346
:1013D0008602EACF5FDEFBCF815D990B21E030E032
:1013E00001C0220F8A95EAF780918202822B8093B6
:1013F0008202DACF80918002816080938002D4CF14
:10140000809180028260F9CF809180028460F5CF64
:10141000409183028D3C59F48091840287FF0DC076
:1014200010928402411559F410927F0208C08E3C3C
:1014300081F48091840218169CF3411581F080910B
:10144000850290918602892B8111AECF10927E0287
:10145000ABCF8F3C41F447FFF0CF109283028091D5
:1014600084028115E0CF803D19F41416B4F3E5CF62
:1014700090918502893D29F41916FCF61092850297
:10148000DCCF8A3D19F497FFD8CFF8CF9091860230
:101490008B3D29F497FFD1CF10928602CECF8C3DA1
:1014A00019F41916CCF3C9CF9FE2980F983090F435
:1014B000815D990B21E030E0B90102C0660F771F12
:1014C0008A95E2F7CB0180959091820289238093DF
:1014D0008202B3CF8D3D31F4809180028E7F809364
:1014E0008002ABCF8E3D21F4809180028D7FF7CFBB
:1014F0008F3D09F0A2CF809180028B7FF0CF2FB774
:10150000F8946091AE017091AF018091B00190911B
:10151000B1012FBF0895CF92DF92EF92FF92809199
:101520002502811551F0EBDF6B017C01C701B6018B
:10153000FF90EF90DF90CF900895E1DFC0902702F9
:10154000D0902802E0902902F0902A02C60ED71E01
:10155000E81EF91EEBCFCF92DF92EF92FF92CF936E
:10156000DF93D82FC92FC0901203D0901303E090BF
:101570001403F0901503C3DF6C197D098E099F09D0
:10158000643F71408105910510F1B9DF6B017C0169
:1015900082E390E0A0E0B0E0C092F401D092F501C7
:1015A000E092F601F092F7018093F0019093F1013F
:1015B000A093F201B093F301D0931003C0931103F1
:1015C000DF91CF91FF90EF90DF90CF90089584EF5F
:1015D00091E0A0E0B0E0E0CF87E797E790930108C3
:1015E0008093000888E19AE00FB6F894A89580935C
:1015F00060000FBE90936000FFCF0895FC019B0137
:101600008091A4019091A5018617970740F0672B60
:1016100029F48091E8008E778093E800C90140E0CA
:10162000009741F4411106C08091E80082FF2FC06D
:1016300080E00895209107022115A9F12530A9F134
:101640002091E80023FD2DC02091E80022FDECCF81
:101650002091E80020FFE4CF3091F3002091F200C8
:10166000009719F02830310558F041E02830310555
:1016700009F040E02091E8002E772093E800D0CFD9
:1016800041914093F10001972F5F3F4FE9CF809147
:101690000702811541F0853041F08091E80083FF19
:1016A000C3CF81E0089582E0089583E0089580919A
:1016B0009E0187FF13C08091E80082FF06C08091E1
:1016C000E8008B778093E8000895809107028111EC
:1016D000F2CF0895809107028115D9F38091E80037
:1016E00080FFF8CF8091E8008E77ECCF2091E40066
:1016F0003091E50095E6A9012091EC00822F8170E0
:1017000020FF06C08091E80080FF06C080E00895B9
:101710002091E80022FD1AC080910702811589F00E
:10172000853089F08091EB0085FD0FC02091E400A9
:101730003091E50042175307F9F29A95E1F684E0FB
:10174000089582E0089583E0089581E00895E8ED2A
:10175000F0E080818E7F80831092E2001092DA00A8
:101760001092E100A0EEB0E08C9181608C938081BA
:101770008F77808319BCA7EDB0E08C918E7F8C931E
:1017800080818F7E808310929D010895FC01AC01C1
:101790004C5F5F4F8FEF61E39191892728E030E044
:1017A000982F990F87FF09C0892F86272150304035
:1017B000B9F7E417F50781F70895892FF7CF982F28
:1017C0009093E900891771F07091EC002091ED0081
:1017D0005091F00021FD09C09F5F973089F78093F9
:1017E000E9000895762F242F50E03091EB003E7FE2
:1017F0003093EB003091ED003D7F3093ED00309160
:10180000EB0031603093EB007093EC002093ED001F
:101810005093F0002091EE0027FDDECF0895A0E068
:10182000B0E0E5E1FCE00C94D334C8EDD0E0888171
:101830008F7E8883E7EDF0E080818160808384E0A3
:1018400082BF81E080939D0188818E7F888302EE34
:1018500010E0F80110821092DA0081EEC82ED12C2F
:10186000F601108288818F778883888180688883D9
:1018700088818F7D888319BC1092070210929C0189
:101880001092E60110929B0190EEE92EF12CF701E7
:1018900080818B7F808388818160888342E060E0E3
:1018A00080E08DDFF60180818E7F8083F80180816A
:1018B00081608083808188608083F70180818E7F52
:1018C0008083888180618883CDB7DEB7E8E00C949F
:1018D000EF34E091B9039091B80327E0E91302C017
:1018E00080E00895AE2FB0E02E9FF0011124E65461
:1018F000FC4F3181361306C03081381303C0358167
:10190000341304C0FD013196E770E8CF81E00895FB
:101910009C012115310509F408958FE99FE0019795
:10192000F1F700C0000021503109F3CF0F931F934E
:10193000CF93DF938B01EA0190910702943051F528
:101940008093E9008FEF9091E80095FD06C095ED3A
:101950009A95F1F700008A95B1F78091E80085FF2C
:1019600019C0C4DE811111C08091E80085FD06C058
:101970008091E8008E778093E800F3CFF8018191A1
:101980008F018093F100219779F78091E8008E779D
:101990008093E800DF91CF911F910F910895792FE7
:1019A000603229F440E250E0682F82E0BFCF089512
:1019B000CF93DF93D82FC92F48E050E0682F792FBD
:1019C00081E0B4DF88E0ED2FFC2FA6EAB1E00190C2
:1019D0000D928A95E1F7DF91CF910895BC0140E225
:1019E00050E084E0A3CFBC0146E050E084E09ECF0D
:1019F000A0E0B0E0EEEFFCE00C94D134182F092FFA
:101A0000B62EA72E7A01809198019AE0C92ED12C8A
:101A10008A3018F0CC24C394D12CC1E0D0E06B2DD7
:101A20007A2D812F902FF7010995811116C02196EB
:101A3000CC16DD0694F0CC9FC001CD9F900D900D8B
:101A4000112420E030E045E34A95F1F700002F5FD4
:101A50003F4F28173907B9F7E2CFCDB7DEB7EAE035
:101A60000C94ED34FC016081718184E090E00C9471
:101A7000A0359091220492FB222720F9281751F0DB
:101A800080FB92F99093220481E294E0EBDF82E004
:101A90000C94AE0408951F93CF93DF93962F122FCB
:101AA000632F8630D8F49830C8F44630B8F4C42F89
:101AB000D0E0CC0FDD1F2CE0929FC00DD11D112472
:101AC00090E6899FC00DD11D1124CE0189960E94F8
:101AD0008635612FCE018A960E948635DF91CF919F
:101AE0001F91089580913B01813061F5809121041F
:101AF00087FF28C0A8DB80936F0140E250E061E3DC
:101B000072E08EE691E00E943D35892BD1F080E2B3
:101B1000EEE6F1E0A1E3B2E001900D928A95E1F7E3
:101B2000E0915102F0915202309759F00480F58112
:101B3000E02D309731F086E080936E018EE691E0E3
:101B40000995089580DB8093660148E050E063E5E5
:101B500072E086E691E00E943D35892B91F388E0A2
:101B6000E6E6F1E0A3E5B2E001900D928A95E1F797
:101B7000E0915102F0915202309719F30280F38103
:101B8000E02D3097F1F286E691E0DACF811519F079
:101B90000E94C904A7CF0895811531F09091B20336
:101BA000892B8093B2039ECF0895811519F00E946E
:101BB000CF0498CF0895811539F080959091B203A4
:101BC00089238093B2038ECF0895CF93C82F8115B8
:101BD000C9F08CEF8C0F813A88F580913B01813000
:101BE00021F48091210487FD0FC0E8E6F1E08EE644
:101BF00091E02191C217F1F08E179F07D1F78C2F3A
:101C00009ADA70DFCF910895EC2FE695E695E69588
:101C1000F0E0E259FE4F828190E04C2F477021E0C6
:101C200030E002C0220F331F4A95E2F7822393234C
:101C3000892B29F38C2FB3DA55DFE1CF80E28C0FAB
:101C4000883048F4C77081E001C0880FCA95EAF770
:101C50000E94C904D6CF83E38C0F833198F661E0EC
:101C60008C2F92DBCFCFCF93DF93EC01805E910975
:101C7000089720F06CEC7DE0209711F466EC7DE095
:101C8000CE010E945F038C2FA0DFDF91CF910895DA
:101C90009C01611529F08091B20382608093B203A8
:101CA000C90190528115904308F43327C901DBCF55
:101CB0008115D1F09CEF980F913A10F470DA12CFA1
:101CC00090E2980F983050F4877091E001C0990F1E
:101CD0008A95EAF7892F0E94CF04F1CF93E3980FFA
:101CE000933110F460E050CB0895CF93DF93EC0173
:101CF000DFDFCE01805E9109089720F06BED7DE07B
:101D0000209711F465ED7DE0CE010E945F03DF9125
:101D1000CF9108950F931F93CF93C82F8B0155DF59
:101D20000115110531F48C2FC3DFCF911F910F9155
:101D300008958FE99FE00197F1F700C0000001507E
:101D40001109EECF6091190470911A04893321F0C2
:101D50006091170470911804DDCF1092AF03809149
:101D60003B018130E1F48091210487FF18C0E0E756
:101D7000F1E08EE1DF011D928A95E9F71092B2033E
:101D8000B1DE86E0E1E8F2E0DF011D928A95E9F735
:101D900010927F0210927E0210928002CCCAE8E676
:101DA000F1E086E0E7CFD9DF2FEF84E39CE021501C
:101DB00080409040E1F700C0000088E19AE00FB653
:101DC000F894A895809360000FBE90936000FFCFB9
:101DD000CF93DF93D82FC92F20916B02283010F0BA
:101DE000BCDF20E0E22FF0E0EE0FFF1FE55AFD4FD1
:101DF000D083C1832F5F20936B02DF91CF91089531
:101E0000CF93DF93FB018FEF9FEF4430510588F0B4
:101E1000D081C181A2DFD0932104C37080912204BC
:101E20008C7FC82BC093220481E294E01BDE80E00B
:101E300090E0DF91CF910895AAE2B0E0E2E2FFE006
:101E40000C94D8348EE991E0FC0101962091F100C8
:101E5000208321E0863A9207B9F780919F0189306B
:101E600009F457C0C8F4823009F4B2C0833009F4D1
:101E700082C0813081F18091E80083FFE6C08091CB
:101E80009E0190919F019A3008F0DFC0E92FF0E0A9
:101E9000E053FA4C0C9427358A3009F489C08B3012
:101EA00051F780919E01813231F78091A20190918A
:101EB000A301892B01F78091E800877F8093E800D8
:101EC000F6DB81E09091A001911101C080E0809348
:101ED0003B0143DFD0CF80919E01813A61F6809132
:101EE000E800877F8093E8008091A2019091A30190
:101EF000892B59F060E080E090E070E07FDB80911A
:101F0000E8008B778093E800B6CF68E086EA91E03E
:101F1000F4CF80919E01813209F0ADCF8091A20172
:101F20009091A3018D7F892B09F0A5CF8091E800C6
:101F3000877F8093E8008091E80082FF17C090912E
:101F4000F3008091F200029731F48091F10081302A
:101F500011F0863021F48091F10080933A01809154
:101F6000E8008B778093E800A2DB85CF80910702A1
:101F70008111E1CF80CF80919E01813A09F07BCF22
:101F80008091A2019091A301892B09F074CF8091D7
:101F9000E800877F8093E8008091E80080FFFCCF15
:101FA00080913B018093F1008091E8008E77DACF39
:101FB00080919E01813209F05ECF8091E800877F99
:101FC0008093E80074DB8091A1018093390153CFA5
:101FD00080919E01813A09F04ECF8091E800877F81
:101FE0008093E8008091E80080FFFCCF8091390168
:101FF000D9CF803889F0823841F58091A2018F7065
:10200000873018F58093E9008091EB0085FB8827E5
:1020100080F91092E90006C08091E601880F909146
:102020009B01892B9091E800977F9093E800809323
:10203000F1001092F1008091E8008E7723C08111A9
:1020400016C08091A001813009F18091E80083FFE2
:102050000AC08091E800877F8093E8008091EB00C0
:1020600080628093EB00AA96E3E00C94F434823013
:1020700061F78091A001811581F01092E9008091B3
:10208000E800877F8093E80012DBDFCF81E09330A8
:1020900009F080E08093E601F0CF8091A2018F707B
:1020A0002FEF280F263088F68093E9002091EB006F
:1020B00020FFE3CF933031F48091EB008062809376
:1020C000EB00DBCF9091EB0090619093EB0021E06F
:1020D00030E0A90102C0440F551F8A95E2F74093F2
:1020E000EA001092EA008091EB008860E8CF81114D
:1020F000ACCF1091A0011F778091E3008078812BF5
:102100008093E3008091E800877F8093E800CFDA36
:102110008091E80080FFFCCF8091E300806880938D
:10212000E30083E0111101C082E0809307028DCFAC
:102130008058823008F089CF8091A0019091A10150
:102140008C3D53E0950791F583E08A838AE2898389
:102150004FB7F894DE01139620E03EE051E2E32F02
:10216000F0E050935700849120FF03C082958F7058
:102170003F5F8F708A30C0F0895C90E08D939D93B3
:102180002F5F243161F74FBF8091E800877F8093F4
:10219000E8006AE270E0CE01019630DA8091E80052
:1021A0008B778093E80051CF805DE7CF292F3327CD
:1021B0002330310509F44EC078F52130310509F49A
:1021C00088C08BE590E0E6E4F2E02230310509F0CA
:1021D0003CCF2091E800277F2093E8002091A401C4
:1021E0003091A5018217930708F49C0140E0211566
:1021F000310509F073C0411171C08091E80082FD82
:10220000CDCF80910702811549F2853039F2809156
:10221000E80083FFF2CFC2CF8091A2019091A30189
:102220002132310509F446C02232310509F00DCFC3
:102230008330910508F009CFFC01EE0FFF1FE45B2E
:10224000FE4F0190F081E02D875B9E4FDC018C9169
:1022500090E010C09C013327823021F123303105FA
:1022600068F4232BB9F4E1EFF2E0E4918E2F90E0D3
:10227000E1EFF2E0009709F4E8CEABCF233031056F
:1022800009F0E3CEE3EBF2E0E4918E2F90E0E3EB94
:10229000F2E0F0CFEFEDF2E0E4918E2F90E0EFED81
:1022A000F2E0E8CFE1EDF2E0E4918E2F90E0E1ED95
:1022B000F2E0E0CF8330910508F0C7CEFC01EE0FCD
:1022C000FF1FEE5AFE4F0190F081E02D89E090E073
:1022D00080CF82E190E0E1EAF2E07BCF80910702DB
:1022E000811509F45BCF853009F458CF8091E8005F
:1022F00083FD54CF8091E80082FD7FCF8091E8007C
:1023000080FF75CF9091F3008091F2002115310587
:1023100019F08830910550F041E0089709F040E04D
:102320008091E8008E778093E80061CF44914093DC
:10233000F1003196215031090196E8CF803809F03B
:1023400084CE8091E800877F8093E80080919C0193
:102350008093F10070CE811178CE1091A0011230DF
:1023600008F073CE8091E800877F8093E800109397
:102370009C019DD91115D9F084E08093070242E0B9
:1023800061EC81E01CDA42E261EC84E018DA42E2BE
:1023900061EC82E014DA42E260EC83E010DA8091D2
:1023A0000702843051F482E080933C014ECE80914C
:1023B000E30087FDE1CF81E0E0CF81E0F5CF8091C0
:1023C0003E01877F80933E019091B2039D7F909361
:1023D000B20384FF06C08F7E80933E0182E00E949C
:1023E000C90480913E0185FF06C08F7D80933E0128
:1023F00080E20E94C90476CBCF92DF92FF920F93C6
:102400001F93CF93DF93EC018B01F42E80913E015B
:1024100082FF61C0C0909E03D0909F03CC16DD0662
:1024200019F0209709F057C080913E018B7F80936F
:102430003E01C1E081FD10C080919C0390919D03FD
:102440009801281B390BC1E0809111019091120174
:102450002817390708F4C0E080913E01C0FB81F9DC
:1024600080933E016C2FC6010E949C078091AF03B0
:1024700081FF08C080913E01806180933E0182E02F
:102480000E94CF048091AF0385FF08C080913E0178
:10249000806280933E0180E20E94CF046C2FC601CF
:1024A000F7DBF11431F08091140485FF02C086FF40
:1024B00025C080911704909118042ADA80919E0318
:1024C00090919F039C0130522115304308F49927C5
:1024D0000CDC75DF0FC0CE01905281159043B0F433
:1024E000CE01992702DC80919E0390919F03C8172B
:1024F000D90779F310939D0300939C03DF91CF914B
:102500001F910F91FF90DF90CF900895CE01EACFF9
:10251000CF93DF93EC014A855B856E857F850E94B2
:1025200083089B8190958091B20389238093B203A5
:102530008C810E94CF04D6DA86E0FE0111928A9542
:10254000E9F7DF91CF910895CF93DF93EC018D816F
:1025500081FD13C082608D838091B2039B81892BA2
:102560008093B2038C810E94C904BCDA48855985E6
:102570006E857F85CE010E94830810929903109288
:1025800098038D8180FD02C0CE01C2DFDF91CF9123
:1025900008951F93CF93DF93182FA0910E03B0914E
:1025A0000F03109709F449C0109211031092100301
:1025B00010929402109293021696CD91DC91179787
:1025C000CE019A9581159F4108F4D07ED1E0C111CA
:1025D00001C0D0E01996ED91FC911A97309731F037
:1025E0001B966D917C9180E00995D823D11539F027
:1025F0008CEF8C0F813A28F58C2F0E94CF08111593
:10260000A9F0E0910E03F0910F03808584FD0EC0C8
:1026100080910D03811551F0808191819C012150A1
:1026200031092F333E4710F40E94AB0A5BDA109257
:102630000F0310920E0310920D03DF91CF911F91A3
:10264000089550DA8C2F34DBDACF9C01CB01DA010C
:10265000F9013296E4914E2F50E0AE17B10548F0E3
:10266000F9013496659174910E944A3580E090E0BA
:1026700008958FEF9FEF0895A4E0B0E0E2E4F3E166
:102680000C94D6348B01DA01FC013396F490198254
:102690001A821B821C82AB2B31F48FEF9FEF2496A2
:1026A000E5E00C94F23444E050E0BE016F5F7F4FF0
:1026B000CCDF019691F381E090E00F2C02C0880FEF
:1026C000991F0A94E2F7092E000CAA0BBB0B498153
:1026D0005A816B817C8184239523A623B72321E033
:1026E000892B8A2B8B2B09F420E0F801208380E0D2
:1026F00090E0D5CFACE0B0E0E0E8F3E10C94CC346E
:10270000FE01319688E0DF011D928A95E9F788E5A0
:10271000E82E81E0F82E8F013F01AA24A394B12C6A
:1027200022E6822E21E0922EF70181917F018F3FD8
:1027300009F43EC0F894E82FE295EF70F0E021A193
:102740008F70A50102C0440F551F8A95E2F7CA0198
:10275000922F982B91A392A18095892382A378949C
:1027600000C0ECE5F1E031E0512C21912F3F79F0F0
:10277000A22FA295AF70A05EB0E08C9190E02F7078
:1027800002C0959587952A95E2F780FF7EC080E08C
:10279000582A330F8E169F0641F7F70182918F3F1B
:1027A00011F00E94BD0650EA5A95F1F7D8015C92EB
:1027B0000F5F1F4FBCE5EB16B1E0FB0609F0B4CF8D
:1027C00048E050E0B3018BED91E00E943D356C0193
:1027D000892B41F088E0F301ABEDB1E001900D925F
:1027E0008A95E1F70091E40110E001501E4FC114F9
:1027F000D10409F44CC081E0809397010E94FE0847
:10280000909396018093950180912502811509F49A
:1028100099C07E01E9E0EE0EF11C84E0D7011D9223
:102820008A95E9F7809198018A3008F054C041EF09
:1028300055E1B701C801DCD8811509F471C047E939
:1028400056E1B701C801D4D8811509F469C046E939
:1028500055E1B701C801CCD8811509F461C01092C7
:1028600098018091E30190E044E050E0B70181508D
:102870009E4F0E943D3521E020939401892B09F061
:1028800041C02C96EFE00C94E834832F81CF8091E7
:102890009701811509F4B8CFE0909501F090960169
:1028A0000E94FE088E199F09059708F4ADCF44E0F9
:1028B00050E06BED71E0C8010E943D35892B41F07D
:1028C00084E0EBEDF1E0D80101900D928A95E1F7FB
:1028D0001092970199CFC0909201D09093010E94DD
:1028E000FE088C199D09843F914008F0A0CF80918B
:1028F0009401811531F284E0F70111928A95E9F78C
:1029000010929401E091E301F0E0E150FE4F8985DF
:102910009A85AB85BC8580839183A283B383B1CF35
:10292000809198018F3F39F40E94FE0890939301A3
:1029300080939201DCCF8F5F809398018A3008F4F6
:1029400090CFF2CFE090E301F12CA70141505E4F10
:102950007A01F80180819181A281B3818093110273
:1029600090931202A0931302B093140281E192E0BB
:102970000E94C60B8093100280911502909116025E
:10298000A0911702B0911802F70180839183A2836E
:10299000B383C0901902D0901A02E0901B02F0900D
:1029A0001C0280918E0190918F01A0919001B091B5
:1029B0009101C816D906EA06FB0609F462CFC09257
:1029C0008E01D0928F01E0929001F09291010E94CD
:1029D0007F0AC61AD70AE80AF90AC0922702D092DB
:1029E0002802E0922902F0922A024BCFA0E0B0E048
:1029F000ECEFF4E10C94D234EC0188818115D9F02C
:102A0000813009F03FC08981813021F48A81239689
:102A100099D9F3CF823021F48A812396D6D8EDCF8D
:102A2000833021F48A81239643D9E7CF843041F063
:102A300022968111E2CFCDB7DEB7E9E00C94EE34F7
:102A40008A81239620E030E09AE0682F6053770B6C
:102A5000AB016A30710560F02115310551F3EFE9E2
:102A6000FFE03197F1F700C0000021503109F4CFA9
:102A7000929FB001939F700D11249A01260F371F6A
:102A80008991E3CFE82FF0E0EA53FE4FB490282F6E
:102A900026952695269530E0F901EA54FE4FE490FC
:102AA0008770F12C082E02C0F594E7940A94E2F79F
:102AB000E0FAEE24FF24E0F8F901EA55FE4FC49055
:102AC000D12C082E02C0D594C7940A94E2F7C0FA1C
:102AD000CC24DD24C0F8F901EA56FE4F049110E041
:102AE00002C0159507958A95E2F701701127E11448
:102AF000F10411F081EE69D8C114D10411F086EE11
:102B000064D860E070E08B2D05D9C114D10411F0B8
:102B100086EECED8E114F10411F081EEC9D801158A
:102B2000110511F08CE20ED9219667CFCF92DF927A
:102B3000EF92FF921F93CF93DF9300D000D0CDB7D9
:102B4000DEB7C0900802D0900902E0900A02F0902F
:102B50000B020E947F0A6C197D098E099F0911E002
:102B6000643671058105910578F10E948B0ADC01BC
:102B7000CB010296A11DB11D89839A83AB83BC83CF
:102B80008091320190913301805F9D4F20913101FE
:102B9000422F50E0253010F044E050E0BE016F5F5E
:102BA0007F4F0E944A3583E090E00E945B34182FEB
:102BB000811551F00E947F0A609308027093090208
:102BC00080930A0290930B02812F0F900F900F9029
:102BD0000F90DF91CF911F91FF90EF90DF90CF90FA
:102BE00008958F929F92AF92BF92EF92FF921F93A0
:102BF000CF93DF9300D000D00F92CDB7DEB77B012B
:102C000080E090E00E945B34182F811509F464C0C5
:102C100080911C01482F50E0811511F041E050E0F7
:102C200060911D0170911E01605F7D4FCE01059680
:102C30000E944A358090210290902202A0902302A7
:102C4000B09024020E947F0A681979098A099B09B9
:102C5000643671058105910538F481E192E00E94A6
:102C6000C60B9D818917C1F181E090E00E945B3421
:102C7000811509F43FC080912401482F50E0853030
:102C800010F044E050E06091250170912601605FF2
:102C90007D4FCE0101960E944A3581E192E00E946B
:102CA000C60B9D81891326C00E947F0A6093210272
:102CB00070932202809323029093240289819A8147
:102CC000AB81BC8180931D0290931E02A0931F02D2
:102CD000B093200281E00FC0809111029091120206
:102CE000A0911302B091140289839A83AB83BC83B1
:102CF0001111E4CF80E040911D0250911E026091BD
:102D00001F0270912002F701408351836283738315
:102D10000F900F900F900F900F90DF91CF911F9118
:102D2000FF90EF90BF90AF909F908F900895A0E09C
:102D3000B0E0EDE9F6E10C94D334D82FC92F44E08C
:102D400050E065E172E00E943D358C01C0900C02BC
:102D5000D0900D02E0900E02F0900F020E947F0AC8
:102D60006C197D098E099F096436710581059105ED
:102D700018F40115110511F180912A0190912B0190
:102D8000805F9D4F20912901422F50E0253010F0A7
:102D900044E050E06D2F7C2F0E944A3582E090E0A5
:102DA0000E945B34811559F00E947F0A60930C02E7
:102DB00070930D0280930E0290930F0281E0CDB7C5
:102DC000DEB7E8E00C94EF340F931F93CF93DF93BB
:102DD00009EF13E0C9E6D2E0CE010E946A35F8019E
:102DE00061918F01681719F0CE010E9486352196F6
:102DF000C139F2E0DF0781F7DF91CF911F910F9189
:102E00000895DA01FC013296E4914E2F50E0AE179E
:102E1000B10550F0FC013496859194910E944A3599
:102E2000D3DF80E090E008958FEF9FEF0895A4E056
:102E3000B0E0EDE1F7E10C94D2347C016B01FC01D0
:102E40003396B49019821A821B821C82452B31F46E
:102E50008FEF9FEF2496E9E00C94EE3444E050E0CD
:102E6000BE016F5F7F4FF1DB019691F381E090E04F
:102E70000B2C02C0880F991F0A94E2F78095909559
:102E8000092E000CAA0BBB0B49815A816B817C81F6
:102E900084239523A623B723F6012081022F0170F6
:102EA00010E00B2C02C0000F111F0A94E2F7012E54
:102EB000000C220B330B802B912BA22BB32B89837D
:102EC0009A83AB83BC8344E050E0BE016F5F7F4FC9
:102ED000C70197DFBFCF0F931F93CF93DF9309EF06
:102EE00013E0C9E6D2E0CE010E946A35F801819371
:102EF0008F012196C139F2E0DF07A9F7CFE5D3E0D2
:102F0000FE0185919491009711F0FC0109952C9692
:102F1000F4E0C739DF07A1F7DF91CF911F910F913F
:102F20000895E9EFF3E0128E138E8FEA90E091831B
:102F3000808325E0248F88E893E1938382838AE06D
:102F400090E09583848344E150E05783468348E0D2
:102F500050E051874087938782876EE170E07587E4
:102F600064879787868780E590E0918B808B538B71
:102F7000428B48E250E0558B448B42E350E0578B44
:102F8000468B44EB50E0518F408F158E55A344A3E0
:102F9000178E168E91A380A322A317A216A214DF68
:102FA0000E94AD0E109222041092210480E08460F1
:102FB0008093220481E294E00E94320D8CCF0F9323
:102FC0001F93CF93DF93863030F5683020F546307D
:102FD00010F5C42FD0E0CC0FDD1F2CE0629FC00D98
:102FE000D11D112430E6839FC00DD11D1124CE01C7
:102FF00089960E946A35082F10E0102F0027CE0115
:103000008A960E946A359801282BC901DF91CF91D9
:103010001F910F91089580E090E0F8CF462F672F21
:1030200020912D0230912E02232B81F4703F39F430
:10303000403F61F480912B0290912C0208957830EA
:1030400028F4463018F4863008F4B9CF80E090E0D8
:103050000895A0E0B0E0EFE2F8E10C94D4347C01F4
:103060000091AE038091AD03082BC5E0D0E010E0E5
:10307000C8010C2E02C0959587950A94E2F780FD51
:1030800009C02197A8F7D12C8D2DCDB7DEB7E7E089
:103090000C94F034DC2EB7018C2FC0DF0E94D205D7
:1030A000019779F3F1CFCF93DF93D82FC92FD1DFD9
:1030B0006D2F7C2FB3DF0E94D205DF91CF91089551
:1030C000FC018481811529F080819181ECDF0C94D1
:1030D000680380E008951F93CF93DF93182FD92FB3
:1030E000611589F0411579F0B4DFC82F682F812F61
:1030F0009D2F0E94AA03612F7D2F8C2F8FDFDF91E0
:10310000CF911F9108950E94E003C82FF4CFFC01D6
:10311000462F658180819181DECF0F931F938B01B4
:103120009C0180E00F3C11052105310528F4CB01FD
:103130008F5C9C4F0E946A351F910F91089585E224
:1031400090E00E946A35833689F486E290E00E941E
:103150006A358D3259F487E290E00E946A3591E039
:103160008B3F09F090E0892F8170089580E0FCCFBB
:10317000AAE0B0E0EEEBF8E10C94CF34C090170178
:10318000D090180181E090E090931801809317018E
:1031900010E085EFA82E82E0B82E00E01AC021E0F2
:1031A00030E0111104C0F401859194919C014F2DE0
:1031B000602F812F0E944B0DF39482E0880E911CAA
:1031C00096E0F912ECCF0F5FECE0AE0EB11C0830C8
:1031D00019F04501F12CE3CF1F5F1630D1F6A1DEC7
:1031E0001A8219821C821B821E821D8218861F82EF
:1031F00084EB90E09A87898701E912E0CE0101967D
:103200007C014AE050E0B801C7010E94A435065F86
:103210001F4F5701013E92E0190799F789E0F70126
:1032200011928A95E9F78FEF9FEF9E838D8387E058
:103230008A874AE050E0B801C5010E94A435065FC4
:103240001F4F0133F3E01F07A1F7D0921801C0927E
:1032500017012A96ECE00C94EB34AAE0B0E0E3E32B
:10326000F9E10C94D13405E912E081EEE82E82E018
:10327000F82E97E0B92E22EDC22E21E0D22EAA24FC
:10328000A3944AE050E0B701CE0101960E945A355E
:10329000F8013896DF018B2D1D928A95E9F7898117
:1032A0009A81D80111969C938E938F8112968C935C
:1032B00012978D8113968C931397888514968C930F
:1032C0001497898515968C9315978B819C811796F9
:1032D0009C938E9316978A8587FD04C01E96DC9278
:1032E000CE921D9780FF02C0F801A08681FF07C023
:1032F000D80118969C911897926018969C9382FF1B
:1033000004C0F80190859460908783FF07C0D801BE
:1033100018969C911897986018969C9384FF04C007
:10332000F80190859061908785FF07C0D8011896B5
:103330008C911897806218968C93BAE0EB0EF11C72
:10334000015F1F4FE1E3EE16E3E0FE0609F099CFBF
:103350002A96EAE00C94ED34282FCB01283070F443
:103360004AE0249F90011124B9016F567D4F4AE035
:1033700050E00E945A3580E090E008958FEF9FEF73
:103380000895AAE0B0E0E7ECF9E10C94D9349C018F
:1033900097558115914068F4BE016F5F7F4F822F72
:1033A000DBDF892B31F489859A852A96E2E00C943B
:1033B000F5348091110490911204F7CFA0E0B0E0B1
:1033C000E4EEF9E10C94D434162FD72FC42FD22E6B
:1033D0008115A9F04093A7030E94FE0890939A01DB
:1033E00080939901C77081E001C0880FCA95EAF700
:1033F0000E94C60DCDB7DEB7E7E00C94F034909193
:10340000A703491337C0E0909901F0909A010E94F8
:10341000FE089C012E193F097901812F9D2FB1DFF4
:10342000E816F90638F5D0E2DD0DCD15A1F0C7702C
:1034300011E0812F01C0880FCA95EAF70E94D50DCF
:10344000D83048F48D2D877001C0110F8A95EAF7A6
:10345000812F0E94C60D802F0E94A20ED83050F6F8
:103460002D2D277081E001C0880F2A95EAF70E9470
:10347000D50DC0CFC77081E001C0880FCA95EAF7AB
:10348000F6CFA2E1B0E0E7E4FAE10C94C9347C01A4
:10349000DC0114968C91811509F4E6C160E0C70146
:1034A00036DE6C01F7018681803170F42091B9031A
:1034B0009091B803291335C09091F703911521F02D
:1034C0009091F803903168F1D70115969C91911174
:1034D00012C0C114B0E5DB0608F0AFC0C114E0E2D1
:1034E000DE0608F0C1C0F8EECF16D10498F420EE45
:1034F000C216D104B0F4D0928802C0928702D701DC
:1035000012968D919C919093B7038093B60310927D
:103510003F0107C0C6019A9581159F4160F7C11010
:10352000EACF61E0C701F3DD8C01F70185818115E8
:1035300029F180919803909199030097F9F0081769
:103540001907E1F0FC01FF27887F9927892B09F0F3
:103550008DC064E0EE0FFF1F6A95E1F7E85EFC4F57
:1035600085818460858311830083CF010E94A4122A
:103570001092B20361E0C701CADD8C01D701159634
:103580008C91811509F4FDC0C801975780389105C9
:1035900008F028C1003108F056C16EEC70E080E000
:1035A00090E0BBDD81114FC1812C912C54010111A0
:1035B00060C004E09E012F5F3F4F6901D601E02FFC
:1035C0001D92EA95E9F724013501FFEF4F1A5F0AD2
:1035D0006F0A7F0AC501B401A0DD8983811509F452
:1035E00032C1813009F0CAC0A50194012E5F3F4F5E
:1035F0004F4F5F4F2F83388749875A87C301B201E6
:103600008CDD182F8A83811509F41DC18FEF810F7E
:10361000833008F048C06F81788589859A857DDD83
:103620008B83811511F0C601E1D92401350133E006
:10363000430E511C611C711C33C040EEC41642E5A0
:10364000D40668F450E8C51652E5D50608F069CFEF
:10365000C60180529245809708F04DCF62CFC601D7
:1036600087579C470297F8CF8031F6CFE0E0F0E033
:1036700077CFBFEC8B169104A104B10409F4E3C029
:10368000C501B4014ADDEFEF8E1A9E0AAE0ABE0AEA
:103690008111EFCF01508BCF4F80588469847A8499
:1036A000530142018BCF8BEF810F833090F52401C2
:1036B000350143E0440E511C611C711C6F817885FB
:1036C00089859A852ADD8B83811551F3C301B20167
:1036D00024DD8C83811108C02401350154E0450E9E
:1036E000511C611C711CDCCF8B819C818130AFEF40
:1036F0009A0710F0982F8827163029F0173031F0EC
:103700000E946729E9CF0E942129E6CF0E9444291F
:10371000E3CF143009F0C0CF6F81788589859A8511
:10372000FCDC182F24013501B4E04B0E511C611C48
:10373000711CC501B4016D5F7F4F8F4F9F4FEDDC52
:10374000111509F480C0811509F47DC08150990BD1
:103750004FEF489F9001499F300D1124E12FE15018
:10376000FF0B2E0F3F1F2150310908F499CF8FE92D
:103770009FE00197F1F700C00000F5CFC60136D9F0
:103780008FCF6801A7E5DA1AC114B1E0DB0650F566
:1037900069E872E08C2DE0DD892B21F5C60144E05B
:1037A000880F991F4A95E1F7FC01E85EFC4F2281E2
:1037B000213099F52091890230918A02232B91F0D2
:1037C00020918B0230918C02232B61F020918D028D
:1037D00030918E0240918F0250919002242B352B14
:1037E000232B19F1F7012580211409F441C00E356E
:1037F000FCE71F0729F10F352CE7120741F00D35C3
:103800003CE71307A9F580913D018115C9F010929D
:103810003D0180E00E94C91216C0223019F72091A4
:103820008D0230918E02232BE9F2FC01E35EFC4F06
:1038300020812E7F2083885E9C4F0E94A412D2CFCD
:1038400081E080933D018091B3038770811561F021
:10385000D70115968C91811539F08091220482FF51
:1038600003C082E00E94AE046296E2E10C94E5346B
:1038700080913D01811148C0C80197558115914043
:1038800008F0DEC05801F8EFAF22BB24A114B10448
:10389000D1F6F801FF2724E0EE0FFF1F2A95E1F78C
:1038A0009F01285E3C4F6901D70115968C91E35E1C
:1038B000FC4F908180FB90F99083811509F4FEC143
:1038C0000E94FE0890939B0380939A03F6018281E5
:1038D0008F5F82838091B2039091AF03892B8383A2
:1038E0008091AB0384834681578166857785C601C5
:1038F0000E948308D60115968C9181FF5801B092E1
:103900009903A09298039CC0280150EE451A5108D3
:103910003090AC038091AF03382A8091AB03382AF2
:1039200088E04816510408F05EC0980127703327DC
:1039300081E090E001C0880F2A95EAF7211409F48C
:103940004FC0382AD7018D919C910E94E00321E05D
:1039500030E0F90102C0EE0FFF1F8A95E2F7FA8B03
:10396000E98B20910E0330910F033C872B87409108
:10397000160350911703588B4F8735E9C32E32E059
:10398000D32EA12CB12C311005C0D60112968C91EA
:1039900081111BC0F601838190E029893A89822335
:1039A0009323892B91F08085982F9770911101C0F6
:1039B00087E038E04316510408F0A8C0211409F448
:1039C000A1C0869581708111A6C0EFEFAE1ABE0A24
:1039D000FFE0CF0ED11C28E0A216B104A1F61CC056
:1039E00080953822AFCF21107AC080911603909134
:1039F00017030817190781F4109217031092160382
:103A000010921203109213031092140310921503D4
:103A1000109211031092100380910E0390910F03E6
:103A2000009709F429CF38E04316510408F030C15B
:103A3000632D0E94C207811103C081E00E94C91258
:103A40008091140480FFAAC10E94FE083C01F70186
:103A50008581811509F4B4C180913E0182FF06C0C1
:103A600040E0B30180E090E00E94FC110431FCE7EB
:103A70001F0709F4A1C105312CE7120709F43BC166
:103A800003313CE7130709F47CC1C801905281154A
:103A9000904308F03AC110929F0310929E03F701E1
:103AA0009581911509F407C31092A7039801305727
:103AB0002332310508F0FFC284E090E00E947235A5
:103AC0009093220480932104F801E150F047E23200
:103AD000F10508F03AC2E652FA4C0C9427351093DF
:103AE0001703009316030E947F0A609312037093DA
:103AF00013038093140390931503109211031092F3
:103B0000100320CF82FB882780F95DCF211409F4B0
:103B10005CCF80FF5ACFD6018D909C900815190577
:103B200019F4211409F451CFEB85FC85EC15FD0542
:103B300009F44BCFD6011D96ED91FC91309721F001
:103B40008081811509F441CF632DC6010E94C2070F
:103B5000811509F43ACF81E00815190509F080E0D4
:103B600082218F838114910441F0811106C0EF8579
:103B7000F8898E169F0609F028CF80E00E94C912AE
:103B8000D0920F03C0920E0381E080930D038FE06B
:103B90008A9DF0018B9DF00D1124EB56FD4F858120
:103BA000809394022F8121110EC08114910459F049
:103BB000808191819C0124503109213A310508F01E
:103BC00049C00E94CF088FE08A9DF0018B9DF00DC7
:103BD0001124EB56FD4FC680D780C6019A958115FA
:103BE0009F4110F440EED42299249394C60101978A
:103BF0008F339E4708F0912C8FE08A9DD0018B9DDA
:103C0000B00D1124AB56BD4F1996ED91FC911A974A
:103C1000309731F01B966D917C9181E00995982247
:103C20009114A9F08FE08A9DF0018B9DF00D112475
:103C3000EB56FD4F868197810E9435038093930256
:103C400088E04816510448F4C6010E94AB0A0E945D
:103C5000720D0BC00E94580EB6CFC6010497813A70
:103C6000910550F48C2D0E949B08BF81B11509F479
:103C700003CE0E94720DE7CD0E94720DAFE3BCE946
:103C80001197F1F700C000008C2D0E94E50DEDCFDB
:103C9000DC012D913C910217130741F4211009C05A
:103CA00010920D0380E00E94C912E6CD211409F4A0
:103CB000E3CDFC01808585FDDFCDF4CFF90144859E
:103CC000558566857785C9010E948308D6011596BA
:103CD0008C9181FFB5CEC6010E9488128091980315
:103CE000909199030817190709F0AACE1092990329
:103CF00010929803A5CE90913E01892F8E7F90FF60
:103D0000816080933E010E94DF1180913E0180FF1F
:103D100045C00832110508F069C00E31110508F0E0
:103D200076C0C80104974A9788F58091140484FDF1
:103D30002DC0D70115968C91811509F4D5C08091BD
:103D4000AB039091AF03892B8D7F811509F464C07B
:103D500010929F0310929E038091140481FD5CC019
:103D600060E0C8010E949C0760E0C8010E94480E04
:103D70008091AB038D7F0E94880982E00E94AE048F
:103D800062CD80913E01816080933E01F701858183
:103D9000811521F010929F0310929E03D701159672
:103DA0008C91F801E851FC47E730F10508F077CE37
:103DB000E450FA4C0C94273580913E018E7FA1CFC0
:103DC00080913E018F7E013E110531F0053E1105C7
:103DD00031F480913E018F7D80933E0196CFC801E2
:103DE00090528115904308F090CF59CE09331105B8
:103DF00058F40D32110518F40B32110539F6809183
:103E0000140482FDC3CF95CF04361105F7CF8091FE
:103E1000140483FDBBCF8DCF87E0F701A0EAB3E0A8
:103E200001900D928A95E1F71092A3031092A203DC
:103E300080919E0390919F0308171907C1F5209167
:103E4000140425FF34C030913E0131FF02C026FF2B
:103E50002EC020919C0330919D036301C21AD30AA6
:103E600090DAC816D90618F58091AF0381FF08C013
:103E700080913E01806180933E0182E00E94CF04E8
:103E80008091AF0385FF08C080913E0180628093DE
:103E90003E0180E20E94CF0460913E016695617010
:103EA00080919E0390919F030E94480ECCCC8091FC
:103EB000AB03D090AF03D82AD1FADD24D0F88D7FA0
:103EC0000E94880910939F0300939E0370929D03A4
:103ED00060929C03DD0C6894D2F890913E01997F2A
:103EE000D92AD0923E0149CF40E0B301C8010E94D7
:103EF000FC11A9CC06E221EE41EE6AE17CE75EDA34
:103F0000A2CC07E225EE45EE6BE17CE7F8CF06E2B6
:103F100021EE40EE68E17CE7F2CF07E225EE44EEC9
:103F200069E17CE7ECCF06E221EE42EE6CE17CE752
:103F3000E6CF07E225EE46EE6DE17CE7E0CF08E252
:103F400021E045EE6EE17CE7DACF809121048160CB
:103F50008093210481E294E00E94320D0E94AD0E14
:103F600072CC80912204886080932204F3CF8091E8
:103F700021048260EDCF809121048460E9CF80919B
:103F800021048860E5CF809122048160EDCF80918B
:103F900022048260E9CF809121048061D9CF809191
:103FA00021048062D5CF809121048064D1CF0E940A
:103FB000AD0E809121048068CBCF809121048C606C
:103FC000C7CF809122048360CFCF809121048E7F60
:103FD000BFCF80912204877FC7CF809121048D7F3E
:103FE000B7CF809121048B7FB3CF80912104877F4D
:103FF000AFCF809122048E7FB7CF809122048D7F36
:10400000B3CF809121048F7EA3CF809121048F7D37
:104010009FCF809121048F7B9BCF0E94AD0E80911A
:1040200021048F7795CF80912104837F91CF809158
:1040300022048C7F99CF80912104992782FF939548
:1040400090FB82F990FB83F983CF80912204982F13
:10405000909590FB80F990FB81F986CF9091210497
:10406000892F8F7B96FF806473CF0E94AD0E909155
:104070002104892F97FB87F980586ACF61E08EE091
:1040800090E00E94863566CF60E0F9CF90912104E0
:10409000892F8F7E94FF80615BCF90912104892FBF
:1040A0008E7F90FF816054CF90912204892F877F6B
:1040B00093FF886059CF0631FCE71F07C1F5809157
:1040C000AF033091130430FF04C0282F2474211152
:1040D00022C0282F2A7A31FF04C0482F4171411194
:1040E00020E032FF04C0482F4878411120E033FF20
:1040F00003C08272811120E0911579F081E02111D5
:1041000001C080E08093A80385E3211101C089E20A
:104110000E949B08AECD20E0DECF8091A8038115E0
:1041200021F085E30E94CF08A4CD89E2FBCF0737B9
:104130002CE71207F9F008373CE7130731F1980133
:10414000205E32452032310528F591113AC00F71B9
:1041500081E090E0AC0102C0440F551F0A95E2F7E0
:104160008A01642F83E090E00E948635802F0E94B0
:104170008C0369CB81E0911551F00E94920343E0DA
:1041800062E081E00E9414045ECB82E0F4CF0E94E2
:104190009C03F5CF9115A9F00A355CE7150709F4E2
:1041A000ADC008F085C001309CE7190709F4A4C030
:1041B0000330ACE71A0709F499C001151C4709F44C
:1041C00088C0F7018581C080D180811509F49AC02B
:1041D000C6010E942918182F682FC6010E94AA0341
:1041E000B601812F0E940E180E94D205082FD92EE9
:1041F00086E0F701DE01119601900D928A95E1F7B4
:10420000D7011596BC9015971696CC90C2949FE056
:10421000C9228091B3038770811501F19B2CB114E1
:10422000F1F08D2D807F803461F080E2800F883046
:10423000A8F08D2D807E803221F4023078F0C114F8
:1042400069F08091220482FF09C082E00E94AE04DE
:104250008091B3038770992493948111912CAD2C94
:10426000A2948FE0A822B8E0AB1609F463C1E9E09C
:10427000AE1608F082C0F4E0AF1608F048C01D2D5D
:104280001F7022E0A21608F48BC08D2D807F803233
:1042900011F01295107F011509F4B9C0013009F42D
:1042A00023C1B11409F42FC1C11409F4CAC08CC0D0
:1042B0000B35ECE71E0721F180912204002482FFD8
:1042C0000394802D0C351C4709F07BCF0E94390DDB
:1042D00078CF0E94AD0E2FEF34E34CE021503040F8
:1042E0004040E1F700C000000E94EC0A6FEF7FEF52
:1042F00080E090E00E94A0350E94D30E81E0E6CFDE
:1043000080E0E4CFC6010E94E003182F69CF35E0BA
:10431000A31609F40AC1AA2DA850BB0B149718F4D0
:104320000E948808912C802F9D2D0E946803811582
:1043300041F0B11409F406C2C11409F4FAC1109293
:1043400025049114A9F08091B30380FD11C0D70119
:1043500015961C928695869586950E949203C701B4
:1043600090D88091B3038695869586950E949C038C
:1043700060E0C7010E94871877CA49E0A41609F4D3
:1043800049C186E08A0D8F70823028F6023F09F01D
:1043900051C18D2D8F71B1104AC10E949203BBCFC4
:1043A00050E1D51610F01295107FB114B9F0111527
:1043B00059F080E2800F883010F0011109C0812F80
:1043C0000E94C9040E94720D802F0E94E50DA3CFA8
:1043D0008091B203812B8093B203F4CF802F0E948F
:1043E000580E111509F497CF80E2800F883010F035
:1043F000011104C0812F0E94CF0406C01095809146
:10440000B20381238093B2030E94720D84CF809106
:10441000220482FD12C0B11449F0111529F0812F38
:104420000E94C9040E94720D80E0CFCF80E00E94FC
:10443000580E111509F46FCFDDCFB11491F1C110F1
:1044400004C0812F0E94C60D66CFB1E0CB1211C00F
:104450008090AB03812F8821181709F45CCF0E944C
:10446000FE089093AA038093A903812A8092AB034C
:1044700052CF80911504823008F44DCFC8124BCF33
:10448000812F0E94C60D812F0E9473098091AC0379
:10449000912F9823191709F43ECF812B8093AC03F9
:1044A0003ACFC11012C0812F0E94D50D812F0E94DA
:1044B00073098091AC03912F9823911509F42BCFA8
:1044C000109518231093AC0326CF809115048230E9
:1044D00008F421CFE1E0CE121ECF8091AF038123FB
:1044E000811509F418CFDFCF80911B04B11421F09E
:1044F0008C1508F410CFA5CFC81608F00CCF812F6B
:104500000E94D50D08CFC114D1F380911904909168
:104510001A04093321F080911704909118040E9425
:10452000880C802F0E94580EF6CE6B2D802F0E9493
:10453000C409F1CE8D2D8370811133C0B110EBCE43
:10454000402F429546954770440F440F802F8F703F
:10455000042E01C0880F0A94EAF7202F207104FF6F
:1045600007C02FE030E001C0220F4A95EAF72095FE
:104570003D2D369536953370323071F0333051F031
:104580004091AD03313029F0822B84230E948C03AB
:10459000C2CE842B822BFACF822B9091AD03892738
:1045A000F5CFB11459F1D0FEB6CE402F42954695C5
:1045B0004770440F440F802F8F70042E01C0880F66
:1045C0000A94EAF7202F207104FF07C02FE030E0A3
:1045D00001C0220F4A95EAF720953D2D3695369574
:1045E0003370323091F0333071F04091AE0331309E
:1045F00049F0822B84230E948F038DCE823008F4F1
:104600008ACED3CF842B822BF6CF822B9091AE0310
:104610008927F1CF1D2D1F70B11429F0812F0E9421
:104620009203802F0FCF802F0E94D50D812F0E94E3
:104630009C0371CE60F4003FB9F0013F81F0B114EA
:1046400009F472C0C110C0CE8D2D8F71A6CE033F6C
:10465000F9F0043FA1F78091220482FD25C08D2D41
:104660008F71B11421F399CE80911B04B11461F0C4
:10467000C81608F050CE2D2D2F7181E090E001C0BA
:10468000880F2A95EAF7C2CF8C1508F444CEF3CFF1
:1046900080E0B11409F4AFCF81E09D2D9F7101C07E
:1046A000880F9A95EAF7A7CF80911504823048F1D8
:1046B000B114C9F09091B3039770943059F41092EB
:1046C000B3031092B5031092B4038D2D8F710E9425
:1046D0009C0326CE63E0C81608F022CE8D2D8F7184
:1046E0000E945F091DCEC81640F01092B3031092CD
:1046F000B5031092B40364E0F1CF81E00E94AE04F0
:104700000FCEB11431F063E08D2D8F710E945F09DF
:1047100002CE81E00E94AE04F2E0CF1608F4FBCD99
:1047200082E00E94AE04F7CDC110EFCE8D2D8F71C7
:104730007ECF8091B1038093B0038091AF038093CB
:10474000B103FFCD40E060E089819A810E946B183F
:104750008D879E871091AF03C11429F01092250414
:104760001093B103EECD80912304909124042D8504
:104770003E8528173907A1F78091160482FFEECFF6
:1047800080912504811551F38091B0030E94C60DDC
:10479000802F0E94A20E8091B0030E94D50DDECF23
:1047A000A0E0B0E0E6EDF3E20C94D4348091F8039D
:1047B000803108F049C08091F703811509F444C0A5
:1047C000C091B90387E0D82E8091B8038C17E1F12E
:1047D000EC2EF12CDC9EE0011124FE01E654FC4F8E
:1047E00084818115B1F191818091F303981331C0D7
:1047F00090818091F20398132CC08581811129C08A
:10480000028113818091F4039091F503081B190B29
:1048100060E082EF93E00E9487180E94C119081798
:104820001907B8F48091F8038F7080618093F803C2
:10483000C054DC4F88818F708061888382EF93E061
:104840000E94411A0E94A404CDB7DEB7E7E00C94A1
:10485000F034E7012196C770B7CFCF92DF92FF9275
:104860000F931F93CF93DF93182F092F87E0F82E14
:10487000C091B9038091B803C81799F1FC9EE0017B
:104880001124CE0186549C4F6C01FC018581811559
:1048900089F0C6010E946018811561F0FE01E054A4
:1048A000FC4F20812F7020612083F601808191814F
:1048B0000E94E80EC6010E94411A2091B90330E01F
:1048C0002F5F3F4F277033272093B903C654DC4F27
:1048D00089818013CDCF88818113CACF8D818115C5
:1048E00039F2DF91CF911F910F91FF90DF90CF9020
:1048F0000895EF92FF920F931F93CF93DF93EC01F4
:1049000080913F01811539F010E0812FCDB7DEB7DE
:10491000E6E00C94F134EA80FB80E61AF70A24EF13
:10492000E21621E0F20680F760E0CE010E948718CF
:104930008C0190528115904338F7C8010E946F0492
:10494000811511F380918702909188020E946F0473
:10495000182F8115C9F280911F0490912004853F82
:1049600021E0920710F084EF91E0E816F90660F676
:104970008E818F7080618E83888199810E94E80E7C
:104980000E943304CE010E94411ABFCFAEE0B0E0D6
:10499000ECECF4E20C94C9348C0186E0F801DE0101
:1049A000189601900D928A95E1F7D801BC91BE87C7
:1049B000F8012180E280F3804480558051100CC0C2
:1049C00050916B02252F30E0E0E08E2F0E2E000C70
:1049D000990B821793073CF152EFA52E53E0B52EA9
:1049E0008091F603811152C04114D1F0511409F4A1
:1049F00014C3C8010E946018811509F40EC36091A8
:104A0000B6037091B703C80174DF811109C087E054
:104A1000F801A2EFB3E001900D928A95E1F7C0DEB4
:104A2000FF24F3948DC0880F991F855A9D4FDC0198
:104A300011964C911197421104C08C91BE85B81704
:104A400011F0EF5FC2CFEF3F39F2D80116968C918B
:104A500016978F70806116968C93E517A0F4AFEFD0
:104A6000A50FA0936B02EA1770F4F0E0EE0FFF1FA2
:104A7000E55AFD4FB0E0AA0FBB1FA55ABD4F8D915F
:104A80009C91918380830E943304A6CF60E082EFE3
:104A900093E00E9487183C013090F7038091F40363
:104AA0009091F5034701881A990A60E082EF93E03C
:104AB000311409F456C20E9487180E94C119881641
:104AC000990608F00CC2411409F4AACF8091F303AF
:104AD000F8019181B090F803F0E1BF1608F0C8C169
:104AE000981350C09091F203D8018C9198134AC04A
:104AF000511048C08B2D8F7080618093F80382EF36
:104B000093E00E94411A8091F803F8018683F090A7
:104B1000F403E090F50347E0D42E0091B9038091AF
:104B2000B803081751F0D09E8001112406541C4F81
:104B3000D80115968C91811108C00E94A404F12C13
:104B40008F2D2E96E2E10C94E534F801B280C380FB
:104B5000C8010E94601881110EC0C8010E94411A4C
:104B60008091B90390E00196877099278093B903EB
:104B7000FB2CEC2CD2CF6F2D7E2DC801BADE81111B
:104B8000EFCFDBCFF0E27F1A611420E3720608F06A
:104B900082C0511005C140E0622D8E850E94690CD3
:104BA00081114DC040E0622D8E850E94690CF82E67
:104BB000811509F429C18091160480FFC0CF82EFCE
:104BC00093E00E94411A60E082EF93E00E94871810
:104BD0006C011091B903712E08E022EF822E23E0C0
:104BE000922E37E0432E8091B8037816A1F0A72CBF
:104BF000B12C479CC0011124FC01E654FC4F7F01FD
:104C000060E0CF010E948718582E692ED7011596B3
:104C10008C91811196C097E0F92E083008F4BDC040
:104C2000888599851ADE0E9433040E94A40487E0D7
:104C3000E2EFF3E0DF011D928A95E9F780CF60E0B3
:104C4000C8010E9487188091160483FFABCFB8017A
:104C500082EF93E00E9440048111A4CF8091F80379
:104C60008F7080618093F8038091F2039091F30339
:104C70000E94E80E82EF93E00E94411AE2EFF3E017
:104C800087E0DF011D928A95E9F788859985E5DD42
:104C90000E94330452CF511409F484CF8091F80359
:104CA00081608093F8038091160481FF48CF82EFE2
:104CB00093E00E94411A0091B9038091B80308174C
:104CC00009F4CEC0E02EF12CB7E00B9FC0011124F7
:104CD000FC01E654FC4F6F01CF010E946018811562
:104CE00009F4BEC087E0F601A2EFB3E001900D9297
:104CF0008A95E1F7C701019687709927082F80935D
:104D0000B9030E94A40487E0F82E8091B8038017AD
:104D100009F413CFF09E8001112406541C4FC801E2
:104D20000E946018811109CFC8010E94411A809128
:104D3000B90390E0019687709927082F8093B903F3
:104D4000E4CFC60190528115904308F064CF809162
:104D5000160483FD0AC0072DC5010196E82FE770F0
:104D60007E2EC52CD62C47013ECFB701C4010E9430
:104D70004004811589F3EFCFF19EC00111248654C0
:104D80009C4F0E94411A2091B90330E02F5F3F4FA2
:104D900027703327122F2093B9030113EDCF40CF93
:104DA0008091F80381608093F80360E0C8010E945D
:104DB00087188091160483FF76CFB80182EF93E0C5
:104DC0000E94400481116FCFF090F803E894F0F84E
:104DD000F092F803C8010E9460188111B0CE8F2DA7
:104DE0008F7080618093F8038091F2039091F303B8
:104DF0000E94E80E0E94330482EF93E00E94411A61
:104E0000E2EFF3E087E016CF888599850E9453187A
:104E1000292F22952F70903450F49F70223080F00B
:104E2000911599F0F8019681903178F489CE2A5F36
:104E30002F70223078F0C8010E94411AF32C80CEE6
:104E4000911519F0811509F47BCE805E883008F445
:104E500077CEF1CF803F08F473CE815F8330F7CFF8
:104E600087E0E2EFF3E0DF011D928A95E9F74BCF8F
:104E7000981315C09091F203F801808198130FC028
:104E800051100DC0B682C8010E94411A87E0F80196
:104E9000A2EFB3E001900D928A95E1F7C1CDC80170
:104EA0000E946018811509F4B8C0511409F4B5C006
:104EB0008091F803803208F4AACD8091F20390919A
:104EC000F3039A838983FC82EB828091F6038D83BE
:104ED0001E82BF82CE0101960E94411A98CDD090C9
:104EE000F803F0E1DF1638F482EF93E00E94411AF4
:104EF00087E0D501A0CE411409F492CD9091F3033F
:104F0000F8018181981311C09091F2038081981368
:104F10000CC051100AC0D682C8010E94411A87E015
:104F2000D5011D928A95E9F77BCDC8010E946018D2
:104F3000811509F472C0511409F46FC08091F8030F
:104F4000803208F464CD8091F2039091F3039A8348
:104F50008983FC82EB828091F6038D831E82DF823F
:104F6000B9CF0E9487180E94C1198816990608F0C7
:104F700058C0411409F454CD511409F44EC0909115
:104F8000F303F8018181981330C09091F20380817E
:104F900098132BC08091F4039091F503E81AF90A55
:104FA00060E082EF93E00E94871880911D04909149
:104FB0001E04E816F90608F069CF8091F80380FD19
:104FC00065CF803108F462CFD80116968C9316977E
:104FD000982F907F903F09F456CF982F907F905F45
:104FE0008F70892B16968C934ECFC8010E94601843
:104FF000811571F06091B6037091B703C80179DC37
:10500000811509F404CD87E0E2EFF3E0DF0189CFF9
:105010008091F80381608093F803C8010E94411ACF
:10502000FFCC87E0F50111928A95E9F788CDABE1D5
:10503000B0E0EDE1F8E20C94D3344E8B5F8B688FD7
:10504000798F082F8A8F192F9B8FD82EC92E811503
:1050500009F4A1C040E0692F8E899F890E946B18D6
:105060007C01111549F0109225049093240480933B
:1050700023041092B2030AC0809123049091240467
:105080008E159F0519F481E0809325041D8A86E022
:10509000FE017696DE011F9601900D928A95E1F74A
:1050A0008091220482FF21C08091FB039091FC0338
:1050B000892BD9F00E94FE082091B4033091B503EA
:1050C000821B930B2091FB033091FC038217930703
:1050D00038F08091B30382FD03C082E00E94AE04E9
:1050E0000E940A0981110E94D704D11461F00B8B30
:1050F0001C8B61E0CE010F960E94871861E0CE0103
:105100000F960E9487180B8B1C8B87E0FE013F9641
:10511000DE01189601900D928A95E1F7CE0108966E
:1051200035DC811110C02091B8033091B90387E0BC
:10513000FE013896DE01119601900D928A95E1F7F5
:105140008C8581112CC017E08091B9039091B80330
:10515000891741F0189FC001112486549C4F16DC1A
:10516000811144C08C85811112C080913F01811151
:105170000EC08A859B852091B6033091B703821BB0
:10518000930B8F3F9F4318F081E080933F016B9614
:10519000E8E00C94EF34911509F478CF6ACF822FB0
:1051A00090E00196877099273817190671F40E94CC
:1051B000AD0E1092B8031092B90387E0E2EFF3E06E
:1051C000DF011D928A95E9F7BECF97E0929FD0014B
:1051D0001124A654BC4FFE01319601900D929A9570
:1051E000E1F78093B8030E94A404ADCF8091B90386
:1051F00090E00196877099278093B903A5CFA6E028
:10520000B0E0E5E0F9E20C94D7340E94FE088C018E
:1052100080912F02909130028017910771F01982CE
:105220001A820E94FE08BC0149815A8180E090E008
:10523000FEDE1093300200932F022696E4E00C94D9
:10524000F334A6E0B0E0E7E2F9E20C94D9349C0133
:1052500090932C0280932B02211580E2380738F4BA
:10526000C9010E94330E2696E2E00C94F53480EFDB
:1052700089838A830E94FE088160BC0149815A812A
:1052800081E091E0D4DEEFCFA6E0B0E0EAE4F9E21D
:105290000C94D9349C0190932C0280932B022115FD
:1052A00080E2380738F4C9010E94750E2696E2E0C4
:1052B0000C94F53480EF89838A830E94FE08816014
:1052C000BC0149815A8181E090E0B1DEEFCFCF93FC
:1052D000DF93D82FC92FB5DF809117049091180460
:1052E0000E94880C8D2F9C2FCFDFDF91CF910895E6
:1052F0000F931F93CF93DF938C01862F69E872E0A1
:105300000E94AC19892B91F4C0918902D0918A0234
:10531000209761F0F8018281833039F4CE01D7DF24
:10532000CE01D5DFCE01D3DF01C0E0F7DF91CF9111
:105330001F910F9108950F931F93CF93DF938C01CB
:10534000EB0169E872E08C2F0E94AC19892B09F0FF
:1053500057C0FE01FF27D80112968C911297ED528B
:10536000FE4F8130A9F415968C9182FD4EC080FFCE
:105370004CC082E0808380918B0290918C020097D8
:10538000B9F48091890290918A020097C9F110C006
:105390008230A1F515968C9182FD26C080FD0AC051
:1053A00083E0808380918D0290918E020097F1F0CE
:1053B00048DF26C084E0808380918F029091900224
:1053C0000097B1F78091890290918A02009701F1CC
:1053D0007EDF80918B0290918C02009749F780913B
:1053E000890290918A02E4CF85E0808380918902CE
:1053F00090918A02009721F06ADFF1CF86E08083E6
:10540000DF91CF911F910F91089581E08083B9CFF3
:1054100080918B0290918C02B8CF0F931F93CF9302
:10542000DF938C01EB0169E872E08C2F0E94AC19CC
:10543000892BA1F480911704909118040E94880C84
:10544000DD27CD52DE4F8881F80112821882833029
:10545000E9F048F4813059F0823081F0DF91CF914A
:105460001F910F9108958430B1F08530B9F7809184
:10547000890290918A02009789F306C080918B027D
:1054800090918C02009799F3FFDEE8CF80918D0216
:1054900090918E02F7CF80918F02909190020097A9
:1054A00099F72091890230918A0280918B02909124
:1054B0008C0221153105F9F2009731F7C901E4CFCB
:1054C000A0E1B0E0E6E6FAE20C94CB34FE013196BE
:1054D00080E1DF011D928A95E9F70DE010E091E38C
:1054E000A92E93E0B92E2FEC422E512C612C712C59
:1054F0004F0173016201B1E14B1651046104710463
:105500001CF080E1C82ED12CA601B501C4010E9477
:105510007735AC0CBD1C0D2C000CEE08FF084C18A8
:105520005D086E087F080150104019F76096E0E1B1
:105530000C94E7346FEF85E290E00E9486356FEFC0
:1055400086E290E00E9486356FEF87E290E00E944D
:10555000863560E088E290E00E9486350E94B818A7
:10556000AFDF63E685E290E00E9486356DE286E279
:1055700090E00E9486356BEF87E290E00C948635D0
:10558000CDB7DEB7AE970FB6F894DEBF0FBECDBF76
:1055900085B7806885BF85B7806885BF84B7877FFA
:1055A00084BF0FB6F894A8958091600088618093BD
:1055B0006000109260000FBE80E890E00FB6F89493
:1055C00080936100909361000FBE81E080933C0165
:1055D0008BEB96E090936501809364010E94E50651
:1055E0000E942D190E946B170E94A70B0E940F0C9E
:1055F0008091E20084608093E200789480910702B9
:105600008115A1F08091E900F090EC008F70F79483
:10561000FF24F794F82A1092E9008091E80083FDB6
:105620000E941C0F8F2D8F708093E90082E084BD53
:1056300093E095BD9AEF97BD80936E00109227027C
:10564000109228021092290210922A020E949F189A
:10565000811101C06FDF8091D80080618093D800F4
:105660002AE12A95F1F700C08091D900382F3170D6
:10567000F32E80FD04C00E94A70B10920702F09247
:105680002502F0922602F0920401F1100E94763376
:10569000809104018091040191E08927880F880F8F
:1056A0008093E40194E0981B9093E30184E90E94C5
:1056B000BD0686E60E94BD0687E90E94BD0686EC0F
:1056C0000E94BD06ECE5EE2EE1E0FE2EF2E6CF2EC6
:1056D000F1E0DF2ED7018D917D018F3F11F00E9407
:1056E000BD06CE14DF04B1F788E0EFEFF1E0DF0193
:1056F000282F1D922A95E9F7EBEDF1E0DF011D92CD
:105700008A95E9F780E090E00E947235833E9E4FD3
:1057100021F40E949F18811129C063EE7EEF80E082
:1057200090E00E94A03560E082E090E00E94863523
:1057300081E08093AD0361E083E090E00E948635D4
:10574000198284E18A83CE0101960E94320DF2DE35
:1057500040E050E0BA018FE090E00E94983540E0D0
:1057600050E0BA0183E190E00E94983582E090E039
:105770000E946A358093E70184E090E00E947235D0
:1057800090932204809321040E947A13EFEFF6E7AE
:1057900021E0E150F0402040E1F700C000000E940D
:1057A0007A13E091260281E0E827EE0FEE0FF0E099
:1057B000E150FE4F808181FF08C06FEF7FEF80E0F6
:1057C00090E00E94A0350E94EC0A83E090E00E94E5
:1057D0006A350E948C0380912502811101C089D70E
:1057E00085E091E0909352028093510280910702EC
:1057F000853049F480910702853009F452C00E9437
:10580000AD0E0E9488080E947A1368EEE62E61E0D1
:10581000F62E7FEFC72E71E0D72ED601F7019191BA
:105820008D9120EF31E02E173F0709F46FC09817D4
:10583000B1F340902502B12CD601AD906D01F70176
:1058400051907F015A1431F15A24712C66246394CB
:10585000862D85218115B9F04114A9F07982BA828B
:105860000E94FE089C838B83F1E0FD8391E0862DEE
:105870008A21811101C090E09E8349815A816B8108
:105880007C818D81D4DB7394660C26E07212E0CFAC
:10589000F701A292B39438E0B312CECF0E948B0AE4
:1058A00038C080910702843021F11092E50148E16F
:1058B00050E080E40FB6F894A895409360000FBEC6
:1058C0008093600083B7817F846083BF83B78160EA
:1058D00083BF7894889583B78E7F83BF0FB6F89483
:1058E000A8958091600088618093600010926000AC
:1058F0000FBE0E947A13EFEFF1E081918111D8C4BD
:10590000A7E0B2E0AE17BF07C1F774CF981391CFED
:1059100076DC80912502811509F48DC0E09010039A
:10592000F0901103E114F10491F14090F4015090D2
:10593000F5016090F6017090F7010E947F0A6419EA
:105940007509860997094090F0015090F101609027
:10595000F2017090F3016415750586059705B8F09E
:10596000C7010E94330E109210031092110310927F
:10597000F4011092F5011092F6011092F7011092C5
:10598000F0011092F1011092F2011092F301C09017
:105990009803D0909903C114D10461F1A0909A03A7
:1059A000B0909B030E94FE087C01EA18FB08C60128
:1059B0000E94C1198E159F05E8F48091980390917B
:1059C00099039C013327887F9927212C312C892B1F
:1059D00049F454E0220F331F5A95E1F7A901485EBC
:1059E0005C4F1A01D10115968C9182FD03C0C10153
:1059F0000E94A4128091140480FF1DC080913E017A
:105A000082FF19C00E94FE084C0180919C03909176
:105A10009D039401281B390B809111019091120173
:105A20002817390740F041E0B40180919E0390911E
:105A30009F030E94FC1186E0E1E8F2E0DE0111968E
:105A400001900D928A95E1F770908202B0908302E6
:105A5000C0908402A0908502D090860210928302AA
:105A60001092840210928502109286028C2D8B294E
:105A70008115A1F0E090FA01F090FB010E94FE0870
:105A80009C012E193F0990917F02911509F48AC05B
:105A9000809116018217130608F492C08D2D8A2971
:105AA0008115A1F0E090F801F090F9010E94FE0844
:105AB0009C012E193F0990917E02911509F4B0C006
:105AC000809114018217130608F4B8C080918202F5
:105AD000781219C080918302811511F08B1113C0C7
